:400000000080002011000000110800001108000010B500F01DFCC04670B51222284B1A60302000F02DFE274C8025ED0525600022254B1A60254B264A1A6080225200254901
:400040000A60254919602548254908602549196025490A60254A1A60C0218900244A1160244A1A60E0210901234A1160234A1A60E0214901224A1160224A1A608222120679
:40008000214B1A60214A224B1A604222214B1A607E32214B1A607F3A204B1A600232204B1A6001321F4B1A6001321F4B1A601F49082000F00DFD082000F0F4FC256070BDFF
:4000C000300010400C020B40000301400000014040FF00800803014042FF0080007F1A0600050140C0FF00800403014041FF00800C03014043FF00801003014044FF008081
:400100001403014045FF008008010B404902060000010B405801014054010140500101402C0101402801014014010140FD0E000010B572B60122494B1A7000240FE04848E6
:400140006200131959000B00411889881A5AC31858880004104300F027FB0134E4B2012CEDD93F490C313F48643000F003FBE02212013D4B1A8001213C4B19703C4A3D4B88
:400180001A60C02292043C4B1A60EE2212023B4B1A6099223A4B1A60913A3A4B1A6099231B04394A1360394A136080208005384A1060384A1360384A1360384A1360384A65
:4001C0001360384A384B1A600F23384A1360384A1360384803783C22934314221343DBB20370354A107816230343DBB213700223324A13603248334A10604020324A1060D9
:40020000C0204003314A10608020314A10601538304A10603048314A1060314A1160D8200001304A10604F202F4A10602F48304A1060902080002F4A10602F4A13603120AD
:400240002E4A10602E4A13602E4B196036222E4B1A60FFF7E1FE00F0BDFA10BD1C700F40482400004829000000600F4002600F40AA00000800000240000102400003024091
:40028000000602400007024000500F4010500F4018500F4020500F4040500F4050500F4070500F400404048458340F402000104000800F4001700F4000700F40000004409F
:4002C000310004000800044000010440080104401801044000020440B06D090008020440180204400803044000040440920408000804044008050440000604400806044004
:4003000018060440000704400807044010B5064C2378002B07D1054B002B02D0044800E000BF0123237010BD50010020000000003C230000084B10B5002B03D007490848C6
:4003400000E000BF07480368002B00D110BD064B002BFBD09847F9E700000000540100203C230000C00000200000000010B501F015FA084A13780133DBB2137051780131C0
:400380005170132B04D900220021002000F066F810BDC0466C01002010B500220021002000F05CF8002000F041FE10BD10B501F0DFF902000D4C0E49200001F09BFB2000C1
:4003C00001F0CAF901F0D4F90100042000F0FAF801F028FA00F05EFE00F0E4FE62B6054800F016FE044801F04FFA10BDCC01002040230000990300006D03000030B585B021
:4004000001F034F9FFF7D2FF01A800F099F90028FAD10FE05C1C01AA94466344DB780C4D22000C49280001F065FB280001F094F9230000E00023072BECDD054C03220649FE
:40044000200001F045FB200001F086F9DCE7C046CC010020502300006023000010B504000020134B18702000FF30FF235B0098421CD8002C0ADAD30701D5002906D00020A7
:4004800000F096FD604200F08BFD0FE0002C0ADD930701D5002906D0012000F089FD200000F07EFD02E0002000F07AFD10BDC0466C0100203D4B1B78DBB2013374D13C4B9B
:4004C0001B68202B1AD89B003A4AD3589F460022364B1A7012E00122344B1A700EE00222324B1A700AE00322304B1A7006E004222E4B1A7002E005222C4B1A702B4B1B7873
:400500005B012D4A944663441B68DB0206D4274B1B785B0163445A68520D08E0234B1B785B01254A944663445A68D20892B2234B1A801E4A117849011F4884466144096865
:40054000090C0F20014099701178490161448968090ED9701178490161448968090C19711178490161448968090A59711178490161448968997111784901114884466144C8
:400580000968090ED9711178490161440968090C19721178490161440968090A597212785201624412689A727047C046C400002008002F4064230000A0002F40340200200C
:4005C000AC002F40F0B5C1B006000C0001F024F8574B1E60574B1C6000236A46137028210191554A029280252D06039501206F46387405910692B00684462E000643079655
:40060000022720266846875509910A92A4056046044325430B951D3E3025684646550D910E920F9301361035465511911292604613903B3D50206E46355415911692179450
:4006400022396022B15419931A931B9301311032B1541D931E931F9301311032B1540432B3500432B3500432B35009210432B1540432B3500432B3500432B3500A21043270
:40068000B1540432B3500432B3500432B3500B210432B1540432B3500432B3500432B3500C210432B1540432B3500432B3500432B3500D210432B1540432B3500432B3508A
:4006C0000432B3500E210432B1540432B3500432B3500432B3500F210432B1540432B3500432B3500432B35000240AE063001B199800124B181800F0A5FE002805D1013406
:40070000E4B2072CF2D9002300E00123002B09D00BE02001684400F049FE002805D10134E4B200E000240F2CF3D941B0F0BDC0464002002044020020F9FF1F00E8230000A9
:4007400010B500280DD0094B1B78DBB201330AD00C22074901F0BCF9FF22044B1A70002002E0022000E0022010BDC046C400002034020020F0B50025002711E0BB00C65821
:40078000F3B2FF22964308E06A008A181478A419527822700135013BDBB2002BF4D101370F2FEBD9F0BDC04610B50A00002101F098F910BD064B1B68002803D0802212065D
:4007C000134301E05B005B08014A13607047C04680033A4010B50323084A1360084A136080221206074B1A600122074B1A600022064B1A600120FFF7DDFF10BD3000304055
:400800003000314000003A4000033A40000E3F4010B501F031F903680C2B00D1FEE7FEE710B50300084A1068C318084A9A1A802A02DC054A136005E001F01EF90C2303603A
:400840000120404210BDC046C80000205002002070B50F4E0F4D13E029686B68AC68002202E001C901C30432A242FAD1E868002202E0002102C304328242FAD11035013E65
:40088000002EE9D101F0FEF8FFF7B8FDFEE7C04601000000F02B000010B50E4A136801218B43136000230AE0032B03D89A000A49505800E009489900094A885001332F2B8E
:4008C000F2D9FFF735FC034A116801230B43136010BDC04600001040000000001108000000000020024A1168024B0B401360704700002240FFFFFFBF034B18688023DB0509
:40090000184000D0012070470000224030B52D4B1A783F231340042B01D9012000E0002000230AE0284A12683F210A402749C95C8A4201D1033303E001332D2BF2D903231B
:4009400023490A680124A2430A60224A126822490A6000280FD021490D681F4C65601F24A2431F4C247822431A4C22601D4A1278D2B20A6005E01F218A4317390A4315490C
:400980000A60302B0BD1002803D0174B1B78DBB202E0164B1B78DBB2154A13600CE0182B0AD1002803D0134B1B78DBB202E0124B1B78DBB20E4A1360104A116802230B43F1
:4009C000136030BD00F3FF0F2CFF0B40EC29000050000C4034FF0B407001002020FF0B40C0F1FF0FC1F1FF0FC3F1FF0F3FF3FF0F28FF0B40C2F1FF0F3EF3FF0F24002C4073
:400A000030B51A4B1A783F231340042B01D9012000E0002000230AE0154A12683F210A401449C95C8A4201D1033303E001332D2BF2D9032310490A680224A2430A600F4C1A
:400A400021681F2291430E4D2D682A400A432260002803D00A4A51680A4A11600A4A944663441B78DBB2094A136030BD00F3FF0F2CFF0B40EC29000024002C4034FF0B40A0
:400A80007001002020FF0B404DF3FF0F28FF0B40034B1B680220184000D001207047C04624002C401F2318401E3B8340014A13607047C04600E100E01F2318401E3B83404A
:400AC000014A13607047C04680E100E001BE704770B504000D001F2802D90020FFF7F6FF1034A40080239B059C4664442068256070BDC04670B504000E00032902D900200E
:400B0000FFF7E4FF1F2C02D90020FFF7DFFF03252540ED00063500F0D0FEA408A400074B9C46644421680323AB4099430B003100A9401943216000F0C4FE70BD00E400E008
:400B400010B5040006E0084B586800F0ADFE074B9C46644480231B029C42F4D8024B9868604300F0A1FE10BDCC0000200080FFFF30B583B000F06CF900285FD000F09DFECD
:400B800004002F4A116801230B43136000230AE02C4A12683F210A402B49C95C8A4201D1033303E001332D2BF2D90323274A1268D20606D1254802681F218A4313390A43CF
:400BC0000260234A1168234A0A40234959438020C00184466144C90B01394905490D0A43A021490311430800192B02D81B4B1A430EE01B4A9A1812781A3B1349C918302361
:400C0000CB5CD318FF2B00D9FF239B0502001A430F4B1A60134D2B680193302000F054FE114A13688021C9050B4313601420FFF787FF019B2B60200000F043FE03B030BDC3
:400C400050000C402CFF0B40EC29000034FF0B400800224000F800C040420F000000D43F4DF3FF0F300010400000224010B5034B1B7B584300F018FE10BDC046CC000020D0
:400C8000F0B55F4656464D464446F0B483B0040000F013FE0190FFF72FFE002804D0FFF721FE01239A4601E000239A46FFF7F0FE002808D0182C01D0302C07D1FFF7A0FEE7
:400CC00001239B4604E000239B4601E000239B46E61E2D2E74D8464B1B78DBB29C4208D8444B1B78DBB29946434B1B78DBB2984631E0424B1B78DBB29C4208D8404B1B7854
:400D0000DBB299463F4B1B78DBB2984623E03E4B1B78DBB29C4208D83C4B1B78DBB299463B4B1B78DBB2984615E03A4B1B78DBB29C4208D8384B1B78DBB29946374B1B785C
:400D4000DBB2984607E0364B1B78DBB29946354B1B78DBB29846344B9F5D2F2F09D92A2C07D91922314B1A60052000F09DFD192503E02E4B1D683F231D40BD4206D92A4B21
:400D80009A5D2A4B1A60052000F08EFD254B9C4664442378DBB2264A1360264B4A461A60254B42461A600520FFF760FFBD420AD21D4B9A5D1D4B1A60052000F075FD02E0BC
:400DC0000020FFF783FE5346012B01D1FFF7D0FE5B46012B01D1FFF799FD019800F071FD03B03CBC90469946A246AB46F0BDC04640F3FF0F41F3FF0F42F3FF0F43F3FF0FE9
:400E000044F3FF0F45F3FF0F46F3FF0F47F3FF0F48F3FF0F49F3FF0F4AF3FF0F4BF3FF0F4CF3FF0F4DF3FF0FEC2900002CFF0B4028FF0B401CFF0B4020FF0B40034B186838
:400E4000C0231B02184000D00120704700010B40034B1B68002B01DA012000E0002070470000224010B500F028FD044A1368C02109020B43136000F024FD10BD00010B409B
:400E800010B500F01AFD08490A68084B1A408024E40122430A600A6813408022120213430B6000F00EFD10BD00010B40FF3FFFFF70B5050000F001FD0400FFF7BFFF00281A
:400EC00003D0FFF7DDFF012100E0002108482840084A1568084B2B40184310601368012901D1FFF7BFFF200000F0EBFC70BDC0460404040010020B40FBFBFBFF10B5244B38
:400F00001B685B0715D5234B5B685B070ED5224B596A042001401F4C62688A4362605A6A82435A629B69002B00D098470420FFF7BFFF174B1B685B0518D5164B5B685B0562
:400F400010D5154B596A8022D2001140114842688A434260596A114A0A405A62DB69002B00D098478020C000FFF7A2FF084B1B685B030CD5074B5B685B0304D5064B1B6AC2
:400F8000002B00D098478020C002FFF791FF10BD10020B40E000002090010020FFFBFFFF0004000C014B18607047C0460C01204004490A68D2B202239A434000184010436E
:400FC0000860704700070440014B98647047C0460000002010B5040000F06FFC044A1168044B0B40A4051C43146000F06AFC10BD00E400E0FFFF3FFF0422014B1A6070479B
:4010000000E100E00422014B1A60704780E100E010B50400FFF7F6FF2000FFF7D5FF0320FFF7D8FFFFF7E8FF10BDC04610B5002805DB80B2054B9C46604480B203E0034B95
:401040009C46604480B200F04FF810BD0080FFFF024B18780F2318407047C04660000F40014B18707047C04680000F4010B50F20FFF7F6FFFFF7ECFF00F01FFC044A117861
:4010800010230B43DBB2137000F01BFC10BDC04690000F4010B500F075F88020000200F023F8054B1B78002B02D10122024B1A70FFF7DCFF10BDC046B8010020034A1178E9
:4010C00080235B420B43DBB21370704776000F40014B18707047C04684000F40014B1878C0B2704764000F40014B18807047C0460C100F40014B188880B270478C100F40EE
:40110000014B18807047C0464C100F40014B18807047C0466C100F4010B501E0FFF7EAFFFFF7DCFF4306F9D410BDC04610B5134B1A7807218A431A701A7804398A431A705E
:40114000FFF7EAFF802424022000FFF7D9FF2000FFF7CAFF0020FFF7BBFFFFF7BFFF2000FFF7D4FF00F0A9FB054A117810230B43DBB2137000F0A5FB10BDC04676000F4067
:4011800094000F4010B5064B1B78002B04D1FFF7CDFF0122024B1A70FFF790FF10BDC046B9010020054B1A6801210A431A601B68194201D1012000E00020704704002F40FF
:4011C00010B50E4A0E4B1A60FFF7ECFF1D20FFF769FC0C4A116801230B431360F0231B0100E0013B002B03D0064A1268D207F8D5002B01D1012000E0002010BD011000001D
:4012000000002F4010002F4003B2002B0DDB094A1168094B0B400004034313601268074B1340984203D0012002E0022000E000207047C04614002F40FFFF00800000FF7FA3
:40124000002809D10C4B19680C4A0A401A601B68DB040CD501300DE0074B1A68802149010A431A601B680B4203D1012002E0002000E000207047C04614002F40FFEFFFFFA0
:4012800070B5841EE4B20D2C35D88C1EE4B2052C03D9002B31D1012931D1032A31D8904231D3914231D31C4D2C68240AE4B20F26B44320432E68194C3440000204432C606E
:4012C0002C686040F0242401204220D1002B00D002234901C9B29200D2B2114319430E4A1368EE2083430B4313601368034099420FD0ED380EE002200CE002200AE0022054
:4013000008E0022006E0022004E0022002E0012000E0002070BDC04614002F40FFF0FFFF002809D10B4B1A6810218A431A601B6819420BD001300CE0064B1A6810210A4376
:401340001A601B68194203D1012002E0002000E00020704714002F40002809D10B4B1A6801218A431A601B6819420BD001300CE0064B1A6801210A431A601B68194203D15D
:40138000012002E0002000E00020704714002F40054B18601B681B041B0C984201D0012000E000207047C04604002F4010B503785B01204A944663441F4A41680A431A60E3
:4013C00003785B01634419681C4A11401C4A44682240914224D182681A6103785B0163441A6981688A421DD1C2685A6103785B0163445A69C1688A4216D1012252429A613E
:4014000003785B0163449A6901320FD10022DA6103785B016344DB69002B09D0012008E0012006E0012004E0012002E0012000E0002010BDA0002F40800080007F007F00E2
:401440007FFF7FFF10B503781B01104A944663440F4A41680A431A6003781B01634419680C4A11400C4A4468224091420AD182685A6003781B0163445A6883689A4203D0BA
:40148000012002E0012000E0002010BD20002F4008008000F7007F00F7FF7FFF70B500240AE063001B199800104B1818FFF7CAFF002805D10134E4B2072CF2D9002500E0C2
:4014C0000125002D0BD00FE0230108486030C018FFF76CFF002806D10134E4B200E000240F2CF1D900E00125280070BD342A0000002809D10C4B19680C4A0A401A601B688F
:401500009B040CD501300DE0074B1A68802189010A431A601B680B4203D1012002E0002000E000207047C04614002F40FFDFFFFF10B580221206344B1A60344A13680121D1
:401540008B431360C8231B0200E0013B002B03D02E4A1268D207F8D4002B4AD01D20FFF7ABFA2B491D20FFF7B3FA03211D20FFF7C1FA1320FFF748FE00281AD1FFF760FE18
:40158000002818D1FFF7B4FF002816D10023012201210C30FFF774FE002810D10130FFF7BFFE00280DD1FFF7D7FE00280BD001230AE0012308E0012306E0012304E0012345
:4015C00002E0012300E00023002B14D1FFF766FF002812D10F48FFF7DBFE00280FD10B4B1A6807218A431A601B68194209D0013008E0012006E0012004E0012002E00120F7
:4016000000E0002010BDC04600042F4010002F40411600000110000010B5084B1B78002B02D1FFF785FF00E00020002804D10122024B1A70FFF7C4FD10BDC046BA010020FE
:401640007047C04610B500F075F810BD10B500F01DF810BD10B5044A1368802109060B431360FFF7EFFF10BD0000274010B5064B1B78002B04D1FFF7E9FF0122024B1A708F
:40168000FFF7E8FF10BDC046BC010020154A164B1A600023154A13601549164A1160164A16490A6007201649086016490B6006381549086015490A60154A13600421154A3C
:4016C0001160154A1360154A1360154A1360154A1360154A1360154A13601268144B1A807047C0460B000002000027404000274001000A0048002740070000800003274097
:40170000040327401003274044002740000227400402274050002740880E2740C80E2740480F2740080F2740C80F2740880F2740BE01002005490B68F0229343603A13435F
:401740000B60034B1A88034B1A60704700060240BE010020880F274070B50500002402E000F0F0F80134285D0028F9D170BDC046014B1878C0B2704763000F40034A1178F6
:4017800080235B420B43DBB21370704773000F40014B18707047C04687000F40014B1878C0B2704767000F4010B50100014800F0B5F810BD22000F4010B5024800F0B8F857
:4017C00010BDC04642000F4010B50100014800F0A5F810BD02000F4010B501E0FFF7ECFFFFF7DCFF0307F9D410BDC04610B50B4C2000FFF7D9FF2000FFF7E6FF00F05DF87F
:40180000074A117810230B43DBB2137000F059F8FFF7E2FF0120FFF7BBFF10BD3F420F0097000F4010B5064B1B78002B04D1FFF7DDFF0122024B1A70FFF7A0FF10BDC04634
:40184000C0010020014BD8647047C0460000002010B5040000F031F8044A13689B009B08A4071C43146000F02CF810BD00E400E00822014B1A60704700E100E00822014B38
:401880001A60704780E100E010B50400FFF7F6FF2000FFF7D7FF0320FFF7DAFFFFF7E8FF10BDC046000000000230800803D00138FDD1C046C046C0467047EFF3108072B67D
:4018C000704780F31088704770B50400FFF7F5FF0500102C05D8104A136803218B43136016E0202C07D80C490B6803229343023A13430B600CE0302C07D807490B68032214
:401900009343013A13430B6002E00020FFF7DEF82800FFF7D6FF70BD30001040CBB203700B0ADBB24370090CC9B281707047C0460378427812021A4383781B041A431000B7
:401940007047C046044B1B681F221340082BF9D0024B18607047C0460802274040022740002243088B4274D303098B425FD3030A8B4244D3030B8B4228D3030C8B420DD39D
:40198000FF22090212BA030C8B4202D31212090265D0030B8B4219D300E0090AC30B8B4201D3CB03C01A5241830B8B4201D38B03C01A5241430B8B4201D34B03C01A5241E2
:4019C000030B8B4201D30B03C01A5241C30A8B4201D3CB02C01A5241830A8B4201D38B02C01A5241430A8B4201D34B02C01A5241030A8B4201D30B02C01A5241CDD2C309B2
:401A00008B4201D3CB01C01A524183098B4201D38B01C01A524143098B4201D34B01C01A524103098B4201D30B01C01A5241C3088B4201D3CB00C01A524183088B4201D30A
:401A40008B00C01A524143088B4201D34B00C01A5241411A00D20146524110467047FFE701B5002000F006F802BDC0460029F7D076E770477047C046014B18687047C046FD
:401A8000480100200E4B70B500251E000D4CE41AA410A54204D0AB00F35898470135F8E701F094F8084B00251E00084CE41AA410A54204D0AB00F35898470135F8E770BD61
:401AC000D82B0000D82B0000D82B0000E02B0000002310B59A4203D0CC5CC4540133F9E710BD03008218934202D019700133FAE7704700000EB410B59DB002A90290086107
:401B00000B48822488604861012040421FABC881084804CBA400006801938C8100F06EF80023029A13701DB010BC08BC03B01847FFFFFF7F48010020F0B58E6885B00700D6
:401B40000C00039201939E4243D890238A89DB001A423ED003250969236801985B1A029363695D43EB0F5D19029B6D1001331B18AB4200D91D00530510D52900380000F094
:401B800037FB061E14D0029A2169FFF7A1FFA289194B134080221343A38112E02A00380000F086FB061E0CD12169380000F0D4FA0C23402201203B60A38940421343A38176
:401BC00017E0029B2661F61826606561019EED1AA560019BB34200D21E0032000399206800F0A5FA0020A3689B1BA36023689E19266005B0F0BDC0467FFBFFFFF0B59FB0DF
:401C0000029005938B890F0016001B0610D50B69002B0DD1402100F0EBFA38603861002804D10C23029A01381360D8E040237B61002306AD6B6120336B761033AB7634007E
:401C40002378002B03D1A31B049312D003E0252BF9D00134F4E7A31B320039000298FFF76BFF431C00D1B4E06A69049B944663446B612378002B00D1ABE0012200235242E5
:401C80006A6002A95432521801342B60EB60AB601370AB65534E21780522300000F03CFA002807D00123801B83402A68013413432B60EFE72B68DA0604D55322202102A8B4
:401CC000121811701A0704D553222B2102A81218117022782A2A03D0099B00200A210EE0059A111D12680591002A01DB099204E05242EA60022213432B6001340BE022788C
:401D0000303A092A04D84B4301349B180120F6E7002800D0099323782E2B1ED163782A2B0AD1059B02341A1D1B680592002B01DA01235B42079310E000230A201A00013420
:401D40006B6021783039092904D84243013452180123F6E7002B00D00792234E21780322300000F0D9F9002806D04023801B83402A68013413432B60217806221B48661CA1
:401D8000297600F0C9F9002812D0194B002B06D10722059B073393430833059314E005AB00933A00134B2900029800E000BF07E005AB00933A000F4B2900029800F08AF892
:401DC0000390039B013304D06B69039A9B186B6135E7BB890B985B0601D5012040421FB0F0BDC046962B00009C2B0000A02B000000000000391B0000F7B5170001938A686B
:401E00000B6900900C00934200DA130022003B6043321278002A01D001333B6023689B0602D53B6802333B60062523681D401ED0230043331B785A1E9341226892061CD548
:401E40003020E1184331087021005A1C45310978A2184332023311700FE022000123193201990098089EB047431C0ED00135E3683A689B1A9D42F0DBDAE7220001994332BA
:401E80000098089DA847431C02D10120404220E006232068E1683A6803400025042B03D18D1AEB43DB171D40A3682269934201DD9B1AED180027BD420AD0220001231A3261
:401EC00001990098089EB047431CDED00137F2E70020FEBDF0B58BB006920A0043320793059004920A7E0C00109B6E2A00D1ABE011D8632A22D009D8002A00D1B5E0582AD0
:401F000000D0C5E045310A70814A4FE0642A1DD0692A1BD0BCE0732A00D1AAE009D86F2A29D0702A00D0B3E0202209680A43226037E0752A1FD0782A33D0A9E00E001A6860
:401F40004236111D196013683370A4E021681A68080606D4490604D5111D19600023D55E02E0111D19601568002D3BDA2D23049A6D42137036E021681A68080606D44906C8
:401F800004D51568111D1960ADB202E0111D196015685F4B227E039308276F2A1DD00A271BE022007821453211705A4A19680392081D226818600D68100602D4500600D5DE
:401FC000ADB2D30702D520231A4322601027002D03D1202322689A4322602300002243331A7002E00A274A4B03936368A360002B09DB0422216891432160002D05D1049E42
:40200000002B11D07BE0002D79D0049E28003900FFF72CFD039B013E5B5C280033703900FFF79EFC051EF1D1082F09D12368DB0706D563682269934202DC3023013E3370FD
:40204000049B9B1B23612BE009681A68080607D4490605D5111D19601368A28A1A8004E0111D1960136862691A600023049E236116E01A68111D1960166800216268300043
:4020800000F04AF8002801D0801B6060636803E0260042363270012323610023049A1370079B09AA00932100069B0598FFF7A4FE431C02D10120404227E0236932000699A8
:4020C0000598079DA847431CF4D0236800259B070FD4099BE068984217DA180015E022000123193206990598079EB047431CE1D00135E368099A9B1A9D42F0DBE9E72600A2
:40210000039B42361B7833708EE70BB0F0BDC046A72B0000B82B0000C9B28218904204D003788B4202D00130F8E70020704710B5884202D98B18984201D3002305E09B1A87
:40214000013A08D3995C8154FAE7934203D0CC5CC4540133F9E710BD70B50500002944D00C1F2368002B00DAE418280000F0D8F81E4A13681100002B02D16360146031E095
:40218000A3420DD92268A018834203D118685B688218226063600C6024E0A24203D813005A68002AF9D11E689819A0420BD12168711858181960824214D11068526841183B
:4021C00019605A600EE0A04202D90C232B6009E021686018824203D1106852684118216062605C60280000F09CF870BDC8010020032370B5CD1C9D43083506000C2D01D216
:402200000C2501E0002D01DBA94202D90C23336048E0300000F084F8234B1C681A002100002913D00B685B1B0DD40B2B02D90B60CC181EE08C4202D1636813601AE04B684A
:4022400063600C0016E00C004968E9E7174C2368002B03D1300000F051F820602900300000F04CF8431C18D00323C41C9C43A0420DD12560300000F054F8200007220B3048
:40228000231D9043C31A0ED05A42E2500BE0211A300000F033F8431CEBD10C233000336000F03FF8002070BDC8010020C4010020F8B506000C001500002904D11100FFF7E9
:4022C00097FF040018E0002A03D1FFF745FF2C0012E000F027F885420ED929003000FFF787FF071E07D021002A00FFF7F1FB21003000FFF731FF3C002000F8BD002370B56B
:40230000064C050008002360FEF78AFA431C03D12368002B00D02B6070BDC04648020020704770470B1F1A68101F002A04DA891804390B68D01804387047000000000000E4
:4023400044697020416464723A202578200D0A00427974652564202578202020000000000D0A0000FC040000CE040000D6040000FC040000DE040000FC040000FC04000098
:40238000FC040000E6040000FC040000FC040000FC040000FC040000FC040000FC040000FC040000EE040000FC040000FC040000FC040000FC040000FC040000FC04000041
:4023C000FC040000FC040000FC040000FC040000FC040000FC040000FC040000FC040000FC040000F6040000000000000800880000000000010000000800880000000000C2
:4024000002000000080088000000000003000000080088000000000004000000080088000000000005000000080088000000000006000000080088000000000007000000B1
:40244000080088000000000000300F40000800400F400008051815182514350C800F8103846F870D01010501060109010A02110117021F012F0230013101340237023F415D
:40248000540F580459045B045C015D105F018209860988A48A538C0C9A899C6D9E12A249A402A501A610A902AE0CB102B238B4C0B501B607B808BA20C032C5C0C6E0C70B81
:4024C000C81AC9FFCAFFCBFFD604D804D904DA04DB04DC29DD09DF01E2C0E440E5010128049405010E0A15401640170819021A041C101E0A1F4021012240244026102A807B
:402500002F14300A31803915450847104C404F02571459805A295C405E206480680269156D406F817602770885408C80C0F6C2C0C4B0CA68CC0BCE07D060D63FD880E21073
:402540000001028003020402066008A00A5F1303160818041A501C571E081F02225723012F0130C0320F3301343037023A223F44405649FF4AFF4BFF4F0150185804590452
:402580005A045B045C095D035F016040624064406540668068806A806C806E808102853C890C8B308E018F01951C980499289A029B149F02A114A206A328A930AB0CAC0704
:4025C000B001B101B204B33CB502B602BE45BF10C056C9FFCAFFCBFFCD83CE03CF01D018D280D804D904DA04DB04DC10DD33DF01E040E240E440E540E680E880EA80EC8075
:40260000EE8000C0041405010601070108200D080E0A1282164019801A601C041D092104220223082540272029022B082D402F8030A0320437413840392A3E0248084B4099
:402640004C084F40588259285D405E20650466017280734079407A107B118108832085048601880290109284938094049629972899029A029B019D819EC09F10A205A3953B
:40268000A408A5C8A928AD01C071C2E2C419CA95CC9ECE8FD23CD63FD8C0E604040105FD070209940B601573199E1B60213023C92603270F29CF2B3031FF340236013E4029
:4026C0003F01405645EC4702481349FF4AFF4BFF4D834E034F015018540F580459045A045B045C015D135F056040624064406540668068806A806C806E8080808120821F12
:4027000084CC85018621870288CC89048A128BD393209477958098089AF19B08A163A31CA4BBA501A644AD02B110B2F0B30CB40FB5E0B707B920C035C612C750C82CC9FF05
:40274000CAFFCBFFCDA0D804D904DA04DC91DD09DF01E040E140E2C0E4C0E6C0000405160C040E0410101304150818041A021D141F08220225802754282029022B182F62B2
:40278000302031103214371539283C103F0A411042044704480849094B404F8050085640576258105A425B08622478049010910892C493C095229608972899029B099C2021
:4027C0009E409F50A305A4E8A580A680A708A904AB40B080B520C074C260C424CAD7CCE6CEE6D040D21CD60FD806DE020096026804A3065C08C50A3A0E010F021102180EE8
:402800001AF024FE2601287F2F03330236FF37013E403F044023410649FF4AFF4BFF4DA04F0150185280580459045A045B045C105D115F0160406280644065406680684004
:402840006A806C406D206E80801082018521861C88018A108E209202940595079608981D990C9D219F10A405A50AA608A81CA90CB003B110B30EB43CB501B720B9A8BF108C
:40288000C036C102C542C6C3C70EC81FC9FFCAFFCBFFCDAFCE07CF01D018D401D604D804D904DA04DB04DC11DD31DF01E040E280E440E540E680E840EA80EC40ED20EE8045
:4028C00000040102020203080480051608200A200B800C100E0410141424150818841B121F4020082101228423082508272228202B082F0230843110320437023B043E80D9
:4029000040044108472848444B044F205080522459095A80608076808080910892A4950296089704991F9C049E04A202A308A4C0A6A0A710AF14C0FFC24EC466CA16CC8EBA
:40294000CE12D066D224D60BD801030805106B606C206E0287208F40C0C0DAC0DC60E240634080209340A420A601A910AB08AF40D840E280ECA0EE400A080F40A601C26082
:402980008201A601AE04AF40E680EC50004001040520074080408920C00FE204B104B740EA0C100E1101120A1301000008000F403D300F4031310F4061320F404D330F4064
:4029C00060340F4048350F406A360F4045370F400B400F400C410F4004420F4006430F4008450F4003460F4004600F40030405060708090A0B0C0E0F101112131415161720
:402A000018191B1C1D1E1F2021222325262728292A2B2E2F3031323334350000EEDBC9B9AA9B8E82766B60564D443B332C241D17100A040000000000080088000000000042
:402A40000100000008008800000000000200000008008800000000000300000008008800000000000400000008008800000000000500000008008800000000000600000071
:402A800008008800000000000700000008008800000000000000000028000000F9FF1F000000008A0100000028000000F9FF1F000000208A0200000028000000F9FF1F00FB
:402AC0000000408A0300000028000000F9FF1F000000608A0400000028000000F9FF1F000000808A0500000028000000F9FF1F000000A08A0600000028000000F9FF1F00E0
:402B00000000C08A0700000028000000F9FF1F000000000A0800000028000000F9FF1F000000200A0900000028000000F9FF1F000000400A0A00000028000000F9FF1F00AF
:402B40000000600A0B00000028000000F9FF1F000000800A0C00000028000000F9FF1F000000A00A0D00000028000000F9FF1F000000C00A0E0000000000000000000000FE
:402B8000000000000F0000000000000000000000000000004300232D302B2000686C4C00656667454647003031323334353637383941424344454600303132333435363796
:402BC000383961626364656600000000F8B5C046F8BC08BC9E4670473503000099080000F8B5C046F8BC08BC9E4670470D030000002C0000C00000209000000000010000FD
:402C000000000000FF00000050020020010000000000204E409C000028000000005A6202F000000004040400000000000000000000000000000000000000000000000000F6
:402C40000000000000000000942B00000000000000000000000000000000000000000000000000000000000000000000000000000000000000000000000000000000000095
:402C80000000000000000000E8000020000000000000000000000000000000000000000000000000000000000000000000000000000000000000000000000000000000000C
:402CC00000000000000000000000000000000000000000000000000000000000000000000000000000000000000000000000000000000000000000000000000000000000D4
:402D00000000000000000000000000000000000000000000000000000000000000000000000000000000000000000000000000000000000000000000000000000000000093
:402D40000000000000000000000000000000000000000000000000000000000000000000000000000000000000000000000000000000000000000000000000000000000053
:402D80000000000000000000000000000000000000000000000000000000000000000000000000000000000000000000000000000000000000000000000000000000000013
:020000040003F7
:0200000490303A
:02000000D0A589
:0200000490402A
:4000000000000000000000000000000000000000000000000000000000000000000000000000000000000000000000000000000000000000000000000000000000000000C0
:400040000000000000000000000000000000000000000000000000000000000000000000000000000000000000000000000000000000000000000000000000000000000080
:0200000490501A
:0C0000000002101111A00001101EE245CA
:0200000490600A
:0100000001FE
:00000001FF