:400000000080002011000000450800004508000010B500F037FCC04670B51222284B1A60302000F047FE274C8025ED0525600022254B1A60254B264A1A6080225200254965
:400040000A60254919602548254908602549196025490A60254A1A60C0218900244A1160244A1A60E0210901234A1160234A1A60E0214901224A1160224A1A608222120679
:40008000214B1A60214A224B1A604222214B1A607E32214B1A607F3A204B1A600232204B1A6001321F4B1A6001321F4B1A601F49082000F027FD082000F00EFD256070BDCA
:4000C000300010400C020B40000301400000014040FF00800803014042FF0080007F1A0600050140C0FF00800403014041FF00800C03014043FF00801003014044FF008081
:400100001403014045FF008008010B404902060000010B405801014054010140500101402C0101402801014014010140310F000010B572B60122494B1A7000240FE04848B1
:400140006200131959000B00411889881A5AC31858880004104300F041FB0134E4B2012CEDD93F490C313F48643000F01DFBE02212013D4B1A8001213C4B19703C4A3D4B54
:400180001A60C02292043C4B1A60EE2212023B4B1A6099223A4B1A60913A3A4B1A6099231B04394A1360394A136080208005384A1060384A1360384A1360384A1360384A65
:4001C0001360384A384B1A600F23384A1360384A1360384803783C22934314221343DBB20370354A107816230343DBB213700223324A13603248334A10604020324A1060D9
:40020000C0204003314A10608020314A10601538304A10603048314A1060314A1160D8200001304A10604F202F4A10602F48304A1060902080002F4A10602F4A13603120AD
:400240002E4A10602E4A13602E4B196036222E4B1A60FFF7E1FE00F0D7FA10BD1C700F40144400001449000000600F4002600F40AA0000080000024000010240000302409F
:40028000000602400007024000500F4010500F4018500F4020500F4040500F4050500F4070500F400404048458340F402000104000800F4001700F4000700F40000004409F
:4002C000310004000800044000010440080104401801044000020440B06D090008020440180204400803044000040440920408000804044008050440000604400806044004
:4003000018060440000704400807044010B5064C2378002B07D1054B002B02D0044800E000BF0123237010BD4801002000000000B4430000084B10B5002B03D00749084836
:4003400000E000BF07480368002B00D110BD064B002BFBD09847F9E7000000004C010020B4430000C00000200000000010B501F02FFA084A13780133DBB213705178013116
:400380005170132B04D900220021002000F01CF910BDC0466401002010B500220021002000F012F9002000F05BFE10BD10B52F4C09222F49200003F0C7FB200001F0E6F9A0
:4003C000802252012B4B1A602B4B1B68DB0723D52A4B1B68FF221A40244C2949200003F0C5FB200001F0D2F9264B1B68DB0203D4254B1A68520D02E0234B1A68D2081B4C35
:400400002249200003F0B2FB200001F0BFF91D4A116801230B431360174B1B689B0723D51B4B1B68FF221A40104C1A49200003F09DFB200001F0AAF9174B1B68DB0203D469
:40044000164B1A68520D02E0144B1A68D208074C0E49200003F08AFB200001F097F90E4A116801230B43136010BDC046DC010020B843000000002F4008002F40A8002F403C
:40048000C4430000A0002F40A4002F40D8430000C8002F40F0430000C0002F40C4002F4070B562B6042000F0BBF801F0F9F801F079F902001A4C1B49200003F057FB200092
:4004C00001F064F901F0C2F8174C00232370174BE360174DA560174B1B686360200000F07FFF01232370144BE360A560134B1B686360200000F074FF00F06EFE10491D202F
:4005000000F000FB01F0A8F900F0DEFD01F09EF80C4800F097FD0C4801F0D0F970BDC046DC01002004440000400200200000E041FFFF1F00A0002F400000E021C0002F40AF
:40054000AD030000990300006D03000070B5FFF7A7FF00220021FF2000F08CF800F074F8002414E0FF220021FF2000F083F805000022FF21002000F07DF80100FF232200D7
:40058000280000F07DF8142000F0F4FA0134FE2CE8DD002415E0FF220021FF2000F06AF805000022FF21002000F064F80100FF22121BFF23280000F063F8142000F0DAFA1D
:4005C0000134FE2CE7DDCBE710B504000020134B18702000FF30FF235B0098421CD8002C0ADAD30701D5002906D0002000F0FAFC604200F0EFFC0FE0002C0ADD930701D509
:40060000002906D0012000F0EDFC200000F0E2FC02E0002000F0DEFC10BDC0466401002010B5040001F06CFA042C00D90424200001F02AFA034B186D01F000FA012001F059
:40064000B9F910BD604B000070B5050001F0E8F9002808D10DE02A000021200001F002FA0134E4B200E00024032CF4D9012001F0A1F970BD120403021A43100008437047E0
:40068000F0B557464E464546E0B48CB007000C0002920493C3B219B28846020AD3B219B28946060CF3B219B20191200A250CAA46FF2503002B402A40981A03F035F80690CF
:4006C00007912C402F40E01B03F02EF80890099153462B403540581B03F026F80A900B91049803F063F806000F0002000B000698079901F0FFFE04000D0032003B000898B8
:40070000099901F0F7FE0490059132003B000A980B9901F0EFFE06900791029803F046F806000F0002000B002000290002F0F8F904000D00484602F0F7FF22002B0001F06A
:40074000ADFB01F08DFBC4B232003B000498059902F0E6F902900391404602F0E5FF029A039B01F09BFB01F07BFBC5B232003B000698079902F0D4F906000F00019802F03F
:40078000D3FF32003B0001F089FB01F069FBC2B229002000FFF76EFFFFF756FF0CB01CBC90469946A246F0BDF0B50025002711E0BB00C658F3B2FF22964308E06A008A1899
:4007C0001478A419527822700135013BDBB2002BF4D101370F2FEBD9F0BDC04610B50A00002103F0BAF910BD064B1B68002803D080221206134301E05B005B08014A1360D9
:400800007047C04680033A4010B50323084A1360084A136080221206074B1A600122074B1A600022064B1A600120FFF7DDFF10BD300030403000314000003A4000033A402F
:40084000000E3F4010B503F053F903680C2B00D1FEE7FEE710B50300084A1068C318084A9A1A802A02DC054A136005E003F040F90C2303600120404210BDC046C4000020F0
:400880008002002070B50F4E0F4D13E029686B68AC68002202E001C901C30432A242FAD1E868002202E0002102C304328242FAD11035013E002EE9D103F020F9FFF746FE25
:4008C000FEE7C04601000000FC4F000010B50E4A136801218B43136000230AE0032B03D89A000A49505800E009489900094A885001332F2BF2D9FFF71BFC034A11680123D6
:400900000B43136010BDC04600001040000000004508000000000020024A1168024B0B401360704700002240FFFFFFBF034B18688023DB05184000D001207047000022400E
:4009400030B52D4B1A783F231340042B01D9012000E0002000230AE0284A12683F210A402749C95C8A4201D1033303E001332D2BF2D9032323490A680124A2430A60224A7F
:40098000126822490A6000280FD021490D681F4C65601F24A2431F4C247822431A4C22601D4A1278D2B20A6005E01F218A4317390A4315490A60302B0BD1002803D0174B8C
:4009C0001B78DBB202E0164B1B78DBB2154A13600CE0182B0AD1002803D0134B1B78DBB202E0124B1B78DBB20E4A1360104A116802230B43136030BD00F3FF0F2CFF0B40D8
:400A0000B849000050000C4034FF0B406801002020FF0B40C0F1FF0FC1F1FF0FC3F1FF0F3FF3FF0F28FF0B40C2F1FF0F3EF3FF0F24002C4030B51A4B1A783F231340042B65
:400A400001D9012000E0002000230AE0154A12683F210A401449C95C8A4201D1033303E001332D2BF2D9032310490A680224A2430A600F4C21681F2291430E4D2D682A40A2
:400A80000A432260002803D00A4A51680A4A11600A4A944663441B78DBB2094A136030BD00F3FF0F2CFF0B40B849000024002C4034FF0B406801002020FF0B404DF3FF0F2B
:400AC00028FF0B40034B1B680220184000D001207047C04624002C401F2318401E3B8340014A13607047C04600E100E01F2318401E3B8340014A13607047C04680E100E097
:400B000001BE704770B504000D001F2802D90020FFF7F6FF1034A40080239B059C4664442068256070BDC04670B504000E00032902D90020FFF7E4FF1F2C02D90020FFF774
:400B4000DFFF03252540ED00063501F0AAF8A408A400074B9C46644421680323AB4099430B003100A9401943216001F09EF870BD00E400E010B5040006E0084B586801F080
:400B800087F8074B9C46644480231B029C42F4D8024B9868604301F07BF810BDC80000200080FFFF30B583B000F06CF900285FD001F077F804002F4A116801230B431360EA
:400BC00000230AE02C4A12683F210A402B49C95C8A4201D1033303E001332D2BF2D90323274A1268D20606D1254802681F218A4313390A430260234A1168234A0A402349FF
:400C000059438020C00184466144C90B01394905490D0A43A021490311430800192B02D81B4B1A430EE01B4A9A1812781A3B1349C9183023CB5CD318FF2B00D9FF239B05B4
:400C400002001A430F4B1A60134D2B680193302001F02EF8114A13688021C9050B4313601420FFF787FF019B2B60200001F01DF803B030BD50000C402CFF0B40B84900009D
:400C800034FF0B400800224000F800C040420F000000D43F4DF3FF0F300010400000224010B5034B1B7B584300F0F2FF10BDC046C8000020F0B55F4656464D464446F0B439
:400CC00083B0040000F0EDFF0190FFF72FFE002804D0FFF721FE01239A4601E000239A46FFF7F0FE002808D0182C01D0302C07D1FFF7A0FE01239B4604E000239B4601E0A5
:400D000000239B46E61E2D2E74D8464B1B78DBB29C4208D8444B1B78DBB29946434B1B78DBB2984631E0424B1B78DBB29C4208D8404B1B78DBB299463F4B1B78DBB29846ED
:400D400023E03E4B1B78DBB29C4208D83C4B1B78DBB299463B4B1B78DBB2984615E03A4B1B78DBB29C4208D8384B1B78DBB29946374B1B78DBB2984607E0364B1B78DBB21D
:400D80009946354B1B78DBB29846344B9F5D2F2F09D92A2C07D91922314B1A60052000F077FF192503E02E4B1D683F231D40BD4206D92A4B9A5D2A4B1A60052000F068FF96
:400DC000254B9C4664442378DBB2264A1360264B4A461A60254B42461A600520FFF760FFBD420AD21D4B9A5D1D4B1A60052000F04FFF02E00020FFF783FE5346012B01D1F8
:400E0000FFF7D0FE5B46012B01D1FFF799FD019800F04BFF03B03CBC90469946A246AB46F0BDC04640F3FF0F41F3FF0F42F3FF0F43F3FF0F44F3FF0F45F3FF0F46F3FF0F28
:400E400047F3FF0F48F3FF0F49F3FF0F4AF3FF0F4BF3FF0F4CF3FF0F4DF3FF0FB84900002CFF0B4028FF0B401CFF0B4020FF0B40034B1868C0231B02184000D001207047DE
:400E800000010B40034B1B68002B01DA012000E0002070470000224010B500F002FF044A1368C02109020B43136000F0FEFE10BD00010B4010B500F0F4FE08490A68084BE7
:400EC0001A408024E40122430A600A6813408022120213430B6000F0E8FE10BD00010B40FF3FFFFF70B5050000F0DBFE0400FFF7BFFF002803D0FFF7DDFF012100E000213E
:400F000008482840084A1568084B2B40184310601368012901D1FFF7BFFF200000F0C5FE70BDC0460404040010020B40FBFBFBFF10B5244B1B685B0715D5234B5B685B0781
:400F40000ED5224B596A042001401F4C62688A4362605A6A82435A629B69002B00D098470420FFF7BFFF174B1B685B0518D5164B5B685B0510D5154B596A8022D2001140B7
:400F8000114842688A434260596A114A0A405A62DB69002B00D098478020C000FFF7A2FF084B1B685B030CD5074B5B685B0304D5064B1B6A002B00D098478020C002FFF71D
:400FC00091FF10BD10020B40DC00002088010020FFFBFFFF0004000C014B18607047C0460C01204004490A68D2B202239A434000184010430860704700070440014B9864BA
:401000007047C0460000002010B5040000F049FE044A1168044B0B40A4051C43146000F044FE10BD00E400E0FFFF3FFF0422014B1A60704700E100E00422014B1A607047F0
:4010400080E100E010B50400FFF7F6FF2000FFF7D5FF0320FFF7D8FFFFF7E8FF10BDC04610B5002805DB80B2054B9C46604480B203E0034B9C46604480B200F04FF810BDFD
:401080000080FFFF024B18780F2318407047C04660000F40014B18707047C04680000F4010B50F20FFF7F6FFFFF7ECFF00F0F9FD044A117810230B43DBB2137000F0F5FD8F
:4010C00010BDC04690000F4010B500F075F88020000200F023F8054B1B78002B02D10122024B1A70FFF7DCFF10BDC046B0010020034A117880235B420B43DBB213707047F4
:4011000076000F40014B18707047C04684000F40014B1878C0B2704764000F40014B18807047C0460C100F40014B188880B270478C100F40014B18807047C0464C100F40B6
:40114000014B18807047C0466C100F4010B501E0FFF7EAFFFFF7DCFF4306F9D410BDC04610B5134B1A7807218A431A701A7804398A431A70FFF7EAFF802424022000FFF7AB
:40118000D9FF2000FFF7CAFF0020FFF7BBFFFFF7BFFF2000FFF7D4FF00F083FD054A117810230B43DBB2137000F07FFD10BDC04676000F4094000F4010B5064B1B78002B77
:4011C00004D1FFF7CDFF0122024B1A70FFF790FF10BDC046B1010020054B1A6801210A431A601B68194201D1012000E00020704704002F4010B50E4A0E4B1A60FFF7ECFFAD
:401200001D20FFF769FC0C4A116801230B431360F0231B0100E0013B002B03D0064A1268D207F8D5002B01D1012000E0002010BD0110000000002F4010002F4003B2002BDF
:401240000DDB094A1168094B0B400004034313601268074B1340984203D0012002E0022000E000207047C04614002F40FFFF00800000FF7F002809D10C4B19680C4A0A40B7
:401280001A601B68DB040CD501300DE0074B1A68802149010A431A601B680B4203D1012002E0002000E000207047C04614002F40FFEFFFFF70B5841EE4B20D2C35D88C1E8D
:4012C000E4B2052C03D9002B31D1012931D1032A31D8904231D3914231D31C4D2C68240AE4B20F26B44320432E68194C3440000204432C602C686040F0242401204220D1BB
:40130000002B00D002234901C9B29200D2B2114319430E4A1368EE2083430B4313601368034099420FD0ED380EE002200CE002200AE0022008E0022006E0022004E00220BB
:4013400002E0012000E0002070BDC04614002F40FFF0FFFF002809D10B4B1A6810218A431A601B6819420BD001300CE0064B1A6810210A431A601B68194203D1012002E01F
:40138000002000E00020704714002F40002809D10B4B1A6801218A431A601B6819420BD001300CE0064B1A6801210A431A601B68194203D1012002E0002000E00020704772
:4013C00014002F40054B18601B681B041B0C984201D0012000E000207047C04604002F4010B503785B01204A944663441F4A41680A431A6003785B01634419681C4A1140C7
:401400001C4A44682240914224D182681A6103785B0163441A6981688A421DD1C2685A6103785B0163445A69C1688A4216D1012252429A6103785B0163449A6901320FD11F
:401440000022DA6103785B016344DB69002B09D0012008E0012006E0012004E0012002E0012000E0002010BDA0002F40800080007F007F007FFF7FFF10B503781B01104A84
:40148000944663440F4A41680A431A6003781B01634419680C4A11400C4A4468224091420AD182685A6003781B0163445A6883689A4203D0012002E0012000E0002010BD3B
:4014C00020002F4008008000F7007F00F7FF7FFF70B500240AE063001B199800104B1818FFF7CAFF002805D10134E4B2072CF2D9002500E00125002D0BD00FE023010848E2
:401500006030C018FFF76CFF002806D10134E4B200E000240F2CF1D900E00125280070BD004A0000002809D10C4B19680C4A0A401A601B689B040CD501300DE0074B1A6881
:40154000802189010A431A601B680B4203D1012002E0002000E000207047C04614002F40FFDFFFFF10B580221206344B1A60344A136801218B431360C8231B0200E0013B9E
:40158000002B03D02E4A1268D207F8D4002B4AD01D20FFF7ABFA2B491D20FFF7B3FA03211D20FFF7C1FA1320FFF748FE00281AD1FFF760FE002818D1FFF7B4FF002816D174
:4015C0000023012201210C30FFF774FE002810D10130FFF7BFFE00280DD1FFF7D7FE00280BD001230AE0012308E0012306E0012304E0012302E0012300E00023002B14D1B5
:40160000FFF766FF002812D10F48FFF7DBFE00280FD10B4B1A6807218A431A601B68194209D0013008E0012006E0012004E0012002E0012000E0002010BDC04600042F4089
:4016400010002F40751600000110000010B5084B1B78002B02D1FFF785FF00E00020002804D10122024B1A70FFF7C4FD10BDC046B20100207047C04610B500F075F810BD2C
:4016800010B500F01DF810BD10B5044A1368802109060B431360FFF7EFFF10BD0000274010B5064B1B78002B04D1FFF7E9FF0122024B1A70FFF7E8FF10BDC046B401002076
:4016C000154A164B1A600023154A13601549164A1160164A16490A6007201649086016490B6006381549086015490A60154A13600421154A1160154A1360154A1360154A15
:401700001360154A1360154A1360154A13601268144B1A807047C0460B000002000027404000274001000A0048002740070000800003274004032740100327404400274037
:40174000000227400402274050002740880E2740C80E2740480F2740080F2740C80F2740880F2740B601002005490B68F0229343603A13430B60034B1A88034B1A607047E0
:4017800000060240B6010020880F274070B50500002402E000F0CAFA0134285D0028F9D170BDC046014B1878C0B2704763000F40034A117880235B420B43DBB21370704767
:4017C00073000F40014B18707047C04687000F40014B1878C0B2704767000F4010B50100014800F08FFA10BD22000F4010B5024800F092FA10BDC04642000F4010B501008A
:40180000014800F07FFA10BD02000F4010B501E0FFF7ECFFFFF7DCFF0307F9D410BDC04610B50B4C2000FFF7D9FF2000FFF7E6FF00F037FA074A117810230B43DBB2137045
:4018400000F033FAFFF7E2FF0120FFF7BBFF10BD3F420F0097000F4010B5064B1B78002B04D1FFF7DDFF0122024B1A70FFF7A0FF10BDC046B8010020014BD8647047C04665
:401880000000002010B5040000F00BFA044A13689B009B08A4071C43146000F006FA10BD00E400E00822014B1A60704700E100E00822014B1A60704780E100E010B504002B
:4018C000FFF7F6FF2000FFF7D7FF0320FFF7DAFFFFF7E8FF10BDC046114B1B68022B1AD80F494A68581C086050008218D3189B000C4A9B580C4A1268D3400C4A12681340CC
:40190000D8B20B4A1070180AC0B210701B0C8B60DBB2137002E01122064B1A707047C046BC01002054020020640200206002002041000F4071000F402122164B1A70164A2C
:40194000536801335360002B1FD1DBB2134A1370114A53685900CB189B0011495B5811490968CB40104909680B40D8B20F490870180AC0B208701B0CD360DBB20B7001236C
:4019800013600922034B1A7002E00122084B1A607047C04671000F40BC01002070000F4054020020640200206002002041000F4068020020002804D00023114A5360114AA6
:4019C00013700F4843685A00D3189A000E4BD3580E4A1268D3400E4A12681340D9B20D4A1170190AC9B211701B0CDBB21370012303601922084B1A700022084B1A607047F7
:401A0000BC01002070000F4054020020640200206002002041000F4071000F4068020020044B1868002803D00022034B1A7001207047C0466802002071000F4010B50021E0
:401A40000BE04B005B189B189B00054C1851013200E00022022AF4D901310029F9D010BD5402002000280BDB002909DB022807DC002905DC4B00591808188000014BC25034
:401A80007047C0465402002002280FD002D8012805D020E0032810D0042815D01BE0114A114B1A600122114B1A601AE0104A0E4B1A6002220D4B1A6013E00E4A0A4B1A609A
:401AC00003220A4B1A600CE00B4A074B1A600422064B1A6005E0094A034B1A600022034B1A6070477F7F7F0060020020640200203F3F3F001F1F1F000F0F0F00FFFFFF008A
:401B000010B50322144B1A702E32144B1A70093A134B1A70103A134B1A70134C012323700020FFF78BFF00232370002000F026F80020FFF7A9FF0D4B1B7D002B08D10122BD
:401B40000A4B1A750A4800F061F80A4800F090F80122094B1A6010BD95000F4045000F4025000F4035000F4071000F40BC01002039190000D91800006802002000280CD17F
:401B80000C4A0D4B1A6005220C4B1A6002320C4B1A6019320B4B1A600BE0064A064B1A600522064B1A600232054B1A601932054B1A607047404D0000740200206C02002072
:401BC0007802002070020020014B18647047C0460000002010B5040000F063F8044A1368C0218B43A4011C43146000F05EF810BD00E400E00122014B1A60704700E100E0D8
:401C00000122014B1A60704780E100E010B50400FFF7F6FF2000FFF7D7FF0320FFF7DAFFFFF7E8FF10BDC046014B58647047C0460000002010B5040000F033F8044A1168F1
:401C4000044B0B40A4031C43146000F02EF810BD00E400E0FF3FFFFF0222014B1A60704700E100E00222014B1A60704780E100E010B50400FFF7F6FF2000FFF7D5FF032068
:401C8000FFF7D8FFFFF7E8FF10BDC046000000000230800803D00138FDD1C046C046C0467047EFF3108072B6704780F31088704770B50400FFF7F5FF0500102C05D8104AAC
:401CC000136803218B43136016E0202C07D80C490B6803229343023A13430B600CE0302C07D807490B6803229343013A13430B6002E00020FEF704FF2800FFF7D6FF70BD28
:401D000030001040CBB203700B0ADBB24370090CC9B281707047C0460378427812021A4383781B041A4310007047C046044B1B681F221340082BF9D0024B18607047C046D2
:401D40000802274040022740002243088B4274D303098B425FD3030A8B4244D3030B8B4228D3030C8B420DD3FF22090212BA030C8B4202D31212090265D0030B8B4219D366
:401D800000E0090AC30B8B4201D3CB03C01A5241830B8B4201D38B03C01A5241430B8B4201D34B03C01A5241030B8B4201D30B03C01A5241C30A8B4201D3CB02C01A5241E0
:401DC000830A8B4201D38B02C01A5241430A8B4201D34B02C01A5241030A8B4201D30B02C01A5241CDD2C3098B4201D3CB01C01A524183098B4201D38B01C01A5241430934
:401E00008B4201D34B01C01A524103098B4201D30B01C01A5241C3088B4201D3CB00C01A524183088B4201D38B00C01A524143088B4201D34B00C01A5241411A00D2014642
:401E4000524110467047FFE701B5002000F006F802BDC0460029F7D076E770477047C04670B500220C4B04000D0001F00BFD002804D12000290001F021FC70BD064B0022F6
:401E80002000290001F0C6F801F018FC80231B069C466044F1E7C0460000E041F8B556465F464D464446F0B40F00FD0FAA4609037C002E005F00450F490A7F0D2943C500A9
:401EC0001803BC46400A570F640DDB0F3843D2009A4500D1AAE06646A61B002E00DCFFE06346002B39D10300134300D0D9E06B0709D00F232B40042B05D02B1DAB42AD410E
:401F00006D4249191D000B0200D482E0CA4B01349C4200D1FEE00A005646C84BED081A405007640552020543120B640D002112030B0D1B056405120B1A436308C04CF607A2
:401F400014401C43640064083443280021003CBC90469946A246AB46F8BDB74B9C42C6D080231B041843382E00DDEBE01F2E00DD1EE120239B1B9C4603006746BB409846B5
:401F800013004746F3403B436746BA40571EBA4113430200F240EB1A9D42B6411D008A1A7642911B0B0231D54A02560A002E00D1B4E0300001F070FC0300083B1F2B00DDE3
:401FC000B5E020222900D21AD1409E400A009D4032439C4200DDB1E01C1B631C1F2B00DDD5E0202114002800C91A8C40D8408D400443DA40681E854111002543002476E714
:402000004146314300D134E2310045466B0700D06FE756464807ED08C9080543864B9C4235D00A036405120B640D7FE76346E31A9B46002B00DC8BE06746002F3CD07E4FA5
:40204000BC4200D153E780273F0438435B46382B00DCF7E00243501E82410020D2B253194218AB4289411D00494289180B02CDD5714B01349C4200D13DE101206F4A6B08A1
:402080000A4028401843D507054351082FE72B000B4300D1CBE180231B030B431A03120B44E7013E002E6DD1AE1AB5429B41091A5B42C91A350075E70700174300D116E76D
:4020C00001235B429C46E3445B46002B00D0E0E0AA18AA429B4109185B4259181500C5E7002E75D1661C7605760D012E00DCF3E0AE1AB0464545BF410E1A7F42F61B3702F3
:4021000000D48FE0551BAA42B641411A76428E1B9A464BE756460022002507E7280001F0BBFB20300300083B1F2B00DC49E72A002838824000259C4200DC4DE73F49E41ACA
:402140001140D4E60243501E8241D3B2002222E7002B00D0F3E0631C9C465B055B0D012B00DC9FE0344B9C4500D1C3E0AA180918AA42804140424118CD075208154349089A
:402180006446B4E62C4B9C4200D0ECE6AFE611001F3CE1400C00202B00D17FE04021CB1A9A4015436A1E95410021254300242DE733000700203BDF403B00202E70D04027C0
:4021C000BE1BB0400243501E824113430022E2E6002C4FD0184CA44500D1ABE08024240476422143382E00DDDFE01F2E00DD43E12027BC1BA1460C004F46BC40A0462C0080
:402200004746F4403C434F46BD406F1EBD41F1402C43151BAA429241411A5242891A64469A46BFE641464546314300D0BEE6002600240025F2E6C046FF070000FFFF7FFF28
:40224000FFFF0F801F2B59DC2027FF1ABC46070063469F405B46B9461700DF40B8464F4643461F4363469A40531E9A415B463A43D840F4E60C002C435CD0F643002E55D1FA
:40228000551BAA42A441411A6442091B9A46644688E6964FBC4200D0D8E628E6002280E700208FE70B002B43002C00D0C2E0002B00D101E10300134300D118E6AB18AB4255
:4022C000B6410918764271180A0200D409E1884A1D00114064460AE6002C5BD10E002E4300D08AE00100114300D1C2E0010015009A46FCE56446002100258FE620235B42EC
:402300009C46DC4463460700DF405B46BC46202B00D1ACE040235F46DB1B98400243501E8241634613431A00002098E66F4CA44500D057E70100150064469A46D7E5002C44
:4023400039D10C002C436ED0DB43002B1AD0674CA44568D0382B00DDA4E01F2B00DDAEE020240F00E41AA740B9462F00DF40B846A3464F46444627435C46A5406C1EA5412E
:40238000D9403D43AD1895429B4109185B42591864466BE60C002C4315D1010011437BD0010015009A46514CA1E50D43691E8D410021ECB22DE74D4CA44534D080242404FE
:4023C0005B422143C6E7040014434ED0ED084C072C438025C9082D03294208D0C6082E4205D1D208410711430C009A463100620FC900E50011433D4C79E50600164300D1E5
:4024000075E5AE1AB0464545BF410E1A7F42F61B370200D4F4E5551BAA42B641411A7642891B9A4663E50100150064465FE5002200257BE5002B3BD00300134315D0ED08D4
:402440004B072B438025C9082D03294207D0C4082C4204D141070B002100D2081343C9005A0F1143DD00214C41E5204C3FE5002054E700260025D1E534000F00203CE74059
:402480003C00202E2BD04027BE1BB1400D43691E8D4100212C43BCE6802100260903134C0025BBE50D43691E8D410021EDB269E7010015000D4C1AE50100150017E51C0047
:4024C0000F00203CE7403C00202B0CD04027FB1A99400D43691E8D410021254352E70021D4E71D0092E50021F3E7C046FF070000FFFF7FFFF0B556464D4644465F46F0B491
:402500001D000E034C00CB0F87B0070092468146360B640D98466AD06D4B9C4235D08022430F12041343F6001E43C3009946694B00279C460023644402932B0368001B0BD3
:40254000ED0F51469B46400D009500D178E0604B98426CD05B46DA004B0F802109040B4313439B465346D9005A4B9C46002360444246201A6A40924601901F430F2F00D905
:40258000B0E05548BF00C0598746374300D088E0002399460233082700260293CDE74346B34649460093029B009A9246022B00D0BFE1002153460122002689461A40444BB7
:4025C000002136030C0D2405360B2643434C1B0526401E437600D207760816434846310007B03CBC90469946A246AB46F0BD330003434FD0002E00D1BCE1300001F04CF9B6
:4026000003000B3B1C2B00DDADE11D220100D31A08393A008F408E40DA40B9461643304B00279C46002360444442029385E753465A4613432CD1002300219B46023397E7B2
:402640000B4320D05B46002B00D19EE1584601F023F903000B3B1C2B00DD8FE102005946083A91408B461D21CB1A5146D9400B0059460B4351469B469140194B9C466044F5
:402680004042002374E7002300219B4601336FE703236DE70023994601330427002602934BE703230C27029347E70122D51A382D00DCB0E153461A40002100230026894677
:4026C0007EE700238026994600223603004B77E7FF07000001FCFFFF204F0000FFFF0F80F30300005E4500D972E100D16DE1019B4D46013B01930023340002935B461E023C
:402700000B0E1E430B020393330C994633041B0C494620000093FFF717FB009B370043430600494620009846FFF794FB2C0C09040C43A04509D9E419731EA74200D95CE15E
:40274000A04500D859E1023EE4194346E41A49462000FFF7F9FA0300009A80465343494620009B46FFF776FB2A040904120C0A4393450DD94346D219013B974200D93AE135
:40278000934500D837E102235B429C46D219E0445B46D21A4346360433439B460399180C0B0C1D00059309045B46090C0C001B041B0C4443049159436B4368431B190D0CF8
:4027C000EB189C4203D980246402A44660441C0C09041B04090C20185D18824200D2DEE000D1D7E0161A029B9C465D1BAC459B415B42F61AB74200D106E149463000FFF78B
:40280000A3FA009B04004343494630009846FFF721FB2E0C09040E43B04509D9F619631EB74200D9F3E0B04500D8F0E0023CF6194346F31A494618000293FFF785FA009BB7
:4028400006004343494602989846FFF703FB2D0409042D0C0D43A84509D9ED19731EAF4200D9D6E0A84500D8D3E0023EED192404210043463143049E059A3000ED1A0B0499
:402880000C0C1B0C58436643534354439A19030C9B189E4203D980225202944664441A0C00041B04000C14191B18A54250D34DD001231943964A019B94466344002B00DC5F
:4028C000F3E64A0709D00F220A40042A05D00A1D8A42894149428B4411005A46D20108D55A468C4B1A4093468022D2009446019B6344894A934200DD5BE65A46C908500716
:4029000008435602514601225B058146360B5B0D0A4055E680231B031E4211D05A461A420ED15E461E433603360B2A0089467B4B46E6032B00D1E1E0012BBBD11A40BBE62B
:402940001E433603360B4246744B39E6002BB1D07D194A1EAF4252D91100A542A8D1039A9A42A5D1A6E703003E00283B9E400023994654E600F090FF203041E60300524614
:40298000283B9A400021934677E6504600F084FF20305EE6029B0026AB4200D323E7039E0299B44661448846B045B6415B467642F619B218013B0291974213D290424FD80C
:4029C00000D18EE0161A9B460DE7894500D28EE674084B46F60735005B081D434B46DB0702938BE69742EDD10399029CA142E5D93E1A9B46F7E69846CAE61E00A5E6AC4257
:402A00003ED874D0110053E70121494252E71C000EE71E002BE71F2D3CDC20230A0058465B1B9840EA4099400243481E81415E461143EE404B0709D00F230B40042B05D0EB
:402A40000B00191D99429B415B42F61833023CD55346012200211A40002601238946AFE502235B429C46039CE344A446029B63449846A045B6417642F6190293B218B1E67A
:402A800003988A1E41008142B6417642F619AD19039161E71F225242D31A5A46DA401300202D29D040225846551BA8400143481E814107200B4318400026002809D00F22B1
:402AC00000261A401900042ABBD10B0070077602360BDB0803439946012253461A4000236EE502998D42BBD89B4600267BE603989842C5D3110032E70020D7E780265B46F3
:402B000036031E433603360B009A8946034B57E5FF030000FFFFFFFEFE070000FF070000F0B55F4656464D464446F0B40D0399464E002B0B87B00700924680469B46760D2C
:402B4000CC0F002E69D06D4B9E4235D05B468022DD001204430F13432B439B46C3009846674B00279C460023664401934A4615035000D20F53462D0B400D914600D176E097
:402B80005E4A90426CD080225B0F120413435C4AED0094461D4353460022DB00604449463618701C6140029017430F2F00D9AFE05448BF00C759BF465B461F4300D088E089
:402BC00000239B469846023308270193CEE74946022A6AD0032A00D109E2012A00D0BBE111400022002300259046CCB200212D030A0D12052D0B1543434A1B0515401D4351
:402C00006D00E4076D0825434046290007B03CBC90469946A246AB46F0BD034352D05B46002B00D18AE1584600F036FE03000B3B1C2B00DD7BE11D22D31A3A0001005D46C1
:402C4000DA4008398D4013008F402B439B46B8462E4B00279C46002360444642019385E752462A432CD100250023022297E752462A4321D0002D00D154E1280000F00CFEF5
:402C800003000B3B1C2B00DD46E11D21CB1A51460200D9405346083A954093400D431B4A944660444042002279E7012400220C40124B0025904699E70025002301226EE7C6
:402CC00003226CE700239B4698460133042701934CE703230C27019348E700238025984600242D03054B81E75D464346019A6FE75D4643462100019A6AE7C046FF07000024
:402D000001FCFFFF604F0000FFFF0F80F30300004246120C91461A0C9446424617044A461B041B0C5A43604690464A4642431000039262461C003F0C7A437C4342440192F9
:402D4000220C9246019A5244904506D98246802040028046C24450460390100C049048462404240C1204121905922A0C2D042D0C68432C00824648467C4350438146200C49
:402D80008046574357444744BA4503D9802040028046C144380C3F04B84648442404240C01900498A044404404905846000C814658460404200C8246070048465F434C469F
:402DC0004343604660436446834650464443380C8446E4186444A34203D980235B029C46E34448463F04230C3F0C2404E419574668436F4384464D46504655434243380C3A
:402E0000814662444A445B44944503D9802040028446654403983F04834604983F0C8446E344C345804140428246100484460198674484466744A344BC46A345A441994630
:402E4000D44464428742BF41D4458041E144A04699459B417F424042C8440743120CBA18A045A4415F423B0064422343D71843467D19DB0D6D021D435B465A02059B1A4332
:402E8000531E9A415B46DB0D1A4343465B021343EA0107D501225C0813402343EA07029E13436D08574AB218002A4BDD580709D00F201840042805D0181D98429B415B423C
:402EC000ED180300E80104D54F4A15408022D200B2184E48824200DDE7E60124DB08680718436D02530580462D0B5B0D0C407DE6802259461203114208D0154206D1154323
:402F00002D0398462D0B4C46414B6FE65D4615432D032D0B3E4B69E603005546283B9D400023BCE6504600F0B7FC2030A8E60300283B9F400023BB46984689E600F0ACFC95
:402F4000203073E60124A61A382E07DD00220C4000230025904649E6029EA3E71F2E20DC20222C001800921BF040944093400443581E83411C43F540630709D00F23234054
:402F8000042B05D023001C1D9C4292415242AD182B021FD5012400220C4001230025904624E61F202C004042821AD440202E1CD04022961BB5402B43581E834107202343B6
:402FC00018400025002809D00F2200251A401C00042AD8D1230068076D022D0B0124DB08034398460C40002300E60025E3E780220124120315432D0398462D0B0C40044BF2
:40300000F4E5C046FF030000FFFFFFFEFE070000FF070000F0B557464E464546E0B40E001100F20F9246C500420F180337037400400A4E0F7F0A3043CF4E17435A00640DF8
:40304000520DDB0FC900B24200D1E5E001267340A61AB446534500D1AFE0002E00DC0DE1002A3AD103000B4300D0E4E06B0709D00F232B40042B05D02B1DAB42AD416D4258
:403080007F191D003B0200D488E0BB4B01349C4200D110E13A00B94B51461A4001235007ED08520264050543120B640D0B400021280012030D0D120B64052D051543620898
:4030C000AF4CDB072C401443640064081C4321001CBC90469946A246F0BDA74B9C42C5D080231B0418436346382B00DDFDE01F2B00DD30E1624620239B1A02009A40664616
:4031000090460A009940F24046464B1E99413243114363460200DA40691A8D429B410D00BA1A5B42D71A3B0235D57A02530A98464346002B00D1C4E0404600F0ADFB030062
:40314000083B1F2B00DDC5E020222900D21A4746D1409F400A009D403A439C4200DDC0E01C1B631C1F2B00DDE4E0202114002800C91AD8408C408D400443DA40681E85414E
:4031800017002543002471E7424663461A4300D14CE2674645466B0700D069E7012351467807ED08FA080B40054373498C4238D012036405120B640D79E7002E00DC9AE077
:4031C000002A47D06C4A944200D14FE78022120410436246382A00DC08E10143481E81410022C9B24919D219A942BF410D007F42BF183A0200D442E15F4A0134944200D183
:403200004EE101205D4A69083A4028400843D507054357089A4629E706000E4300D017E714E72900114300D1F9E1802109030A431203120B3BE701235B429846C4446346A0
:40324000002B72D1691A8D429B413F1A5B42FF1A0D0068E702000A4300D107E7012252429046C4446246002A00D0E6E06918A942B6413F187642F7190D00BAE7002E00D00E
:4032800080E0621C5205520D012A00DCF9E06A1A91464D45B6413A1A7642921B9046120200D499E04D1BA9428941C71B49427A1A90469A463CE75246012300251340002279
:4032C000F5E6280000F0E8FA20300300083B1F2B00DC39E72A002838824000259C4200DC3EE7264FE41A1740C0E60143481E81410022C9B210E7002E00D0F1E0621C944636
:403300005205520D012A00DCA0E01B4A944500D1C5E06918A94292413F185242D2194908D5070D4357086446A0E6134B9C4200D0D9E69BE611001F3CE1400C00202B00D17A
:4033400080E04021CB1A9A4015436A1E95410027254300241FE763460200203BDA406346202B71D0402366469B1B98400143481E814111430022CFE6FF070000FFFF7FFF53
:40338000FFFF0F80002C48D0CA4CA24200D1A2E07442A1468024240427434C46382C00DDDBE01F2C00DD44E14E462024A41B3E00A640A246B0464C462E00E640B44646463C
:4033C000644626435446A5406C1EA54134002C434D46EF400D1B28E04A4643464D461A4300D0A5E6002300240025DEE61F2A5ADC66462022921B060096409146B046624637
:403400000E00D640424616434A4691404A1E9141020060463143C240E4E63C002C435AD0F443A146002C52D14D1BA9428941C71B49427F1A14009A4675E69E4A944200D0C2
:40344000C7E613E600227FE700208FE7002C00D0C8E03B002B4300D10FE103000B4300D104E66918A9429B413F185B42DF193B0200D41AE1904B0D001F406446F6E59A4682
:4034800089E63A002A43002C5CD1002A75D102000A4300D1CAE007000D009A46E6E564460022002581E662460600203AD6406246B046202A00D1B7E040226646921B904053
:4034C00001434246481E8141114300228AE6794CA24200D061E707000D0014009A46C5E5002C41D13C002C4378D0F443A146002C20D0704CA24271D04C46382C00DDB2E0CE
:403500001F2C00DDBCE02026341BA2463C005646B4404E46A0462C00F440A446444666463443A4465446A54064466E1EB54125434C46E7406D188D4289413F184942CF196F
:40354000140056E6002A2FD102000A4300D184E007000D009A46574C88E53D436F1EBD41ECB200270D1B60E7524CA24236D0744280263604A1463743BEE702000A4300D1C6
:4035800074E56A1A90464545B6413A1A7642921B9446120200D4F7E54D1BA9428941C71B49427F1A9A4661E502000A433AD0ED087C072C438025FA082D032A4208D0C7080D
:4035C0002F4205D145072C003A009A46C9080C43670FD200E5001743364C47E507000D00140043E53A002A4343D002000A4319D0ED087C072C438025FA082D032A4207D05A
:40360000C6082E4204D147073C003200C9080C43D700620FE50017439A46264C26E50022002544E5234C21E5002049E700230025BBE54C463E00203CE6404C46B446202C70
:4036400031D040244E46A61BB7403D436C1EA54164462C4300270D1BE7E6802200231203144C0025A1E53D436F1EBD410027EDB260E707000D000F4CF8E407000D00F5E43F
:403680004E463C00203EF440A0464C46202C0ED040244E46A41BA7403D436F1EBD4144460027254346E70027CFE70D0073E50027F2E7C046FF070000FFFF7FFF0B0330B55A
:4036C000134D1A0B4B005B0DC90F0024AB4211DD104CA34210DC8024640322430E4CE41A1F2C0CDD0D48C31ADA4013005C42002900D11C00200030BD094BCC18FAE7E04039
:40370000084CA44663449A4013000343EEE7C046FE0300001D0400003304000013040000FFFFFF7FEDFBFFFF70B5002830D0C317C4185C40C50F200000F0AEF8174B184AD7
:403740001B1AD21A1F2A18DD164AD21A9440002224035B05240B5B0D0021100024030A0D1205240B1443104A1B0514401C436400ED0764082C43210070BD210091400A00D4
:403780000B21081AC4405B052403240B5B0DE3E70025002300240022DEE7C0461E0400003304000013040000FFFF0F8070B5051E28D000F071F8154B154A1B1AD21A1F2AB7
:4037C00016DD2C00134A0025D21A94405A052403240B520D002124030B0D240B1B0523430D4C1205234013435B002800590870BD0B212C00081AC440954024035A05240BFD
:40380000520DE7E700220024E4E7C0461E0400003304000013040000FFFF0F808446101C62468C46191C634600E0C0461FB500F0F5F8002801D40021C8421FBD10B500F0A9
:4038400049F84042013010BD10B500F0E7F8002801DB002010BD012010BDC04610B500F0DDF8002801DD002010BD012010BDC04610B500F06FF8002801DC002010BD01206E
:4038800010BDC04610B500F065F8002801DA002010BD012010BDC0461C2101231B04984201D3000C10391B0A984201D3000A08391B09984201D30009043902A2105C40181E
:4038C0007047C04604030202010101010000000000000000F0B55F4656464D464446F0B41F035C00DB0F9A46194B0E034D00C90F8046360B6D0D8B4691463F0B640D9D42B0
:4039000019D0134B9C421BD00123A54206D018003CBC90469946A246AB46F0BDBE42F6D1C845F4D1D34510D0002DF0D1304303005A1E9341EBE7310001230143E7D1E0E720
:403940003A430123002AE2D1DEE70023DFE7C046FF070000F0B55F46444656464D46F0B41F033C0B2C4F0E034D00A3465C008446360B6D0DC90F9046640DDB0FBD422BD059
:40398000254FBC422ED0002D0ED130430700814678427841002C17D15F463A4314D14B460020002B0AD006E0002C02D15846024301D099421AD00123484218433CBC9046D1
:4039C0009946A246AB46F0BD0028F2D058425841012240421043F1E737000743D0D002204042EBE75F461743CDD0F8E7A542E2DC05DB5E45DFD808D000205E45DED24842AF
:403A00004841012340421843D8E7C445D3D80020C445F4D3D2E7C046FF070000F0B55F464D4644465646F0B41C03240BA4462F4C0F034D005E00C90F80463F0B6D0D8B468A
:403A40009146760DDB0FA54220D0284CA64222D0002D12D1384344424441002E20D0002C0DD05C42634101245B421C4320003CBC90469946A246AB46F0BD002E17D05B45B5
:403A800019D05B465C4201231C43EFE7390002240143EBD1D9E7614602241143E6D1D7E761460A43DBD100240028DFD0E9E761460A43E4D1E5E7B54203DD01225C42144301
:403AC000D4E7B542CDDB6745DBD809D000246745CCD259464C426141012449420C43C5E7C845CED80024C845F3D3BFE7FF070000014B18687047C046440100200E4B70B58A
:403B000000251E000D4CE41AA410A54204D0AB00F35898470135F8E701F05EFA084B00251E00084CE41AA410A54204D0AB00F35898470135F8E770BDE44F0000E44F000075
:403B4000E44F0000EC4F0000002310B59A4203D0CC5CC4540133F9E710BD03008218934202D019700133FAE7704700000EB410B59DB002A9029008610B4882248860486182
:403B8000012040421FABC881084804CBA400006801938C8100F06EF80023029A13701DB010BC08BC03B01847FFFFFF7F44010020F0B58E6885B007000C00039201939E42AF
:403BC00043D890238A89DB001A423ED003250969236801985B1A029363695D43EB0F5D19029B6D1001331B18AB4200D91D00530510D52900380000F037FB061E14D0029A33
:403C00002169FFF7A1FFA289194B134080221343A38112E02A00380000F086FB061E0CD12169380000F0D4FA0C23402201203B60A38940421343A38117E0029B2661F61882
:403C400026606561019EED1AA560019BB34200D21E0032000399206800F0A5FA0020A3689B1BA36023689E19266005B0F0BDC0467FFBFFFFF0B59FB0029005938B890F001A
:403C800016001B0610D50B69002B0DD1402100F0EBFA38603861002804D10C23029A01381360D8E040237B61002306AD6B6120336B761033AB7634002378002B03D1A31BD3
:403CC000049312D003E0252BF9D00134F4E7A31B320039000298FFF76BFF431C00D1B4E06A69049B944663446B612378002B00D1ABE00122002352426A6002A95432521838
:403D000001342B60EB60AB601370AB65534E21780522300000F03CFA002807D00123801B83402A68013413432B60EFE72B68DA0604D55322202102A8121811701A0704D5D3
:403D400053222B2102A81218117022782A2A03D0099B00200A210EE0059A111D12680591002A01DB099204E05242EA60022213432B6001340BE02278303A092A04D84B4389
:403D800001349B180120F6E7002800D0099323782E2B1ED163782A2B0AD1059B02341A1D1B680592002B01DA01235B42079310E000230A201A0001346B6021783039092988
:403DC00004D84243013452180123F6E7002B00D00792234E21780322300000F0D9F9002806D04023801B83402A68013413432B60217806221B48661C297600F0C9F9002887
:403E000012D0194B002B06D10722059B073393430833059314E005AB00933A00134B2900029800E000BF07E005AB00933A000F4B2900029800F08AF80390039B013304D031
:403E40006B69039A9B186B6135E7BB890B985B0601D5012040421FB0F0BDC046A24F0000A84F0000AC4F000000000000B13B0000F7B5170001938A680B6900900C009342F6
:403E800000DA130022003B6043321278002A01D001333B6023689B0602D53B6802333B60062523681D401ED0230043331B785A1E9341226892061CD53020E1184331087058
:403EC00021005A1C45310978A2184332023311700FE022000123193201990098089EB047431C0ED00135E3683A689B1A9D42F0DBDAE72200019943320098089DA847431CC4
:403F000002D10120404220E006232068E1683A6803400025042B03D18D1AEB43DB171D40A3682269934201DD9B1AED180027BD420AD0220001231A3201990098089EB0477C
:403F4000431CDED00137F2E70020FEBDF0B58BB006920A0043320793059004920A7E0C00109B6E2A00D1ABE011D8632A22D009D8002A00D1B5E0582A00D0C5E045310A7099
:403F8000814A4FE0642A1DD0692A1BD0BCE0732A00D1AAE009D86F2A29D0702A00D0B3E0202209680A43226037E0752A1FD0782A33D0A9E00E001A684236111D196013688B
:403FC0003370A4E021681A68080606D4490604D5111D19600023D55E02E0111D19601568002D3BDA2D23049A6D42137036E021681A68080606D4490604D51568111D1960C5
:40400000ADB202E0111D196015685F4B227E039308276F2A1DD00A271BE022007821453211705A4A19680392081D226818600D68100602D4500600D5ADB2D30702D52023E7
:404040001A4322601027002D03D1202322689A4322602300002243331A7002E00A274A4B03936368A360002B09DB0422216891432160002D05D1049E002B11D07BE0002D60
:4040800079D0049E28003900FDF7E4FE039B013E5B5C280033703900FDF756FE051EF1D1082F09D12368DB0706D563682269934202DC3023013E3370049B9B1B23612BE09E
:4040C00009681A68080607D4490605D5111D19601368A28A1A8004E0111D1960136862691A600023049E236116E01A68111D1960166800216268300000F04AF8002801D05C
:40410000801B6060636803E0260042363270012323610023049A1370079B09AA00932100069B0598FFF7A4FE431C02D10120404227E02369320006990598079DA847431CA3
:40414000F4D0236800259B070FD4099BE068984217DA180015E022000123193206990598079EB047431CE1D00135E368099A9B1A9D42F0DBE9E72600039B42361B78337044
:404180008EE70BB0F0BDC046B34F0000C44F0000C9B28218904204D003788B4202D00130F8E70020704710B5884202D98B18984201D3002305E09B1A013A08D3995C8154F3
:4041C000FAE7934203D0CC5CC4540133F9E710BD70B50500002944D00C1F2368002B00DAE418280000F0D8F81E4A13681100002B02D16360146031E0A3420DD92268A018C8
:40420000834203D118685B688218226063600C6024E0A24203D813005A68002AF9D11E689819A0420BD12168711858181960824214D110685268411819605A600EE0A042A4
:4042400002D90C232B6009E021686018824203D1106852684118216062605C60280000F09CF870BDD8010020032370B5CD1C9D43083506000C2D01D20C2501E0002D01DB4D
:40428000A94202D90C23336048E0300000F084F8234B1C681A002100002913D00B685B1B0DD40B2B02D90B60CC181EE08C4202D1636813601AE04B6863600C0016E00C00F4
:4042C0004968E9E7174C2368002B03D1300000F051F820602900300000F04CF8431C18D00323C41C9C43A0420DD12560300000F054F8200007220B30231D9043C31A0ED0AB
:404300005A42E2500BE0211A300000F033F8431CEBD10C233000336000F03FF8002070BDD8010020D4010020F8B506000C001500002904D11100FFF797FF040018E0002A3A
:4043400003D1FFF745FF2C0012E000F027F885420ED929003000FFF787FF071E07D021002A00FFF7F1FB21003000FFF731FF3C002000F8BD002370B5064C050008002360A4
:40438000FCF768FA431C03D12368002B00D02B6070BDC0467C020020704770470B1F1A68101F002A04DA891804390B68D0180438704700000000000043414E204D5347201D
:4043C000000000004D41494C424F5820302042797465203420257800207C7C7C20202020204279746520494420256C78200D0A004D41494C424F5820312042797465203462
:404400002025780044697020416464723A202578200D0A0000300F40000800400F400008051815182514350C800F8103846F870D01010501060109010A02110117021F01ED
:404440002F0230013101340237023F41540F580459045B045C015D105F018209860988A48A538C0C9A899C6D9E12A249A402A501A610A902AE0CB102B238B4C0B501B607A7
:40448000B808BA20C032C5C0C6E0C70BC81AC9FFCAFFCBFFD604D804D904DA04DB04DC29DD09DF01E2C0E440E5010128049405010E0A15401640170819021A041C101E0A39
:4044C0001F4021012240244026102A802F14300A31803915450847104C404F02571459805A295C405E206480680269156D406F817602770885408C80C0F6C2C0C4B0CA68A8
:40450000CC0BCE07D060D63FD880E2100001028003020402066008A00A5F1303160818041A501C571E081F02225723012F0130C0320F3301343037023A223F44405649FF3B
:404540004AFF4BFF4F015018580459045A045B045C095D035F016040624064406540668068806A806C806E808102853C890C8B308E018F01951C980499289A029B149F028B
:40458000A114A206A328A930AB0CAC07B001B101B204B33CB502B602BE45BF10C056C9FFCAFFCBFFCD83CE03CF01D018D280D804D904DA04DB04DC10DD33DF01E040E24017
:4045C000E440E540E680E880EA80EC80EE8000C0041405010601070108200D080E0A1282164019801A601C041D092104220223082540272029022B082D402F8030A032043B
:4046000037413840392A3E0248084B404C084F40588259285D405E20650466017280734079407A107B118108832085048601880290109284938094049629972899029A0293
:404640009B019D819EC09F10A205A395A408A5C8A928AD01C071C2E2C419CA95CC9ECE8FD23CD63FD8C0E604040105FD070209940B601573199E1B60213023C92603270F11
:4046800029CF2B3031FF340236013E403F01405645EC4702481349FF4AFF4BFF4D834E034F015018540F580459045A045B045C015D135F05604062406440654066806880CA
:4046C0006A806C806E8080808120821F84CC85018621870288CC89048A128BD393209477958098089AF19B08A163A31CA4BBA501A644AD02B110B2F0B30CB40FB5E0B70799
:40470000B920C035C612C750C82CC9FFCAFFCBFFCDA0D804D904DA04DC91DD09DF01E040E140E2C0E4C0E6C0000405160C040E0410101304150818041A021D141F082202C0
:4047400025802754282029022B182F62302031103214371539283C103F0A411042044704480849094B404F8050085640576258105A425B08622478049010910892C493C0E9
:4047800095229608972899029B099C209E409F50A305A4E8A580A680A708A904AB40B080B520C074C260C424CAD7CCE6CEE6D040D21CD60FD806DE020096026804A3065C63
:4047C00008C50A3A0E010F021102180E1AF024FE2601287F2F03330236FF37013E403F044023410649FF4AFF4BFF4DA04F0150185280580459045A045B045C105D115F0114
:404800006040628064406540668068406A806C406D206E80801082018521861C88018A108E209202940595079608981D990C9D219F10A405A50AA608A81CA90CB003B110C1
:40484000B30EB43CB501B720B9A8BF10C036C102C542C6C3C70EC81FC9FFCAFFCBFFCDAFCE07CF01D018D401D604D804D904DA04DB04DC11DD31DF01E040E280E440E54096
:40488000E680E840EA80EC40ED20EE8000040102020203080480051608200A200B800C100E0410141424150818841B121F4020082101228423082508272228202B082F02BB
:4048C00030843110320437023B043E8040044108472848444B044F205080522459095A80608076808080910892A4950296089704991F9C049E04A202A308A4C0A6A0A71070
:40490000AF14C0FFC24EC466CA16CC8ECE12D066D224D60BD801030805106B606C206E0287208F40C0C0DAC0DC60E240634080209340A420A601A910AB08AF40D840E28090
:40494000ECA0EE400A080F40A601C2608201A601AE04AF40E680EC50004001040520074080408920C00FE204B104B740EA0C100E1101120A1301000008000F403D300F4002
:4049800031310F4061320F404D330F4060340F4048350F406A360F4045370F400B400F400C410F4004420F4006430F4008450F4003460F4004600F40030405060708090AAE
:4049C0000B0C0E0F101112131415161718191B1C1D1E1F2021222325262728292A2B2E2F3031323334350000EEDBC9B9AA9B8E82766B60564D443B332C241D17100A040023
:404A00000000000008008800000000000100000008008800000000000200000008008800000000000300000008008800000000000400000008008800000000000500000097
:404A4000080088000000000006000000080088000000000007000000080088000000000000000000A8008000FFFFFFFF0000000001000000A8008000FFFFFFFF0000000030
:404A800002000000000000000000000000000000030000000000000000000000000000000400000000000000000000000000000005000000000000000000000000000000E8
:404AC0000600000000000000000000000000000007000000000000000000000000000000080000000000000000000000000000000900000000000000000000000000000098
:404B00000A0000000000000000000000000000000B0000000000000000000000000000000C0000000000000000000000000000000D00000000000000000000000000000047
:404B40000E0000000000000000000000000000000F000000000000000000000000000000FFFF0000FFCC0000FF990000FF330000FF000000B3006600990099006600B30022
:404B80003300CC001919B3000033990000409900006699000099990000CC990000E6660000FF000033FF000066FF000080FF000099FF0000B2FF0000CCFF0000E5FF00007D
:404BC00000000000000055000000AA000000FF0055000000550055005500AA005500FF00AA000000AA005500AA00AA00AA00FF00FF000000FF005500FF00AA00FF00FF00C5
:404C000000550000005555000055AA000055FF0055550000555555005555AA005555FF00AA550000AA555500AA55AA00AA55FF00FF550000FF555500FF55AA00FF55FF0034
:404C400000AA000000AA550000AAAA0000AAFF0055AA000055AA550055AAAA0055AAFF00AAAA0000AAAA5500AAAAAA00AAAAFF00FFAA0000FFAA5500FFAAAA00FFAAFF00A4
:404C800000FF000000FF550000FFAA0000FFFF0055FF000055FF550055FFAA0055FFFF00AAFF0000AAFF5500AAFFAA00AAFFFF00FFFF0000FFFF5500FFFFAA00FFFFFF0014
:404CC000FF800000FF008000FF00FF008000FF000080FF0000FF8000FF000000202020000000200000000010000000000000000000000000000000000000000000000000AC
:404D00000000FF000010F0000020E0000030D0000040C0000050B0000060A00000709000008080000090700000A0600000B0500000C0400000D0300000E0200000FF000075
:404D4000000000000000005F00000007000700147F147F14242A7F2A12231308646236495522500005030000001C2241000041221C00082A1C2A0808083E080800503000D5
:404D8000000808080808006060000020100804023E5149453E00427F400042615149462141454B311814127F1027454545393C4A4949300171090503364949493606494925
:404DC000291E003636000000563600000008142241141414141441221408000201510906324979413E7E1111117E7F494949363E414141227F4141221C7F494949417F09F8
:404E00000901013E414151327F0808087F00417F41002040413F017F081422417F404040407F0204027F7F0408107F3E4141413E7F090909063E4151215E7F09192946460B
:404E40004949493101017F01013F4040403F1F2040201F7F2018207F63140814630304780403615149454300007F4141020408102041417F000004020102044040404040C5
:404E8000000102040020545454787F484444383844444420384444487F3854545418087E090102081454543C7F0804047800447D40002040443D00007F10284400417F4063
:404EC000007C041804787C0804047838444444387C14141408081414187C7C080404084854545420043F4440203C4040207C1C2040201C3C4030403C44281028440C50502F
:404F0000503C4464544C44000836410000007F0000004136080008082A1C08081C2A0808E4260000B2250000B8260000A8250000B8260000C2260000B8260000A825000023
:404F4000B2250000B2250000C2260000A82500009E2500009E2500009E25000014290000102D0000D02B0000D02B0000CE2B0000E82C0000E82C0000DA2C0000CE2B0000F5
:404F8000E82C0000DA2C0000E82C0000CE2B0000F02C0000F02C0000F02C0000F02E00004300232D302B2000686C4C00656667454647003031323334353637383941424353
:404FC000444546003031323334353637383961626364656600000000F8B5C046F8BC08BC9E46704735030000CD080000F8B5C046F8BC08BC9E4670470D0300001050000077
:40500000C00000208800000038010000000000000000000080020020010000000000204E409C000028000000005A6202F00000000404040000000000000000000000000000
:405040000000000000000000000000000000000000000000A04F00000000000000000000000000000000000000000000000000000000000000000000000000000000000041
:405080000000000000000000000000000000000000000000E400002000000000000000000000000000000000000000000000000000000000000000000000000000000000EC
:4050C00000000000000000000000000000000000000000000000000000000000000000000000000000000000000000000000000000000000000000000000000000000000B0
:40510000000000000000000000000000000000000000000000000000000000000000000000000000000000000000000000000000000000000000000000000000000000006F
:40514000000000000000000000000000000000000000000000000000000000000000000000000000000000000000000000000000000000000000000000000000000000002F
:4051800000000000000000000000000000000000000000000000000000000000000000000000000000000000000000000000000000000000000000000000000000000000EF
:020000040003F7
:0200000490303A
:020000005FD2CD
:0200000490402A
:4000000000000000000000000000000000000000000000000000000000000000000000000000000000000000000000000000000000000000000000000000000000000000C0
:400040000000000000000000000000000000000000000000000000000000000000000000000000000000000000000000000000000000000000000000000000000000000080
:0200000490501A
:0C0000000002101111A00001102A717202
:0200000490600A
:0100000001FE
:00000001FF