:400000000080002011000000310E0000310E000010B500F02DFFC04670B51222284B1A60302001F03DF9274C8025ED0525600022254B1A60254B264A1A6080225200254996
:400040000A60254919602548254908602549196025490A60254A1A60C0218900244A1160244A1A60E0210901234A1160234A1A60E0214901224A1160224A1A608222120679
:40008000214B1A60214A224B1A604222214B1A607E32214B1A607F3A204B1A600232204B1A6001321F4B1A6001321F4B1A601F49082001F01DF8082001F004F8256070BDE6
:4000C000300010400C020B40000301400000014040FF00800803014042FF0080007F1A0600050140C0FF00800403014041FF00800C03014043FF00801003014044FF008081
:400100001403014045FF008008010B404902060000010B405801014054010140500101402C01014028010140140101401D15000010B572B60122494B1A7000240FE04848BF
:400140006200131959000B00411889881A5AC31858880004104300F041FE0134E4B2012CEDD93F490C313F48603000F01DFEE02212013D4B1A8001213C4B19703C4A3D4B52
:400180001A60C02292043C4B1A60EE2212023B4B1A6099223A4B1A60913A3A4B1A6099231B04394A1360394A136080208005384A1060384A1360384A1360384A1360384A65
:4001C0001360384A384B1A600F20384B1860384B1860384C23783C22934314221343DBB22370354A147816232343DBB213700223324A1360324C334A14604024324A146058
:40020000C0246403314A14608024314A14600D3C304A1460304C314A1460314A1160D8242401304A1460304A10603048304A1060902080002F4A10602F4A136031202F4A39
:4002400010602F4A13602F4B196036222E4B1A60FFF7E2FE00F0D8FD10BDC0461C700F404C3A00004C3F000000600F4002600F40AA000008000002400001024000030240AE
:40028000000602400007024000500F4010500F4018500F4020500F4040500F4050500F4070500F400404048458340F402000104000800F4001700F4000700F40000004409F
:4002C00031000400080004400001044008010440180104400002044010200900080204401802044008030440000404409204000008040440080504400006044008060440F9
:4003000018060440000704400807044010B5064C2378002B07D1054B002B02D0044800E000BF0123237010BD600100200000000068370000084B10B5002B03D00749084876
:4003400000E000BF07480368002B00D110BD064B002BFBD09847F9E7000000006401002068370000C00000200000000010B5802252018B4B1A608B4B1B78002B02D08A480F
:4003800001F034FE894B1B68864A52681A4200D17FE0844B1B78002B02D0854801F026FE0022844B1A70002001F0D2FE7D4B1B895B01814A944663449A68120E23D19A68E4
:4003C000120CFF210A40012A03D09A68120C114211D19B681B0CDBB2724A9372012B0ED101F09CF9734A6F4BDB7A5BB2584350800023536003E0714B00225A709A70012247
:400400006C4B1A723BE09A68120E022A0ED19968090C6B4A51709968090A91709968D170DB681B0E13710023537128E09A68120E042A1DD19A68120CD0B2624C6070996810
:40044000090ACAB2A2709968E170DB681B0E23710023637112020243564B02215B5E9A4202D00022534B5A600122524B1A7206E09B681B0E102B02D101224E4B5A72494B0C
:400480001B895B014C4A94466344196801220A431A60464B1A68434B9B891A4200D17EE0404B1B78002B02D0474801F09FFD414C00232370002001F04BFE63895B013E4AC6
:4004C000944663449A68120E23D19A68120CFF210A40012A03D09A68120C114211D19B681B0CDBB22F4A9372012B0ED101F016F9304A2C4BDB7A5BB25843508000235360B4
:4005000003E02E4B00225A709A700122294B1A723BE09A68120E022A0ED19968090C284A51709968090A91709968D170DB681B0E13710023537128E09A68120E042A1DD141
:400540009A68120CD0B21F4C60709968090ACAB2A2709968E170DB681B0E23710023637112020243134B02215B5E9A4202D00022104B5A6001220F4B1A7206E09B681B0E20
:40058000102B02D101220B4B5A720A4B5B895B01094A94466344196801220A431A6010BD00002F40C40000208837000008002F409C3700007C010020A0002F401C02002001
:4005C000CC02002084020020AC37000070B501F0C3FB040001F078F901F06EFD01F0DCF801F04EF801F07EF90D491D2000F080FD62B60C4801F084F80B4801F08FFD0B4B8B
:400600001B78002B0AD001F07BFC094D22000949280002F085FC280001F0E8FC70BDC0466D03000011090000AD080000C400002020020020BC3700001022FF32014B1A60A4
:400640007047C0468C020020F0B583B001F0DAFC040001F0D7FC062872D880005C4B1B589F4610225B4B1A6100205B495B4B18605960002573E01122564B1A6158485949BA
:40068000564B18605960103A574BDA723132574B1A60263A564B1A60023A564B1A6001255DE012224B4B1A614D4853494B4B18605960022553E0474B13221A61123A1A75C8
:4006C00000204549454B18605960032547E0414A1423136101211175484849493F4A10605160424A13601E22414B1A60143A414B1A60F5323C4BDA72042530E0354B15220F
:400700001A61143A1A75FE32374BDA723B483C49324B18605960CD3A344B1A600A3A344B1A601E3A334B1A60052518E01622294B1A6100202849294B1860596006250EE088
:40074000244A1A231361284B8021C90199818021090259600F2119810E2353810725072D0ED0214B5A68AA405A609A89AA409A81AAB219895118198116494B89D2184A810D
:400780000120FFF759FF184B1B78002B1ED0114F1C4E3B6922001C49300002F0C1FB300001F024FC104B1B897A8900922A001749300002F0B5FB300001F018FC3A7D14496E
:4007C000300002F0ADFB300001F010FC03B0F0BD6C3700007C0100200000F03FB80200206666666666E62C40C4000020C8020020A80200201802002066660640F1F44A599D
:400800008638F63F20020020D0370000F83700002838000070B504001F4B186045421F4B1B78002B0AD01E4B1B7D1E4E2A001E49300002F075FB300001F0D8FB0022184B50
:400840005A75FF231B1BFF32FF32934222D801F035F8002D0CDAC30703D5114B1B7D002B06D0002000F01CFF200000F0B9FE11E0002D0CDD830703D5094B1B7D002B06D010
:40088000012000F00DFF280000F0AAFE02E0002000F0A6FE70BDC046A4020020C40000207C010020200200203C38000010B501F0BFFB124B1B78002B04D002001049114882
:4008C00002F02EFB01220D4B9A730F4A537D0133DBB25375117801311170132B05D90020FFF798FF0122094B5A71074B1B78042B02D9012001F02CFC10BDC046C40000207C
:4009000058380000200200207C010020CC02002010B50A4B1B78002B08D0094C1A220949200002F0EBFA200001F060FB064B1868FFF770FF002000F0FBFE10BDC400002074
:400940002002002078380000A4020020F0B583B000F0E4FE134B00221A705A7001329A70114C2269DA700F211971013222610F4801F008FA2378022B11D10A4B1D785E78AE
:400980009F7800F0CBFE0A4C0190009733002A000849200002F0C4FA200001F027FB03B0F0BDC046AC020020C40000208C020020200200209438000010B50D4B12221A7089
:4009C00000225A709A70DA701A710A4801F0DAF9094B1B78022B0AD1054B1A785B78074C0749200002F09CFA200001F0FFFA10BDAC0200208C020020C400002020020020AE
:400A00000839000070B5050002F0ECF90B4B1A685B6801F037FF02F0AFF90400084B1B78002B09D0074E03002A000749300002F077FA300001F0DAFA200070BDB8020020A9
:400A4000C4000020200200205C39000070B582B0040000F063FE2D4BDB7A5BB2584302B2A41A631D0A2B0ED8284B1B78002B49D0274D22002749280002F052FA280001F0BE
:400A8000B5FA00203FE024494B68E3184B60FA2149008B4201DD204B59601F4B59681F4B994202DA19001C4B59601B4B9969651A9C61164B1B78002B0CD0174B5B68144E64
:400AC0000192009522001649300002F029FA300001F08CFA134B186860430A2101F0E6FD04000D4B5868104B1B6858430A2101F0DDFD24180D4B186868430A2101F0D6FDA8
:400B0000201800E0002002B070BDC046C400002020020020743900007C0100200CFEFFFF7C390000C8020020A80200201802002070B50400184B1B78002B09D0174B1A7A64
:400B4000174D1849280002F0EBF9280001F04EFA2000FFF757FFFFF779FF04000E4B1B78002B08D00E4D02000F49280002F0D8F9280001F03BFA094B187F844202DDFFF710
:400B800049FE08E04042844202DAFFF743FE02E02000FFF73FFE70BDC40000207C010020200200209C390000AC39000010B582B0002001F0CDFA002001F0BEFA694A01235D
:400BC00013709370684A022111709370674A013111709370664B05229A7100245C71DC71644ADA601C71002001F0B2FA002001F0A3FAFFF7EBFCFFF727FD5F4B1C60002071
:400C0000FFF708FE012001F0A3FA012001F094FA01F09EFB042001F05FFB584BD86E01F047FB012001F00EFB62B6554B1B7B002BFBD1544B5979002934D1534B9A7A002A79
:400C40001FD11B78002B0BD04E4B5A789B784F4C00914F49200002F063F9200001F0C6F9484B01225A719B78DB0704D5454B5878FFF7D0FD16E0434B58784042FFF7CAFD66
:400C800010E0394B00219970023159703E4B1B78002B07D03D4C3F49200002F041F9200001F0A4F9384B9A7A012A20D11B78002B0DD0394B5A78DB7832494979334C00912D
:400CC0003649200002F02CF9200001F08FF92C4A00211172304BD87810775160987800025B78184300B25080FFF722FF14E0254B5B79002B10D11C4B0021997004315970DC
:400D0000214B1B78002B07D0204C2549200002F007F9200001F06AF91B4B9B7A012B04D901231D4A5371174A5371174B9B7B002B0DD0154B1B78002B04D0142219491348F5
:400D400002F0DCF8FFF702FE00220F4B9A730C4B5B7A002B00D168E7FFF72EFE0022084B5A7262E7C0020020C40200201C0200208C020020AC020020A402002094410000EE
:400D80007C010020CC020020C400002020020020B8390000D439000084020020F8390000143A0000383A0000F0B50025002711E0BB00C658F3B2FF22964308E06A008A189F
:400DC0001478A419527822700135013BDBB2002BF4D101370F2FEBD9F0BDC04610B50A00002102F094F810BD064B1B68002803D080221206134301E05B005B08014A1360FB
:400E00007047C04680033A4010B50323054A1360054A13600022054B1A600120FFF7E4FF10BDC0463000304030003140000E3F4010B502F037F803680C2B00D1FEE7FEE7DF
:400E400010B50300084A1068C318084A9A1A802A02DC054A136005E002F024F80C2303600120404210BDC046D80000200003002070B50F4E0F4D13E029686B68AC68002234
:400E800002E001C901C30432A242FAD1E868002202E0002102C304328242FAD11035013E002EE9D102F004F8FFF780FEFEE7C04601000000F045000010B50E4A1368012135
:400EC0008B43136000230AE0032B03D89A000A49505800E009489900094A885001332F2BF2D9FFF725F9034A116801230B43136010BDC0460000104000000000310E000097
:400F000000000020024A1168024B0B401360704700002240FFFFFFBF034B18688023DB05184000D0012070470000224030B52D4B1A783F231340042B01D9012000E000206B
:400F400000230AE0284A12683F210A402749C95C8A4201D1033303E001332D2BF2D9032323490A680124A2430A60224A126822490A6000280FD021490D681F4C65601F249F
:400F8000A2431F4C247822431A4C22601D4A1278D2B20A6005E01F218A4317390A4315490A60302B0BD1002803D0174B1B78DBB202E0164B1B78DBB2154A13600CE0182BAA
:400FC0000AD1002803D0134B1B78DBB202E0124B1B78DBB20E4A1360104A116802230B43136030BD00F3FF0F2CFF0B40EC3F000050000C4034FF0B40A001002020FF0B40E6
:40100000C0F1FF0FC1F1FF0FC3F1FF0F3FF3FF0F28FF0B40C2F1FF0F3EF3FF0F24002C4030B51A4B1A783F231340042B01D9012000E0002000230AE0154A12683F210A40E2
:401040001449C95C8A4201D1033303E001332D2BF2D9032310490A680224A2430A600F4C21681F2291430E4D2D682A400A432260002803D00A4A51680A4A11600A4A94465D
:4010800063441B78DBB2094A136030BD00F3FF0F2CFF0B40EC3F000024002C4034FF0B40A001002020FF0B404DF3FF0F28FF0B40034B1B680220184000D001207047C04622
:4010C00024002C401F2318401E3B8340014A13607047C04600E100E01F2318401E3B8340014A13607047C04680E100E001BE704770B504000D001F2802D90020FFF7F6FF23
:401100001034A40080239B059C4664442068256070BDC04670B504000E00032902D90020FFF7E4FF1F2C02D90020FFF7DFFF03252540ED00063501F0DCF9A408A400074B4C
:401140009C46644421680323AB4099430B003100A9401943216001F0D0F970BD00E400E010B5040006E0084B586801F0B9F9074B9C46644480231B029C42F4D8024B9868CA
:40118000604301F0ADF910BDDC0000200080FFFF30B583B000F06CF900285FD001F0A9F904002F4A116801230B43136000230AE02C4A12683F210A402B49C95C8A4201D19E
:4011C000033303E001332D2BF2D90323274A1268D20606D1254802681F218A4313390A430260234A1168234A0A40234959438020C00184466144C90B01394905490D0A436C
:40120000A021490311430800192B02D81B4B1A430EE01B4A9A1812781A3B1349C9183023CB5CD318FF2B00D9FF239B0502001A430F4B1A60134D2B680193302001F060F9C5
:40124000114A13688021C9050B4313601420FFF787FF019B2B60200001F04FF903B030BD50000C402CFF0B40EC3F000034FF0B400800224000F800C040420F000000D43F17
:401280004DF3FF0F300010400000224010B5034B1B7B584301F024F910BDC046DC000020F0B55F4656464D464446F0B483B0040001F01FF90190FFF72FFE002804D0FFF750
:4012C00021FE01239A4601E000239A46FFF7F0FE002808D0182C01D0302C07D1FFF7A0FE01239B4604E000239B4601E000239B46E61E2D2E74D8464B1B78DBB29C4208D83A
:40130000444B1B78DBB29946434B1B78DBB2984631E0424B1B78DBB29C4208D8404B1B78DBB299463F4B1B78DBB2984623E03E4B1B78DBB29C4208D83C4B1B78DBB2994615
:401340003B4B1B78DBB2984615E03A4B1B78DBB29C4208D8384B1B78DBB29946374B1B78DBB2984607E0364B1B78DBB29946354B1B78DBB29846344B9F5D2F2F09D92A2C99
:4013800007D91922314B1A60052001F0A9F8192503E02E4B1D683F231D40BD4206D92A4B9A5D2A4B1A60052001F09AF8254B9C4664442378DBB2264A1360264B4A461A6026
:4013C000254B42461A600520FFF760FFBD420AD21D4B9A5D1D4B1A60052001F081F802E00020FFF783FE5346012B01D1FFF7D0FE5B46012B01D1FFF799FD019801F07DF858
:4014000003B03CBC90469946A246AB46F0BDC04640F3FF0F41F3FF0F42F3FF0F43F3FF0F44F3FF0F45F3FF0F46F3FF0F47F3FF0F48F3FF0F49F3FF0F4AF3FF0F4BF3FF0F72
:401440004CF3FF0F4DF3FF0FEC3F00002CFF0B4028FF0B401CFF0B4020FF0B40034B1868C0231B02184000D00120704700010B40034B1B68002B01DA012000E00020704725
:401480000000224010B501F034F8044A1368C02109020B43136001F030F810BD00010B4010B501F026F808490A68084B1A408024E40122430A600A681340802212021343D3
:4014C0000B6001F01AF810BD00010B40FF3FFFFF70B5050001F00DF80400FFF7BFFF002803D0FFF7DDFF012100E0002108482840084A1568084B2B401843106013680129AC
:4015000001D1FFF7BFFF200000F0F7FF70BDC0460404040010020B40FBFBFBFF10B5244B1B685B0715D5234B5B685B070ED5224B596A042001401F4C62688A4362605A6AFD
:4015400082435A629B69002B00D098470420FFF7BFFF174B1B685B0518D5164B5B685B0510D5154B596A8022D2001140114842688A434260596A114A0A405A62DB69002BAC
:4015800000D098478020C000FFF7A2FF084B1B685B030CD5074B5B685B0304D5064B1B6A002B00D098478020C002FFF791FF10BD10020B40F0000020C0010020FFFBFFFF79
:4015C0000004000C014B18607047C046080120400004000C014B18607047C046140120400004000C014B18607047C0460C01204070B504000D0000F07CFFAC40024B1C6097
:4016000000F07BFF70BDC0460800204010B500F070FF064A116801230B43136000F06DFF18210120FFF7E4FF10BDC04600002040014B18607047C0463801204010B50D4CD9
:401640008023DB042360236823600020FFF7B8FF236823600C22084B1A600120FFF7E8FF3122064B1A60FF20FFF7B2FF0020FFF7B7FF10BD00012040240120402801204097
:4016800010B5064B1B78002B04D1FFF7D7FF0122024B1A70FFF7BAFF10BDC046E801002004490A68D2B202239A434000184010430860704700070440014B98647047C04691
:4016C0000000002010B5040000F013FF044A1168044B0B40A4051C43146000F00EFF10BD00E400E0FFFF3FFF0422014B1A60704700E100E00422014B1A60704780E100E010
:4017000010B50400FFF7F6FF2000FFF7D5FF0320FFF7D8FFFFF7E8FF10BDC04610B500F06BF8024B9C46604400B210BD0080FFFF10B5002805DB80B2054B9C46604480B27C
:4017400003E0034B9C46604480B200F04FF810BD0080FFFF024B18780F2318407047C04660000F40014B18707047C04680000F4010B50F20FFF7F6FFFFF7ECFF00F0B9FE64
:40178000044A117810230B43DBB2137000F0B5FE10BDC04690000F4010B500F07FF88020000200F023F8054B1B78002B02D10122024B1A70FFF7DCFF10BDC046E90100200A
:4017C000034A117880235B420B43DBB21370704776000F40014B18707047C04684000F40014B1878C0B2704764000F40014B18807047C0460C100F40024B1B78024B188804
:4018000080B2704706000F408C100F40014B188880B270478C100F40014B18807047C0464C100F40014B18807047C0466C100F4010B501E0FFF7EAFFFFF7D2FF4306F9D4A5
:4018400010BDC04610B5134B1A7807218A431A701A7804398A431A70FFF7EAFF802424022000FFF7D9FF2000FFF7C0FF0020FFF7B1FFFFF7B5FF2000FFF7D4FF00F039FE4F
:40188000054A117810230B43DBB2137000F035FE10BDC04676000F4094000F4010B5064B1B78002B04D1FFF7CDFF0122024B1A70FFF786FF10BDC046EA010020014B187887
:4018C000C0B2704761000F4010B500F012FE044A117810230B43DBB2137000F00EFE10BD91000F40054B1A6801210A431A601B68194201D1012000E00020704704002F4083
:4019000010B50E4A0E4B1A60FFF7ECFF1D20FFF7D9FB0C4A116801230B431360F0231B0100E0013B002B03D0064A1268D207F8D5002B01D1012000E0002010BD0110000066
:4019400000002F4010002F4003B2002B0DDB094A1168094B0B400004034313601268074B1340984203D0012002E0022000E000207047C04614002F40FFFF00800000FF7F5C
:40198000002809D10C4B19680C4A0A401A601B68DB040CD501300DE0074B1A68802149010A431A601B680B4203D1012002E0002000E000207047C04614002F40FFEFFFFF59
:4019C00070B5841EE4B20D2C35D88C1EE4B2052C03D9002B31D1012931D1032A31D8904231D3914231D31C4D2C68240AE4B20F26B44320432E68194C3440000204432C6027
:401A00002C686040F0242401204220D1002B00D002234901C9B29200D2B2114319430E4A1368EE2083430B4313601368034099420FD0ED380EE002200CE002200AE002200C
:401A400008E0022006E0022004E0022002E0012000E0002070BDC04614002F40FFF0FFFF002809D10B4B1A6810218A431A601B6819420BD001300CE0064B1A6810210A432F
:401A80001A601B68194203D1012002E0002000E00020704714002F40002809D10B4B1A6801218A431A601B6819420BD001300CE0064B1A6801210A431A601B68194203D116
:401AC000012002E0002000E00020704714002F40054B18601B681B041B0C984201D0012000E000207047C04604002F4010B503785B01204A944663441F4A41680A431A609C
:401B000003785B01634419681C4A11401C4A44682240914224D182681A6103785B0163441A6981688A421DD1C2685A6103785B0163445A69C1688A4216D1012252429A61F6
:401B400003785B0163449A6901320FD10022DA6103785B016344DB69002B09D0012008E0012006E0012004E0012002E0012000E0002010BDA0002F40800080007F007F009B
:401B80007FFF7FFF10B503781B01104A944663440F4A41680A431A6003781B01634419680C4A11400C4A4468224091420AD182685A6003781B0163445A6883689A4203D073
:401BC000012002E0012000E0002010BD20002F4008008000F7007F00F7FF7FFF70B500240AE063001B199800104B1818FFF7CAFF002805D10134E4B2072CF2D9002500E07B
:401C00000125002D0BD00FE0230108486030C018FFF76CFF002806D10134E4B200E000240F2CF1D900E00125280070BD34400000002809D10C4B19680C4A0A401A601B6831
:401C40009B040CD501300DE0074B1A68802189010A431A601B680B4203D1012002E0002000E000207047C04614002F40FFDFFFFF10B580221206344B1A60344A136801218A
:401C80008B431360C8231B0200E0013B002B03D02E4A1268D207F8D4002B4AD01D20FFF71BFA2B491D20FFF723FA03211D20FFF731FA1320FFF748FE00281AD1FFF760FE81
:401CC000002818D1FFF7B4FF002816D10023012201210C30FFF774FE002810D10130FFF7BFFE00280DD1FFF7D7FE00280BD001230AE0012308E0012306E0012304E00123FE
:401D000002E0012300E00023002B14D1FFF766FF002812D10F48FFF7DBFE00280FD10B4B1A6807218A431A601B68194209D0013008E0012006E0012004E0012002E00120AF
:401D400000E0002010BDC04600042F4010002F40811D00000110000010B5084B1B78002B02D1FFF785FF00E00020002804D10122024B1A70FFF7C4FD10BDC046EB0100203F
:401D80007047C046F8B54F464646C0B4040001200023984691E04C4B1B6832041A427AD12379002B01D1002701E08027BF036379002B07D12B01454A944663442268520590
:401DC0005A6009E080235B031F432B013F4A944663442268D2005A60A379072B03D81B041F43B94603E080231B031F43B946E379002B03D004234A461A43914600232AE071
:401E0000032B13D92801324A94466044026894465907CA1AD1003831FF228A4067469743E268D25C8A403A43026012E02801274A94466044826894465907CA1AD1001831E4
:401E4000FF228A4067469743E268D25C8A403A4382600133DBB2A279934201D2072BCFD91D20FFF739F92B01184A94466344194A4F4617431F60227A002A04D0196803226C
:401E80000A431A6003E0196801220A431A601D20FFF718F900207600F6B2002807D00135EDB201E001260025072D00D873E7002806D043460133DBB298464346022BF1D97E
:401EC0000CBC90469946F8BD08002F4020002F402C002F400800800010B500F075F810BD10B500F01DF810BD10B5044A1368802109060B431360FFF7EFFF10BD00002740EA
:401F000010B5064B1B78002B04D1FFF7E9FF0122024B1A70FFF7E8FF10BDC046EC010020154A164B1A600023154A13601549164A1160164A16490A6007201649086016498F
:401F40000B6006381549086015490A60154A13600421154A1160154A1360154A1360154A1360154A1360154A1360154A13601268144B1A807047C0460B00000200002740D3
:401F80004000274001000A00480027400700008000032740040327401003274044002740000227400402274050002740880E2740C80E2740480F2740080F2740C80F2740FB
:401FC000880F2740EE01002005490B68F0229343603A13430B60034B1A88034B1A60704700060240EE010020880F274070B50500002402E000F0C2FA0134285D0028F9D184
:4020000070BDC046014B1878C0B2704763000F40034A117880235B420B43DBB21370704773000F40014B18707047C04687000F40014B1878C0B2704767000F4010B50100E1
:40204000014800F087FA10BD22000F4010B5024800F08AFA10BDC04642000F4010B50100014800F077FA10BD02000F4010B501E0FFF7ECFFFFF7DCFF0307F9D410BDC046F1
:4020800010B50B4C2000FFF7D9FF2000FFF7E6FF00F02FFA074A117810230B43DBB2137000F02BFAFFF7E2FF0120FFF7BBFF10BD3F420F0097000F4010B5064B1B78002BC3
:4020C00004D1FFF7DDFF0122024B1A70FFF7A0FF10BDC046F0010020014BD8647047C0460000002010B5040000F003FA044A13689B009B08A4071C43146000F0FEF910BD72
:4021000000E400E00822014B1A60704700E100E00822014B1A60704780E100E010B50400FFF7F6FF2000FFF7D7FF0320FFF7DAFFFFF7E8FF10BDC04604490A68D2B20223E1
:402140009A43400018401043086070470002044004490A68D2B210239A430001184010430860704700020440114B1B68022B1AD80F494A68581C086050008218D3189B007A
:402180000C4A9B580C4A1268D3400C4A12681340D8B20B4A1070180AC0B210701B0C8B60DBB2137002E01122064B1A707047C046F4010020D4020020E4020020E00200207B
:4021C00041000F4071000F402122164B1A70164A536801335360002B1FD1DBB2134A1370114A53685900CB189B0011495B5811490968CB40104909680B40D8B20F49087098
:40220000180AC0B208701B0CD360DBB20B70012313600922034B1A7002E00122084B1A607047C04671000F40F401002070000F40D4020020E4020020E002002041000F40E5
:40224000E8020020002804D00023114A5360114A13700F4843685A00D3189A000E4BD3580E4A1268D3400E4A12681340D9B20D4A1170190AC9B211701B0CDBB213700123FD
:4022800003601922084B1A700022084B1A607047F401002070000F40D4020020E4020020E002002041000F4071000F40E802002010B500210BE04B005B189B189B00054CA3
:4022C0001851013200E00022022AF4D901310029F9D010BDD402002002280FD002D8012805D020E0032810D0042815D01BE0114A114B1A600122114B1A601AE0104A0E4B91
:402300001A6002220D4B1A6013E00E4A0A4B1A6003220A4B1A600CE00B4A074B1A600422064B1A6005E0094A034B1A600022034B1A6070477F7F7F00E0020020E4020020FB
:402340003F3F3F001F1F1F000F0F0F00FFFFFF0010B50322144B1A702E32144B1A70093A134B1A70103A134B1A70134C012323700020FFF79DFF00232370002000F026F8F4
:402380000020FFF7A9FF0D4B1B7D002B08D101220A4B1A750A4800F061F80A4800F090F80122094B1A6010BD95000F4045000F4025000F4035000F4071000F40F4010020FC
:4023C000C921000069210000E802002000280CD10C4A0D4B1A6005220C4B1A6002320C4B1A6019320B4B1A600BE0064A064B1A600522064B1A600232054B1A601932054B89
:402400001A60704774430000F4020020EC020020F8020020F0020020014B18647047C0460000002010B5040000F063F8044A1368C0218B43A4011C43146000F05EF810BDA8
:4024400000E400E00122014B1A60704700E100E00122014B1A60704780E100E010B50400FFF7F6FF2000FFF7D7FF0320FFF7DAFFFFF7E8FF10BDC046014B58647047C0464F
:402480000000002010B5040000F033F8044A1168044B0B40A4031C43146000F02EF810BD00E400E0FF3FFFFF0222014B1A60704700E100E00222014B1A60704780E100E016
:4024C00010B50400FFF7F6FF2000FFF7D5FF0320FFF7D8FFFFF7E8FF10BDC046000000000230800803D00138FDD1C046C046C0467047EFF3108072B6704780F3108870472E
:4025000070B50400FFF7F5FF0500102C05D8104A136803218B43136016E0202C07D80C490B6803229343023A13430B600CE0302C07D807490B6803229343013A13430B606E
:4025400002E00020FEF7D2FD2800FFF7D6FF70BD30001040CBB203700B0ADBB24370090CC9B281707047C0460378427812021A4383781B041A4310007047C046044B1B68B6
:402580001F221340082BF9D0024B18607047C0460802274040022740002243088B4274D303098B425FD3030A8B4244D3030B8B4228D3030C8B420DD3FF22090212BA030CD9
:4025C0008B4202D31212090265D0030B8B4219D300E0090AC30B8B4201D3CB03C01A5241830B8B4201D38B03C01A5241430B8B4201D34B03C01A5241030B8B4201D30B03E0
:40260000C01A5241C30A8B4201D3CB02C01A5241830A8B4201D38B02C01A5241430A8B4201D34B02C01A5241030A8B4201D30B02C01A5241CDD2C3098B4201D3CB01C01ADB
:40264000524183098B4201D38B01C01A524143098B4201D34B01C01A524103098B4201D30B01C01A5241C3088B4201D3CB00C01A524183088B4201D38B00C01A52414308C2
:402680008B4201D34B00C01A5241411A00D20146524110467047FFE701B5002000F0F0F802BDC0460029F7D076E7704703460B437FD4002243088B4274D303098B425FD3DA
:4026C000030A8B4244D3030B8B4228D3030C8B420DD3FF22090212BA030C8B4202D31212090265D0030B8B4219D300E0090AC30B8B4201D3CB03C01A5241830B8B4201D3B7
:402700008B03C01A5241430B8B4201D34B03C01A5241030B8B4201D30B03C01A5241C30A8B4201D3CB02C01A5241830A8B4201D38B02C01A5241430A8B4201D34B02C01AE5
:402740005241030A8B4201D30B02C01A5241CDD2C3098B4201D3CB01C01A524183098B4201D38B01C01A524143098B4201D34B01C01A524103098B4201D30B01C01A524167
:40278000C3088B4201D3CB00C01A524183088B4201D38B00C01A524143088B4201D34B00C01A5241411A00D201465241104670475DE0CA0F00D04942031000D3404253402D
:4027C00000229C4603098B422DD3030A8B4212D3FC22890112BA030A8B420CD3890192118B4208D3890192118B4204D389013AD0921100E08909C3098B4201D3CB01C01AAE
:40280000524183098B4201D38B01C01A524143098B4201D34B01C01A524103098B4201D30B01C01A5241C3088B4201D3CB00C01A524183088B4201D38B00C01A5241D9D2A0
:4028400043088B4201D34B00C01A5241411A00D20146634652415B10104601D34042002B00D54942704763465B1000D3404201B5002000F005F802BD0029F8D016E770471B
:402880007047C046F0B55F4656464D464446F0B40D0399464E002B0B87B00700924680469B46760DCC0F002E69D06D4B9E4235D05B468022DD001204430F13432B439B46F5
:4028C000C3009846674B00279C460023664401934A4615035000D20F53462D0B400D914600D176E05E4A90426CD080225B0F120413435C4AED0094461D4353460022DB0095
:40290000604449463618701C6140029017430F2F00D9AFE05448BF00C759BF465B461F4300D088E000239B469846023308270193CEE74946022A6AD0032A00D109E2012A04
:4029400000D0BBE111400022002300259046CCB200212D030A0D12052D0B1543434A1B0515401D436D00E4076D0825434046290007B03CBC90469946A246AB46F0BD034357
:4029800052D05B46002B00D18AE1584600F06CFA03000B3B1C2B00DD7BE11D22D31A3A0001005D46DA4008398D4013008F402B439B46B8462E4B00279C46002360444642FE
:4029C000019385E752462A432CD100250023022297E752462A4321D0002D00D154E1280000F042FA03000B3B1C2B00DD46E11D21CB1A51460200D9405346083A9540934082
:402A00000D431B4A944660444042002279E7012400220C40124B0025904699E70025002301226EE703226CE700239B4698460133042701934CE703230C27019348E7002375
:402A40008025984600242D03054B81E75D464346019A6FE75D4643462100019A6AE7C046FF07000001FCFFFF54450000FFFF0F80F30300004246120C91461A0C9446424649
:402A800017044A461B041B0C5A43604690464A4642431000039262461C003F0C7A437C4342440192220C9246019A5244904506D98246802040028046C24450460390100C08
:402AC000049048462404240C1204121905922A0C2D042D0C68432C00824648467C4350438146200C8046574357444744BA4503D9802040028046C144380C3F04B846484453
:402B00002404240C01900498A044404404905846000C814658460404200C8246070048465F434C464343604660436446834650464443380C8446E4186444A34203D98023CB
:402B40005B029C46E34448463F04230C3F0C2404E419574668436F4384464D46504655434243380C814662444A445B44944503D9802040028446654403983F04834604984A
:402B80003F0C8446E344C345804140428246100484460198674484466744A344BC46A345A4419946D44464428742BF41D4458041E144A04699459B417F424042C8440743DB
:402BC000120CBA18A045A4415F423B0064422343D71843467D19DB0D6D021D435B465A02059B1A43531E9A415B46DB0D1A4343465B021343EA0107D501225C0813402343FF
:402C0000EA07029E13436D08574AB218002A4BDD580709D00F201840042805D0181D98429B415B42ED180300E80104D54F4A15408022D200B2184E48824200DDE7E6012414
:402C4000DB08680718436D02530580462D0B5B0D0C407DE6802259461203114208D0154206D115432D0398462D0B4C46414B6FE65D4615432D032D0B3E4B69E60300554632
:402C8000283B9D400023BCE6504600F0EDF82030A8E60300283B9F400023BB46984689E600F0E2F8203073E60124A61A382E07DD00220C4000230025904649E6029EA3E789
:402CC0001F2E20DC20222C001800921BF040944093400443581E83411C43F540630709D00F232340042B05D023001C1D9C4292415242AD182B021FD5012400220C40012352
:402D00000025904624E61F202C004042821AD440202E1CD04022961BB5402B43581E83410720234318400025002809D00F2200251A401C00042AD8D1230068076D022D0B20
:402D40000124DB08034398460C40002300E60025E3E780220124120315432D0398462D0B0C40044BF4E5C046FF030000FFFFFFFEFE070000FF0700000B0330B5134D1A0B6F
:402D80004B005B0DC90F0024AB4211DD104CA34210DC8024640322430E4CE41A1F2C0CDD0D48C31ADA4013005C42002900D11C00200030BD094BCC18FAE7E040084CA446C9
:402DC00063449A4013000343EEE7C046FE0300001D0400003304000013040000FFFFFF7FEDFBFFFF70B5002830D0C317C4185C40C50F200000F038F8174B184A1B1AD21AB4
:402E00001F2A18DD164AD21A9440002224035B05240B5B0D0021100024030A0D1205240B1443104A1B0514401C436400ED0764082C43210070BD210091400A000B21081AF0
:402E4000C4405B052403240B5B0DE3E70025002300240022DEE7C0461E0400003304000013040000FFFF0F801C2101231B04984201D3000C10391B0A984201D3000A08396F
:402E80001B09984201D30009043902A2105C40187047C04604030202010101010000000000000000014B18687047C046580100200E4B70B500251E000D4CE41AA410A54211
:402EC00004D0AB00F35898470135F8E701F07EFB084B00251E00084CE41AA410A54204D0AB00F35898470135F8E770BDD8450000D8450000D8450000E0450000002310B5D8
:402F00009A4203D0CC5CC4540133F9E710BD03008218934202D019700133FAE7704700000EB410B59DB002A9029008610B48822488604861012040421FABC881084804CB4F
:402F4000A400006801938C8100F06EF80023029A13701DB010BC08BC03B01847FFFFFF7F58010020F0B58E6885B007000C00039201939E4243D890238A89DB001A423ED096
:402F800003250969236801985B1A029363695D43EB0F5D19029B6D1001331B18AB4200D91D00530510D52900380000F037FB061E14D0029A2169FFF7A1FFA289194B1340A3
:402FC00080221343A38112E02A00380000F086FB061E0CD12169380000F0D4FA0C23402201203B60A38940421343A38117E0029B2661F61826606561019EED1AA560019B3E
:40300000B34200D21E0032000399206800F0A5FA0020A3689B1BA36023689E19266005B0F0BDC0467FFBFFFFF0B59FB0029005938B890F0016001B0610D50B69002B0DD160
:40304000402100F0EBFA38603861002804D10C23029A01381360D8E040237B61002306AD6B6120336B761033AB7634002378002B03D1A31B049312D003E0252BF9D001340E
:40308000F4E7A31B320039000298FFF76BFF431C00D1B4E06A69049B944663446B612378002B00D1ABE00122002352426A6002A95432521801342B60EB60AB601370AB6585
:4030C000534E21780522300000F03CFA002807D00123801B83402A68013413432B60EFE72B68DA0604D55322202102A8121811701A0704D553222B2102A812181170227819
:403100002A2A03D0099B00200A210EE0059A111D12680591002A01DB099204E05242EA60022213432B6001340BE02278303A092A04D84B4301349B180120F6E7002800D0A7
:40314000099323782E2B1ED163782A2B0AD1059B02341A1D1B680592002B01DA01235B42079310E000230A201A0001346B6021783039092904D84243013452180123F6E7B1
:40318000002B00D00792234E21780322300000F0D9F9002806D04023801B83402A68013413432B60217806221B48661C297600F0C9F9002812D0194B002B06D10722059BC3
:4031C000073393430833059314E005AB00933A00134B2900029800E000BF07E005AB00933A000F4B2900029800F08AF80390039B013304D06B69039A9B186B6135E7BB893F
:403200000B985B0601D5012040421FB0F0BDC046964500009C450000A045000000000000652F0000F7B5170001938A680B6900900C00934200DA130022003B604332127883
:40324000002A01D001333B6023689B0602D53B6802333B60062523681D401ED0230043331B785A1E9341226892061CD53020E1184331087021005A1C45310978A218433290
:40328000023311700FE022000123193201990098089EB047431C0ED00135E3683A689B1A9D42F0DBDAE72200019943320098089DA847431C02D10120404220E006232068A6
:4032C000E1683A6803400025042B03D18D1AEB43DB171D40A3682269934201DD9B1AED180027BD420AD0220001231A3201990098089EB047431CDED00137F2E70020FEBDF7
:40330000F0B58BB006920A0043320793059004920A7E0C00109B6E2A00D1ABE011D8632A22D009D8002A00D1B5E0582A00D0C5E045310A70814A4FE0642A1DD0692A1BD0EB
:40334000BCE0732A00D1AAE009D86F2A29D0702A00D0B3E0202209680A43226037E0752A1FD0782A33D0A9E00E001A684236111D196013683370A4E021681A68080606D4B0
:40338000490604D5111D19600023D55E02E0111D19601568002D3BDA2D23049A6D42137036E021681A68080606D4490604D51568111D1960ADB202E0111D196015685F4B1C
:4033C000227E039308276F2A1DD00A271BE022007821453211705A4A19680392081D226818600D68100602D4500600D5ADB2D30702D520231A4322601027002D03D12023E9
:4034000022689A4322602300002243331A7002E00A274A4B03936368A360002B09DB0422216891432160002D05D1049E002B11D07BE0002D79D0049E28003900FFF732F999
:40344000039B013E5B5C280033703900FFF7A4F8051EF1D1082F09D12368DB0706D563682269934202DC3023013E3370049B9B1B23612BE009681A68080607D4490605D5BD
:40348000111D19601368A28A1A8004E0111D1960136862691A600023049E236116E01A68111D1960166800216268300000F04AF8002801D0801B6060636803E02600423606
:4034C0003270012323610023049A1370079B09AA00932100069B0598FFF7A4FE431C02D10120404227E02369320006990598079DA847431CF4D0236800259B070FD4099BFA
:40350000E068984217DA180015E022000123193206990598079EB047431CE1D00135E368099A9B1A9D42F0DBE9E72600039B42361B7833708EE70BB0F0BDC046A74500005E
:40354000B8450000C9B28218904204D003788B4202D00130F8E70020704710B5884202D98B18984201D3002305E09B1A013A08D3995C8154FAE7934203D0CC5CC45401333D
:40358000F9E710BD70B50500002944D00C1F2368002B00DAE418280000F0D8F81E4A13681100002B02D16360146031E0A3420DD92268A018834203D118685B688218226019
:4035C00063600C6024E0A24203D813005A68002AF9D11E689819A0420BD12168711858181960824214D110685268411819605A600EE0A04202D90C232B6009E0216860186A
:40360000824203D1106852684118216062605C60280000F09CF870BD10020020032370B5CD1C9D43083506000C2D01D20C2501E0002D01DBA94202D90C23336048E03000FF
:4036400000F084F8234B1C681A002100002913D00B685B1B0DD40B2B02D90B60CC181EE08C4202D1636813601AE04B6863600C0016E00C004968E9E7174C2368002B03D1B2
:40368000300000F051F820602900300000F04CF8431C18D00323C41C9C43A0420DD12560300000F054F8200007220B30231D9043C31A0ED05A42E2500BE0211A300000F051
:4036C00033F8431CEBD10C233000336000F03FF8002070BD100200200C020020F8B506000C001500002904D11100FFF797FF040018E0002A03D1FFF745FF2C0012E000F00D
:4037000027F885420ED929003000FFF787FF071E07D021002A00FFF7F1FB21003000FFF731FF3C002000F8BD002370B5064C050008002360FDF784FB431C03D12368002BB0
:4037400000D02B6070BDC046FC020020704770470B1F1A68101F002A04DA891804390B68D018043870470000000000006206000076060000A2060000B6060000CE06000004
:40378000FC0600002C0700000A2043616E207278207472696767657265640A0050302072656369657665640A0000000050312072656369657665640A0A00000043414E5F89
:4037C000537461727428293A202025750D0A000043414E206469702073657474696E673A20202578204D6573736167652049443A20256C640D0A000043616E207368696607
:40380000743A20256420202050304D61696C626F783A2025642050314D61696C626F782025640D0A0000000064697361626C655F6C696D69743A2025640D0A0050574D3AFB
:4038400025642064697361626C655F6C696D69743A2025640D0A0000506572696F6420696E7465727570742074726967676572642025780D0A0000004C696D697420696E13
:403880007465727570742074726967676572640D0A00000043414E5F53656E645F456E636F6465723A20627974655B30755D20257820627974655B31755D202578206279E9
:4038C00074655B32755D202578205175616444656320436F756E742025640D0A0000000054656C656D657274793A20627974655B30755D20257820627974655B31755D20FE
:4039000025780D0A000000004D6F64656C3A20627974655B30755D20257820627974655B31755D2025780D0A000000004572726F723A20627974655B30755D202578206200
:403940007974655B31755D20257820627974655B32755D2025780D0A000000006465677265653A202564207469636B733A2025640D0A0000703A2025640D0A00703A2025F3
:40398000642C20693A20256420642025642063757272656E742025640D0A0000636F6D706C6574653A2025640D0A000050574D3A2025640D0A00000042313A2025642C2018
:4039C00042323A20256420646F6E652025780D0A000000004D6F6465206973206E6F742073657420746F20302C206D6F64652069732025640D0A000042313A2025642C20D6
:403A000042333A20256420646F6E652025780D0A000000004D6F6465206973206E6F742073657420746F20312C206D6F64652069732025640D0A00000A53656E64696E6763
:403A400020446174612E2E2E200D0A0000300F40000800400F400008051815182514350C800F8103846F870D01010501060109010A02110117021F012F0230013101340235
:403A800037023F41540F580459045B045C015D105F018209860988A48A538C0C9A899C6D9E12A249A402A501A610A902AE0CB102B238B4C0B501B607B808BA20C032C5C02A
:403AC000C6E0C70BC81AC9FFCAFFCBFFD604D804D904DA04DB04DC29DD09DF01E2C0E440E5010128049405010E0A15401640170819021A041C101E0A1F40210122402440CD
:403B000026102A802F14300A31803915450847104C404F02571459805A295C405E206480680269156D406F817602770889048A018C80C0F6C2C0C4B0CA68CC0BCE07D06089
:403B4000D63FD880E2100001028003020402066008A00A5F1303160818041A501C571E081F02225723012F0130C0320F3302343037013A223F44405649FF4AFF4BFF4F01FE
:403B80005018580459045A045B045C095D035F016040624064406540668068806A806C806E808102853C890C8B308E018F01951C980499289A029B149F02A114A206A32810
:403BC000A930AB0CAC07B001B101B204B33CB502B602BE45BF10C056C9FFCAFFCBFFCD83CE03CF01D018D280D804D904DA04DB04DC10DD33DF01E040E240E440E540E6805A
:403C0000E880EA80EC80EE8000C0041405010601070108200D080E0A1282164019801A601C041D09210422022308254429022B082D402F8030A0320437413840392A3E0263
:403C400048084B404C084F40589059085B025D405E20650466017280734079407A107B11810888108940901092849380940495089628972899029A029B019D819EC09F101E
:403C8000A205A395A408A58CA92CAD01C071C2E2C419CA95CC9ECE8FD23CD63FD8C0E624040105FD070209940B601573199E1B60213023C92603270F29CF2B3031FF340201
:403CC00036013E403F01405645EC4702481349FF4AFF4BFF4D834E034F015018540F580459045A045B045C015D135F056040624064406540668068806A806C806E80808089
:403D00008120821F84CC85018621870288CC89048A128BD393209477958098089AF19B08A163A31CA4BBA501A644AD02B110B2F0B30CB40FB5E0B707B920C035C612C75069
:403D4000C82CC9FFCAFFCBFFCDA0D804D904DA04DC91DD09DF01E040E140E2C0E4C0E6C0000405160C040E0410101304150818041A021D141F0822022580275428202902B4
:403D80002B182F62302031103214371539283C103F0A411042044704480849094B404F8050085640576258105A425B08622478049010910892C493C0952296089728990297
:403DC0009B099C209E409F50A305A4E8A580A680A708A904AB40B302B480C074C260C424CAD7CCE6CEE6D040D21CD60FD806DE020096026804A3065C08C50A3A0E010F02C7
:403E00001102180E1AF024FE2601287F2F03330236FF37013E403F044023410649FF4AFF4BFF4DA04F0150185280580459045A045B045C105D115F01604062806440654043
:403E4000668068406A806C406D206E80801082018521861C88018A108E209202940595079608981D990C9D219F10A405A50AA608A81CA90CB003B110B30EB43CB501B72018
:403E8000B9A8BF10C036C102C542C6C3C70EC81FC9FFCAFFCBFFCDAFCE07CF01D018D401D604D804D904DA04DB04DC11DD31DF01E040E280E440E540E680E840EA80EC407A
:403EC000ED20EE8000040102020203080480051608200A200B800C100E0410141424150818841B121F4020082101228423082508272228202B082F02308431103204370245
:403F00003B043E8040044108472848444B044F205080522459095A80608076808080910892A4950296089704991F9C049E04A202A308A4C0A6A0A710AF14C0FFC24EC466E1
:403F4000CA16CC8ECE12D066D224D60BD801030805106A406B406C086E028F40C0C0DAC0DC60634088089340A408A601A910AA40AB08AF40D840EA20ECA0EE400A080F40E8
:403F8000A601C2608201A601AE04AF40E680EC5001240410050281028920C00FE204B104B410EA0C100E1101120A130108000F403D300F4032310F4061320F404C330F4066
:403FC00060340F4048350F406A360F4045370F400A400F400D410F4004420F4006430F4007450F4003460F4004600F40030405060708090A0B0C0E0F10111213141516170B
:4040000018191B1C1D1E1F2021222325262728292A2B2E2F3031323334350000EEDBC9B9AA9B8E82766B60564D443B332C241D17100A04000000000008008800000000002C
:40404000010000000800880000000000020000000800880000000000030000000800880000000000040000000800880000000000050000000800880000000000060000005B
:4040800008008800000000000700000008008800000000000000000028000000F9FF1F000000008A0100000028000000F9FF1F000000208A0200000028000000F9FF1F00E5
:4040C0000000408A0300000028000000F9FF1F000000608A0400000028000000F9FF1F000000808A0500000028000000F9FF1F000000A08A0600000028000000F9FF1F00CA
:404100000000C08A0700000028000000F9FF1F000000000A0800000028000000F9FF1F000000200A0900000028000000F9FF1F000000400A0A00000028000000F9FF1F0099
:404140000000600A0B00000028000000F9FF1F000000800A0C00000028000000F9FF1F000000A00A0D00000028000000F9FF1F000000C00A0E00000028000000F9FF1F00A9
:404180000000408B0F00000028000000F9FF1F000000400BFFFF0000FFCC0000FF990000FF330000FF000000B3006600990099006600B3003300CC001919B30000339900F5
:4041C00000409900006699000099990000CC990000E6660000FF000033FF000066FF000080FF000099FF0000B2FF0000CCFF0000E5FF000000000000000055000000AA00F8
:404200000000FF0055000000550055005500AA005500FF00AA000000AA005500AA00AA00AA00FF00FF000000FF005500FF00AA00FF00FF0000550000005555000055AA008F
:404240000055FF0055550000555555005555AA005555FF00AA550000AA555500AA55AA00AA55FF00FF550000FF555500FF55AA00FF55FF0000AA000000AA550000AAAA00FF
:4042800000AAFF0055AA000055AA550055AAAA0055AAFF00AAAA0000AAAA5500AAAAAA00AAAAFF00FFAA0000FFAA5500FFAAAA00FFAAFF0000FF000000FF550000FFAA006F
:4042C00000FFFF0055FF000055FF550055FFAA0055FFFF00AAFF0000AAFF5500AAFFAA00AAFFFF00FFFF0000FFFF5500FFFFAA00FFFFFF00FF800000FF008000FF00FF00DE
:404300008000FF000080FF0000FF8000FF0000002020200000002000000000100000000000000000000000000000000000000000000000000000FF000010F0000020E00072
:404340000030D0000040C0000050B0000060A00000709000008080000090700000A0600000B0500000C0400000D0300000E0200000FF0000000000000000005F00000007D8
:40438000000700147F147F14242A7F2A12231308646236495522500005030000001C2241000041221C00082A1C2A0808083E080800503000000808080808006060000020FD
:4043C000100804023E5149453E00427F400042615149462141454B311814127F1027454545393C4A49493001710905033649494936064949291E00363600000056360000B8
:404400000008142241141414141441221408000201510906324979413E7E1111117E7F494949363E414141227F4141221C7F494949417F090901013E414151327F0808081B
:404440007F00417F41002040413F017F081422417F404040407F0204027F7F0408107F3E4141413E7F090909063E4151215E7F09192946464949493101017F01013F40406C
:40448000403F1F2040201F7F2018207F63140814630304780403615149454300007F4141020408102041417F000004020102044040404040000102040020545454787F487B
:4044C0004444383844444420384444487F3854545418087E090102081454543C7F0804047800447D40002040443D00007F10284400417F40007C041804787C08040478383F
:40450000444444387C14141408081414187C7C080404084854545420043F4440203C4040207C1C2040201C3C4030403C44281028440C5050503C4464544C440008364100B1
:4045400000007F0000004136080008082A1C08081C2A0808742A00003429000034290000322900004C2A00004C2A00003E2A0000322900004C2A00003E2A00004C2A0000CB
:4045800032290000542A0000542A0000542A0000542C00004300232D302B2000686C4C00656667454647003031323334353637383941424344454600303132333435363736
:4045C000383961626364656600000000F8B5C046F8BC08BC9E46704735030000B90E0000F8B5C046F8BC08BC9E4670470D03000000460000C0000020A0000000A0010000F3
:4046000000000000020000008000000007000201010001000100000000030020010000000000204E409C000028000000005A6202F00000000404040000000000000000009B
:404640000000000000000000000000000000000000000000000000009445000000000000000000000000000000000000000000000000000000000000000000000000000061
:40468000000000000000000000000000000000000000000000000000F8000020000000000000000000000000000000000000000000000000000000000000000000000000E2
:4046C00000000000000000000000000000000000000000000000000000000000000000000000000000000000000000000000000000000000000000000000000000000000BA
:404700000000000000000000000000000000000000000000000000000000000000000000000000000000000000000000000000000000000000000000000000000000000079
:404740000000000000000000000000000000000000000000000000000000000000000000000000000000000000000000000000000000000000000000000000000000000039
:4047800000000000000000000000000000000000000000000000000000000000000000000000000000000000000000000000000000000000000000000000000000000000F9
:020000040003F7
:0200000490303A
:02000000C9EC49
:0200000490402A
:4000000000000000000000000000000000000000000000000000000000000000000000000000000000000000000000000000000000000000000000000000000000000000C0
:400040000000000000000000000000000000000000000000000000000000000000000000000000000000000000000000000000000000000000000000000000000000000080
:0200000490501A
:0C0000000002101111A000011026DB8C82
:0200000490600A
:0100000001FE
:00000001FF