:400000000080002011000000810E0000810E000010B500F055FFC04670B512222E4B1A60302001F065F92D4C8025ED05256000222B4B1A602B4B2C4A1A60802252002B4982
:400040000A602B4919602B482B4908602B4919602B490A602B4A1A60C02189002A4A11602A4A1A60E021C900294A1160294A1A60E0214901284A1160284A1A60C021490103
:40008000274A1160274A1A6082221206264B1A60264A274B1A604222264B1A607E32264B1A607F3A254B1A604323254A1360254A13604422244B1A600232244B1A60013A12
:4000C000234B1A602349082001F03AF8082001F021F8256070BDC046300010400C020B40000301400000014040FF00800803014042FF0080007F1A0600050140C0FF008029
:400100000403014041FF00800C03014043FF00801003014044FF00801803014046FF00801403014045FF008008010B404902060000010B405801014054010140500101409E
:400140003C0101402C0101402801014014010140080101406D15000010B572B60122434B1A7000240FE042486200131959000B00411889881A5AC31858880004104300F070
:400180003BFE0134E4B2012CEDD939490C313948183000F017FE384A384B1A60EE221202374B1A600823374A13603749374A1160374A136099231B04364A1360364A1360D6
:4001C000364A1360364A1360364A1360364A13600321364B1960364B1960364803783C22934314221343DBB20370334A107816230343DBB213700222304B1A603048314BC1
:4002000018607420304B1860902040022F4B1860C4202F4B18603B302E4B18602E482F4B186081202E4B1860D82000012D4B18606F202D4B18602D482D4B18602D4B1960F1
:400240002D492E4B196036232D490B602D482E4908602E490A6001212D4A11602D4A1360FFF7DAFE00F0DEFD10BDC0461C700F40503D000050410000AA000008000002405A
:4002800000030240000502409900EE00000602400007024000500F4010500F4020500F4040500F4050500F4070500F402000104000800F4001700F4000700F4000000440AE
:4002C0003100040008000440000104400801044018010440000204409024090008020440180204400803044000040440920409000804044000050440560200000805044067
:4003000000060440B14002000806044018060440000704400807044010B5064C2378002B07D1054B002B02D0044800E000BF0123237010BD58010020000000006C3A00009E
:40034000084B10B5002B03D00749084800E000BF07480368002B00D110BD064B002BFBD09847F9E7000000005C0100206C3A0000C00000200000000010B5802252018B4B0C
:400380001A608B4B1B78002B02D08A4801F054FE894B1B68864A52681A4200D17FE0844B1B78002B02D0854801F046FE0022844B1A70002001F0F4FE7D4B1B895B01814A69
:4003C000944663449A68120E23D19A68120CFF210A40012A03D09A68120C114211D19B681B0CDBB2724A9372012B0ED101F0BCF9734A6F4BDB7A5BB2584350800023536046
:4004000003E0714B00225A709A7001226C4B1A723BE09A68120E022A0ED19968090C6B4A51709968090A91709968D170DB681B0E13710023537128E09A68120E042A1DD179
:400440009A68120CD0B2624C60709968090ACAB2A2709968E170DB681B0E23710023637112020243564B02215B5E9A4202D00022534B5A600122524B1A7206E09B681B0E15
:40048000102B02D101224E4B5A72494B1B895B014C4A94466344196801220A431A60464B1A68434B9B891A4200D17EE0404B1B78002B02D0474801F0BFFD414C00232370A6
:4004C000002001F06DFE63895B013E4A944663449A68120E23D19A68120CFF210A40012A03D09A68120C114211D19B681B0CDBB22F4A9372012B0ED101F036F9304A2C4BEB
:40050000DB7A5BB2584350800023536003E02E4B00225A709A700122294B1A723BE09A68120E022A0ED19968090C284A51709968090A91709968D170DB681B0E13710023A8
:40054000537128E09A68120E042A1DD19A68120CD0B21F4C60709968090ACAB2A2709968E170DB681B0E23710023637112020243134B02215B5E9A4202D00022104B5A6031
:4005800001220F4B1A7206E09B681B0E102B02D101220B4B5A720A4B5B895B01094A94466344196801220A431A6010BD00002F40C40000208C3A000008002F40A03A0000C2
:4005C00074010020A0002F40FC010020AC02002064020020B03A000070B501F0E3FB040001F098F901F08EFD01F0FCF801F070F801F09EF90D491D2000F0A2FD62B60C48B2
:4006000001F0A4F80B4801F0B1FD0B4B1B78002B0AD001F09BFC094D22000949280002F001FE280001F008FD70BDC0467903000029090000C5080000C40000200002002010
:40064000C03A00008002044B1B695B01184302231843024B18607047740100206C020020F0B583B001F0F4FC040001F0F1FC062872D880005C4B1B589F4610225B4B1A6170
:4006800000205B495B4B18605960002573E01122564B1A6158485949564B18605960103A574BDA723132574B1A60263A564B1A60023A564B1A6001255DE012224B4B1A6193
:4006C0004D4853494B4B18605960022553E0474B13221A61123A1A7500204549454B18605960032547E0414A1423136101211175484849493F4A10605160424A13601E22E4
:40070000414B1A60143A414B1A60F5323C4BDA72042530E0354B15221A61143A1A75FE32374BDA723B483C49324B18605960CD3A344B1A600A3A344B1A601E3A334B1A60DC
:40074000052518E01622294B1A6100202849294B1860596006250EE0244A1A231361284B8021C90199818021090259600F2119810E2353810725072D0ED0214B5A68AA4040
:400780005A609A89AA409A81AAB219895118198116494B89D2184A810120FFF753FF184B1B78002B1ED0114F1C4E3B6922001C49300002F037FD300001F03EFC104B1B8951
:4007C0007A8900922A001749300002F02BFD300001F032FC3A7D1449300002F023FD300001F02AFC03B0F0BD703A0000740100200000F03F980200206666666666E62C40CC
:40080000C4000020A802002088020020F801002066660640F1F44A598638F63F00020020D43A0000FC3A00002C3B000070B504001F4B186045421F4B1B78002B0AD01E4BF0
:400840001B7D1E4E2A001E49300002F0EBFC300001F0F2FB0022184B5A75FF231B1BFF32FF32934222D801F04FF8002D0CDAC30703D5114B1B7D002B06D0002000F038FFC6
:40088000200000F0D5FE11E0002D0CDD830703D5094B1B7D002B06D0012000F029FF280000F0C6FE02E0002000F0C2FE70BDC04684020020C40000207401002000020020C4
:4008C000403B000010B501F0D9FB124B1B78002B04D002001049114802F0A4FC01220D4B9A730F4A537D0133DBB25375117801311170132B05D90020FFF798FF0122094B08
:400900005A71074B1B78042B02D9012001F048FC10BDC046C40000205C3B00000002002074010020AC02002010B50A4B1B78002B08D0094C1A220949200002F061FC2000B2
:4009400001F07AFB064B1868FFF770FF002000F015FF10BDC4000020000200207C3B000084020020F0B583B000F0FEFE02F0BCFB184B1A685B6801F0F1FD0022164B02F01E
:4009800003F902F07BFB00B2144B14221A70587080B2000A98700022DA701A71104801F017FA104B1B78022B11D10C4B1D785E789F7800F0D9FE0C4C0190009733002A002B
:4009C0000A49200002F02EFC200001F035FB03B0F0BDC04698020020000024408C0200206C020020C400002000020020983B000010B50D4B12221A7000225A709A70DA7073
:400A00001A710A4801F0E4F9094B1B78022B0AD1054B1A785B78074C0749200002F002FC200001F009FB10BD8C0200206C020020C4000020000200200C3C000070B505001E
:400A400002F052FB0B4B1A685B6802F09DF802F015FB0400084B1B78002B09D0074E03002A000749300002F0DDFB300001F0E4FA200070BD98020020C4000020000200204D
:400A8000603C000070B582B0040000F06DFE2D4BDB7A5BB2584302B2A41A631D0A2B0ED8284B1B78002B49D0274D22002749280002F0B8FB280001F0BFFA00203FE02449C7
:400AC0004B68E3184B60FA2149008B4201DD204B59601F4B59681F4B994202DA19001C4B59601B4B9969651A9C61164B1B78002B0CD0174B5B68144E0192009522001649D6
:400B0000300002F08FFB300001F096FA134B186860430A2101F036FC04000D4B5868104B1B6858430A2101F02DFC24180D4B186868430A2101F026FC201800E0002002B0C8
:400B400070BDC046C400002000020020783C0000740100200CFEFFFF803C0000A802002088020020F801002070B50400184B1B78002B09D0174B1A7A174D1849280002F0AA
:400B800051FB280001F058FA2000FFF757FFFFF779FF04000E4B1B78002B08D00E4D02000F49280002F03EFB280001F045FA094B187F844202DDFFF739FE08E04042844264
:400BC00002DAFFF733FE02E02000FFF72FFE70BDC40000207401002000020020A03C0000B03C000010B582B0002001F0D9FA002001F0CAFA634A012313709370624A022167
:400C000011709370614A013111709370604B05229A7100245C71DC715E4ADA601C71002001F0BEFA002001F0AFFAFFF7D5FCFFF717FD594B1C600020FFF7F8FD012001F0B4
:400C4000AFFA012001F0A0FA544B1B7B002BFBD1534B5979002934D1524B9A7A002A1FD11B78002B0BD04E4B5A789B784E4C00914E49200002F0D6FA200001F0DDF9484B55
:400C800001225A719B78DB0704D5454B5878FFF7CDFD16E0424B58784042FFF7C7FD10E0394B00219970023159703E4B1B78002B07D03D4C3E49200002F0B4FA200001F030
:400CC000BBF9384B9A7A012A20D11B78002B0DD0384B5A78DB7832494979334C00913649200002F09FFA200001F0A6F92B4A00211172304BD87810775160987800025B7822
:400D0000184300B25080FFF72FFF14E0244B5B79002B10D11C4B0021997004315970214B1B78002B07D0204C2449200002F07AFA200001F081F91B4B9B7A012B04D901234D
:400D40001C4A5371164A5371164B9B7B002B0DD0144B1B78002B04D014221949124802F04FFAFFF7FFFD00220E4B9A730B4B5B7A002B00D168E7FFF73BFE0022074B5A7229
:400D800062E7C046A0020020A4020020FC0100206C0200208C0200208402002074010020AC020020C400002000020020BC3C0000D83C000064020020FC3C0000183D0000D5
:400DC0003C3D0000F0B50025002711E0BB00C658F3B2FF22964308E06A008A181478A419527822700135013BDBB2002BF4D101370F2FEBD9F0BDC04610B50A00002102F0C9
:400E000008FA10BD064B1B68002803D080221206134301E05B005B08014A13607047C04680033A4010B580231B060C4A136003220B490A600B480C4908600C490A600C4A93
:400E4000136081230B4A13600B4A136000220B4B1A600120FFF7D6FF10BDC046000030403000304008402000800030403000314000003A4000033A4040033A40000E3F40D0
:400E800010B502F091F903680C2B00D1FEE7FEE710B50300084A1068C318084A9A1A802A02DC054A136005E002F07EF90C2303600120404210BDC046D4000020B8020020D3
:400EC00070B50F4E0F4D13E029686B68AC68002202E001C901C30432A242FAD1E868002202E0002102C304328242FAD11035013E002EE9D102F05EF9FFF774FEFEE7C0462B
:400F0000010000002C44000010B50E4A136801218B43136000230AE0032B03D89A000A49505800E009489900094A885001332F2BF2D9FFF711F9034A116801230B431360A1
:400F400010BDC0460000104000000000810E000000000020024A1168024B0B401360704700002240FFFFFFBF034B18688023DB05184000D0012070470000224030B52D4BEA
:400F80001A783F231340042B01D9012000E0002000230AE0284A12683F210A402749C95C8A4201D1033303E001332D2BF2D9032323490A680124A2430A60224A12682249B1
:400FC0000A6000280FD021490D681F4C65601F24A2431F4C247822431A4C22601D4A1278D2B20A6005E01F218A4317390A4315490A60302B0BD1002803D0174B1B78DBB20B
:4010000002E0164B1B78DBB2154A13600CE0182B0AD1002803D0134B1B78DBB202E0124B1B78DBB20E4A1360104A116802230B43136030BD00F3FF0F2CFF0B40A8410000C8
:4010400050000C4034FF0B409801002020FF0B40C0F1FF0FC1F1FF0FC3F1FF0F3FF3FF0F28FF0B40C2F1FF0F3EF3FF0F24002C4030B51A4B1A783F231340042B01D90120F5
:4010800000E0002000230AE0154A12683F210A401449C95C8A4201D1033303E001332D2BF2D9032310490A680224A2430A600F4C21681F2291430E4D2D682A400A43226088
:4010C000002803D00A4A51680A4A11600A4A944663441B78DBB2094A136030BD00F3FF0F2CFF0B40A841000024002C4034FF0B409801002020FF0B404DF3FF0F28FF0B402A
:40110000034B1B680220184000D001207047C04624002C401F2318401E3B8340014A13607047C04600E100E01F2318401E3B8340014A13607047C04680E100E001BE70474C
:4011400070B504000D001F2802D90020FFF7F6FF1034A40080239B059C4664442068256070BDC04670B504000E00032902D90020FFF7E4FF1F2C02D90020FFF7DFFF03259E
:401180002540ED00063501F020F8A408A400074B9C46644421680323AB4099430B003100A9401943216001F014F870BD00E400E010B5040006E0084B586800F0FDFF074B07
:4011C0009C46644480231B029C42F4D8024B9868604300F0F1FF10BDD80000200080FFFF30B583B000F06CF900285FD000F0EDFF04002F4A116801230B43136000230AE060
:401200002C4A12683F210A402B49C95C8A4201D1033303E001332D2BF2D90323274A1268D20606D1254802681F218A4313390A430260234A1168234A0A4023495943802089
:40124000C00184466144C90B01394905490D0A43A021490311430800192B02D81B4B1A430EE01B4A9A1812781A3B1349C9183023CB5CD318FF2B00D9FF239B0502001A434B
:401280000F4B1A60134D2B680193302000F0A4FF114A13688021C9050B4313601420FFF787FF019B2B60200000F093FF03B030BD50000C402CFF0B40A841000034FF0B4058
:4012C0000800224000F800C040420F000000D43F4DF3FF0F300010400000224010B5034B1B7B584300F068FF10BDC046D8000020F0B55F4656464D464446F0B483B00400B4
:4013000000F063FF0190FFF72FFE002804D0FFF721FE01239A4601E000239A46FFF7F0FE002808D0182C01D0302C07D1FFF7A0FE01239B4604E000239B4601E000239B461B
:40134000E61E2D2E74D8464B1B78DBB29C4208D8444B1B78DBB29946434B1B78DBB2984631E0424B1B78DBB29C4208D8404B1B78DBB299463F4B1B78DBB2984623E03E4B1F
:401380001B78DBB29C4208D83C4B1B78DBB299463B4B1B78DBB2984615E03A4B1B78DBB29C4208D8384B1B78DBB29946374B1B78DBB2984607E0364B1B78DBB29946354B04
:4013C0001B78DBB29846344B9F5D2F2F09D92A2C07D91922314B1A60052000F0EDFE192503E02E4B1D683F231D40BD4206D92A4B9A5D2A4B1A60052000F0DEFE254B9C4673
:4014000064442378DBB2264A1360264B4A461A60254B42461A600520FFF760FFBD420AD21D4B9A5D1D4B1A60052000F0C5FE02E00020FFF783FE5346012B01D1FFF7D0FECA
:401440005B46012B01D1FFF799FD019800F0C1FE03B03CBC90469946A246AB46F0BDC04640F3FF0F41F3FF0F42F3FF0F43F3FF0F44F3FF0F45F3FF0F46F3FF0F47F3FF0FE9
:4014800048F3FF0F49F3FF0F4AF3FF0F4BF3FF0F4CF3FF0F4DF3FF0FA84100002CFF0B4028FF0B401CFF0B4020FF0B40034B1868C0231B02184000D00120704700010B40AC
:4014C000034B1B68002B01DA012000E0002070470000224010B500F078FE044A1368C02109020B43136000F074FE10BD00010B4010B500F06AFE08490A68084B1A4080248E
:40150000E40122430A600A6813408022120213430B6000F05EFE10BD00010B40FF3FFFFF70B5050000F051FE0400FFF7BFFF002803D0FFF7DDFF012100E000210848284051
:40154000084A1568084B2B40184310601368012901D1FFF7BFFF200000F03BFE70BDC0460404040010020B40FBFBFBFF10B5244B1B685B0715D5234B5B685B070ED5224B2D
:40158000596A042001401F4C62688A4362605A6A82435A629B69002B00D098470420FFF7BFFF174B1B685B0518D5164B5B685B0510D5154B596A8022D200114011484268BE
:4015C0008A434260596A114A0A405A62DB69002B00D098478020C000FFF7A2FF084B1B685B030CD5074B5B685B0304D5064B1B6A002B00D098478020C002FFF791FF10BD7D
:4016000010020B40EC000020B8010020FFFBFFFF0004000C014B18607047C046080120400004000C014B18607047C046140120400004000C014B18607047C0460C01204072
:4016400070B504000D0000F0C0FDAC40024B1C6000F0BFFD70BDC0460800204010B500F0B4FD064A116801230B43136000F0B1FD18210120FFF7E4FF10BDC0460000204073
:40168000014B18607047C0463801204010B50D4C8023DB042360236823600020FFF7B8FF236823600C22084B1A600120FFF7E8FF3122064B1A60FF20FFF7B2FF0020FFF711
:4016C000B7FF10BD00012040240120402801204010B5064B1B78002B04D1FFF7D7FF0122024B1A70FFF7BAFF10BDC046E001002004490A68D2B202239A43400018401043D6
:401700000860704700070440014B18647047C0460000002010B5040000F057FD044A1368C0218B43A4011C43146000F052FD10BD00E400E00122014B1A60704700E100E06C
:401740000122014B1A60704780E100E010B50400FFF7F6FF2000FFF7D7FF0320FFF7DAFFFFF7E8FF10BDC04610B500F06BF8024B9C46604400B210BD0080FFFF10B5002871
:4017800005DB80B2054B9C46604480B203E0034B9C46604480B200F04FF810BD0080FFFF024B18780F2318407047C04661000F40014B18707047C04681000F4010B50F207B
:4017C000FFF7F6FFFFF7ECFF00F0FFFC044A117810230B43DBB2137000F0FBFC10BDC04691000F4010B500F07FF88020000200F023F8054B1B78002B02D10122024B1A707C
:40180000FFF7DCFF10BDC046E1010020034A117880235B420B43DBB21370704773000F40014B18707047C04682000F40014B1878C0B2704762000F40014B18807047C0465C
:4018400004100F40024B1B78024B188880B2704702000F4084100F40014B188880B2704784100F40014B18807047C04644100F40014B18807047C04664100F4010B501E015
:40188000FFF7EAFFFFF7D2FF4306F9D410BDC04610B5134B1A7807218A431A701A7804398A431A70FFF7EAFF802424022000FFF7D9FF2000FFF7C0FF0020FFF7B1FFFFF717
:4018C000B5FF2000FFF7D4FF00F07FFC054A117810230B43DBB2137000F07BFC10BDC04673000F4092000F4010B5064B1B78002B04D1FFF7CDFF0122024B1A70FFF786FFBA
:4019000010BDC046E2010020014B1878C0B2704765000F4010B500F058FC044A117810230B43DBB2137000F054FC10BD95000F40054B1A6801210A431A601B68194201D14B
:40194000012000E00020704704002F4010B50E4A0E4B1A60FFF7ECFF1D20FFF7DBFB0C4A116801230B431360F0231B0100E0013B002B03D0064A1268D207F8D5002B01D1D8
:40198000012000E0002010BD0110000000002F4010002F4003B2002B0DDB094A1168094B0B400004034313601268074B1340984203D0012002E0022000E000207047C0469C
:4019C00014002F40FFFF00800000FF7F002809D10C4B19680C4A0A401A601B68DB040CD501300DE0074B1A68802149010A431A601B680B4203D1012002E0002000E00020C6
:401A00007047C04614002F40FFEFFFFF70B5841EE4B20D2C35D88C1EE4B2052C03D9002B31D1012931D1032A31D8904231D3914231D31C4D2C68240AE4B20F26B4432043FE
:401A40002E68194C3440000204432C602C686040F0242401204220D1002B00D002234901C9B29200D2B2114319430E4A1368EE2083430B4313601368034099420FD0ED38B2
:401A80000EE002200CE002200AE0022008E0022006E0022004E0022002E0012000E0002070BDC04614002F40FFF0FFFF002809D10B4B1A6810218A431A601B6819420BD033
:401AC00001300CE0064B1A6810210A431A601B68194203D1012002E0002000E00020704714002F40002809D10B4B1A6801218A431A601B6819420BD001300CE0064B1A6803
:401B000001210A431A601B68194203D1012002E0002000E00020704714002F40054B18601B681B041B0C984201D0012000E000207047C04604002F4010B503785B01204A1A
:401B4000944663441F4A41680A431A6003785B01634419681C4A11401C4A44682240914224D182681A6103785B0163441A6981688A421DD1C2685A6103785B0163445A69EA
:401B8000C1688A4216D1012252429A6103785B0163449A6901320FD10022DA6103785B016344DB69002B09D0012008E0012006E0012004E0012002E0012000E0002010BDDA
:401BC000A0002F40800080007F007F007FFF7FFF10B503781B01104A944663440F4A41680A431A6003781B01634419680C4A11400C4A4468224091420AD182685A60037845
:401C00001B0163445A6883689A4203D0012002E0012000E0002010BD20002F4008008000F7007F00F7FF7FFF70B500240AE063001B199800104B1818FFF7CAFF002805D1E9
:401C40000134E4B2072CF2D9002500E00125002D0BD00FE0230108486030C018FFF76CFF002806D10134E4B200E000240F2CF1D900E00125280070BDF0410000002809D1DB
:401C80000C4B19680C4A0A401A601B689B040CD501300DE0074B1A68802189010A431A601B680B4203D1012002E0002000E000207047C04614002F40FFDFFFFF10B5802201
:401CC0001206344B1A60344A136801218B431360C8231B0200E0013B002B03D02E4A1268D207F8D4002B4AD01D20FFF71DFA2B491D20FFF725FA03211D20FFF733FA1320B2
:401D0000FFF748FE00281AD1FFF760FE002818D1FFF7B4FF002816D10023012201210C30FFF774FE002810D10130FFF7BFFE00280DD1FFF7D7FE00280BD001230AE0012338
:401D400008E0012306E0012304E0012302E0012300E00023002B14D1FFF766FF002812D10F48FFF7DBFE00280FD10B4B1A6807218A431A601B68194209D0013008E0012060
:401D800006E0012004E0012002E0012000E0002010BDC04600042F4010002F40CD1D00000110000010B5084B1B78002B02D1FFF785FF00E00020002804D10122024B1A703A
:401DC000FFF7C4FD10BDC046E30100207047C046F8B54F464646C0B4040001200023984691E04C4B1B6832041A427AD12379002B01D1002701E08027BF036379002B07D1DF
:401E00002B01454A94466344226852055A6009E080235B031F432B013F4A944663442268D2005A60A379072B03D81B041F43B94603E080231B031F43B946E379002B03D02B
:401E400004234A461A43914600232AE0032B13D92801324A94466044026894465907CA1AD1003831FF228A4067469743E268D25C8A403A43026012E02801274A94466044AE
:401E8000826894465907CA1AD1001831FF228A4067469743E268D25C8A403A4382600133DBB2A279934201D2072BCFD91D20FFF73BF92B01184A94466344194A4F461743C7
:401EC0001F60227A002A04D0196803220A431A6003E0196801220A431A601D20FFF71AF900207600F6B2002807D00135EDB201E001260025072D00D873E7002806D043469C
:401F00000133DBB298464346022BF1D90CBC90469946F8BD08002F4020002F402C002F400800800010B500F075F810BD10B500F01DF810BD10B5044A1368802109060B4315
:401F40001360FFF7EFFF10BD0000274010B5064B1B78002B04D1FFF7E9FF0122024B1A70FFF7E8FF10BDC046E4010020154A164B1A600023154A13601549164A1160164AE2
:401F800016490A6007201649086016490B6006381549086015490A60154A13600421154A1160154A1360154A1360154A1360154A1360154A1360154A13601268144B1A80AE
:401FC0007047C0460B000002000027404000274001000A00480027400700008000032740040327401003274044002740000227400402274050002740880E2740C80E274004
:40200000480F2740080F2740C80F2740880F2740E601002005490B68F0229343603A13430B60034B1A88034B1A60704700060240E6010020880F274070B50500002402E031
:4020400000F008F90134285D0028F9D170BDC046014B1878C0B2704763000F40034A117880235B420B43DBB21370704775000F40014B18707047C04686000F40014B1878A8
:40208000C0B2704766000F4010B50100014800F0CDF810BD24000F4010B5024800F0D0F810BDC04644000F4010B50100014800F0BDF810BD04000F4010B501E0FFF7ECFFB6
:4020C000FFF7DCFF0307F9D410BDC04610B50B4C2000FFF7D9FF2000FFF7E6FF00F075F8074A117810230B43DBB2137000F071F8FFF7E2FF0120FFF7BBFF10BD3F420F003A
:4021000096000F4010B5064B1B78002B04D1FFF7DDFF0122024B1A70FFF7A0FF10BDC046E8010020014B58647047C0460000002010B5040000F049F8044A1168044B0B4094
:40214000A4031C43146000F044F810BD00E400E0FF3FFFFF0222014B1A60704700E100E00222014B1A60704780E100E010B50400FFF7F6FF2000FFF7D5FF0320FFF7D8FF1A
:40218000FFF7E8FF10BDC04604490A68D2B210239A43000118401043086070470001044004490A68D2B220239A4340011840104308607047000104400230800803D0013893
:4021C000FDD1C046C046C0467047EFF3108072B6704780F31088704770B50400FFF7F5FF0500102C05D8104A136803218B43136016E0202C07D80C490B6803229343023AAA
:4022000013430B600CE0302C07D807490B6803229343013A13430B6002E00020FEF78EFF2800FFF7D6FF70BD30001040CBB203700B0ADBB24370090CC9B281707047C04655
:402240000378427812021A4383781B041A4310007047C046044B1B681F221340082BF9D0024B18607047C0460802274040022740002243088B4274D303098B425FD3030ADD
:402280008B4244D3030B8B4228D3030C8B420DD3FF22090212BA030C8B4202D31212090265D0030B8B4219D300E0090AC30B8B4201D3CB03C01A5241830B8B4201D38B037A
:4022C000C01A5241430B8B4201D34B03C01A5241030B8B4201D30B03C01A5241C30A8B4201D3CB02C01A5241830A8B4201D38B02C01A5241430A8B4201D34B02C01A524125
:40230000030A8B4201D30B02C01A5241CDD2C3098B4201D3CB01C01A524183098B4201D38B01C01A524143098B4201D34B01C01A524103098B4201D30B01C01A5241C30873
:402340008B4201D3CB00C01A524183088B4201D38B00C01A524143088B4201D34B00C01A5241411A00D20146524110467047FFE701B5002000F0F0F802BDC0460029F7D05F
:4023800076E7704703460B437FD4002243088B4274D303098B425FD3030A8B4244D3030B8B4228D3030C8B420DD3FF22090212BA030C8B4202D31212090265D0030B8B4228
:4023C00019D300E0090AC30B8B4201D3CB03C01A5241830B8B4201D38B03C01A5241430B8B4201D34B03C01A5241030B8B4201D30B03C01A5241C30A8B4201D3CB02C01A41
:402400005241830A8B4201D38B02C01A5241430A8B4201D34B02C01A5241030A8B4201D30B02C01A5241CDD2C3098B4201D3CB01C01A524183098B4201D38B01C01A5241A6
:4024400043098B4201D34B01C01A524103098B4201D30B01C01A5241C3088B4201D3CB00C01A524183088B4201D38B00C01A524143088B4201D34B00C01A5241411A00D2F7
:4024800001465241104670475DE0CA0F00D04942031000D34042534000229C4603098B422DD3030A8B4212D3FC22890112BA030A8B420CD3890192118B4208D389019211FE
:4024C0008B4204D389013AD0921100E08909C3098B4201D3CB01C01A524183098B4201D38B01C01A524143098B4201D34B01C01A524103098B4201D30B01C01A5241C3082C
:402500008B4201D3CB00C01A524183088B4201D38B00C01A5241D9D243088B4201D34B00C01A5241411A00D20146634652415B10104601D34042002B00D54942704763469D
:402540005B1000D3404201B5002000F005F802BD0029F8D016E770477047C046F0B556464D4644465F46F0B41D000E034C00CB0F87B0070092468146360B640D98466AD015
:402580006D4B9C4235D08022430F12041343F6001E43C3009946694B00279C460023644402932B0368001B0BED0F51469B46400D009500D178E0604B98426CD05B46DA0093
:4025C0004B0F802109040B4313439B465346D9005A4B9C46002360444246201A6A40924601901F430F2F00D9B0E05548BF00C0598746374300D088E0002399460233082756
:4026000000260293CDE74346B34649460093029B009A9246022B00D0BFE1002153460122002689461A40444B002136030C0D2405360B2643434C1B0526401E437600D20715
:40264000760816434846310007B03CBC90469946A246AB46F0BD330003434FD0002E00D1BCE1300000F082FD03000B3B1C2B00DDADE11D220100D31A08393A008F408E40C7
:40268000DA40B9461643304B00279C46002360444442029385E753465A4613432CD1002300219B46023397E70B4320D05B46002B00D19EE1584600F059FD03000B3B1C2BA4
:4026C00000DD8FE102005946083A91408B461D21CB1A5146D9400B0059460B4351469B469140194B9C4660444042002374E7002300219B4601336FE703236DE700239946DF
:4027000001330427002602934BE703230C27029347E70122D51A382D00DCB0E153461A4000210023002689467EE700238026994600223603004B77E7FF07000001FCFFFF0F
:4027400050430000FFFF0F80F30300005E4500D972E100D16DE1019B4D46013B01930023340002935B461E020B0E1E430B020393330C994633041B0C494620000093FFF7D8
:4027800077FD009B370043430600494620009846FFF7F4FD2C0C09040C43A04509D9E419731EA74200D95CE1A04500D859E1023EE4194346E41A49462000FFF759FD030032
:4027C000009A80465343494620009B46FFF7D6FD2A040904120C0A4393450DD94346D219013B974200D93AE1934500D837E102235B429C46D219E0445B46D21A43463604DE
:4028000033439B460399180C0B0C1D00059309045B46090C0C001B041B0C4443049159436B4368431B190D0CEB189C4203D980246402A44660441C0C09041B04090C20184C
:402840005D18824200D2DEE000D1D7E0161A029B9C465D1BAC459B415B42F61AB74200D106E149463000FFF703FD009B04004343494630009846FFF781FD2E0C09040E4332
:40288000B04509D9F619631EB74200D9F3E0B04500D8F0E0023CF6194346F31A494618000293FFF7E5FC009B06004343494602989846FFF763FD2D0409042D0C0D43A84541
:4028C00009D9ED19731EAF4200D9D6E0A84500D8D3E0023EED192404210043463143049E059A3000ED1A0B040C0C1B0C58436643534354439A19030C9B189E4203D98022D1
:402900005202944664441A0C00041B04000C14191B18A54250D34DD001231943964A019B94466344002B00DCF3E64A0709D00F220A40042A05D00A1D8A42894149428B44C9
:4029400011005A46D20108D55A468C4B1A4093468022D2009446019B6344894A934200DD5BE65A46C908500708435602514601225B058146360B5B0D0A4055E680231B03BA
:402980001E4211D05A461A420ED15E461E433603360B2A0089467B4B46E6032B00D1E1E0012BBBD11A40BBE61E433603360B4246744B39E6002BB1D07D194A1EAF4252D917
:4029C0001100A542A8D1039A9A42A5D1A6E703003E00283B9E400023994654E600F0C6FB203041E603005246283B9A400021934677E6504600F0BAFB20305EE6029B002643
:402A0000AB4200D323E7039E0299B44661448846B045B6415B467642F619B218013B0291974213D290424FD800D18EE0161A9B460DE7894500D28EE674084B46F6073500E8
:402A40005B081D434B46DB0702938BE69742EDD10399029CA142E5D93E1A9B46F7E69846CAE61E00A5E6AC423ED874D0110053E70121494252E71C000EE71E002BE71F2D55
:402A80003CDC20230A0058465B1B9840EA4099400243481E81415E461143EE404B0709D00F230B40042B05D00B00191D99429B415B42F61833023CD55346012200211A4063
:402AC000002601238946AFE502235B429C46039CE344A446029B63449846A045B6417642F6190293B218B1E603988A1E41008142B6417642F619AD19039161E71F2252429E
:402B0000D31A5A46DA401300202D29D040225846551BA8400143481E814107200B4318400026002809D00F2200261A401900042ABBD10B0070077602360BDB080343994616
:402B4000012253461A4000236EE502998D42BBD89B4600267BE603989842C5D3110032E70020D7E780265B4636031E433603360B009A8946034B57E5FF030000FFFFFFFE04
:402B8000FE070000FF070000F0B55F4656464D464446F0B40D0399464E002B0B87B00700924680469B46760DCC0F002E69D06D4B9E4235D05B468022DD001204430F1343F3
:402BC0002B439B46C3009846674B00279C460023664401934A4615035000D20F53462D0B400D914600D176E05E4A90426CD080225B0F120413435C4AED0094461D43534640
:402C00000022DB00604449463618701C6140029017430F2F00D9AFE05448BF00C759BF465B461F4300D088E000239B469846023308270193CEE74946022A6AD0032A00D11A
:402C400009E2012A00D0BBE111400022002300259046CCB200212D030A0D12052D0B1543434A1B0515401D436D00E4076D0825434046290007B03CBC90469946A246AB4631
:402C8000F0BD034352D05B46002B00D18AE1584600F06CFA03000B3B1C2B00DD7BE11D22D31A3A0001005D46DA4008398D4013008F402B439B46B8462E4B00279C46002334
:402CC00060444642019385E752462A432CD100250023022297E752462A4321D0002D00D154E1280000F042FA03000B3B1C2B00DD46E11D21CB1A51460200D9405346083AFB
:402D0000954093400D431B4A944660444042002279E7012400220C40124B0025904699E70025002301226EE703226CE700239B4698460133042701934CE703230C2701931C
:402D400048E700238025984600242D03054B81E75D464346019A6FE75D4643462100019A6AE7C046FF07000001FCFFFF90430000FFFF0F80F30300004246120C91461A0C1C
:402D80009446424617044A461B041B0C5A43604690464A4642431000039262461C003F0C7A437C4342440192220C9246019A5244904506D98246802040028046C244504652
:402DC0000390100C049048462404240C1204121905922A0C2D042D0C68432C00824648467C4350438146200C8046574357444744BA4503D9802040028046C144380C3F042B
:402E0000B84648442404240C01900498A044404404905846000C814658460404200C8246070048465F434C464343604660436446834650464443380C8446E4186444A342BD
:402E400003D980235B029C46E34448463F04230C3F0C2404E419574668436F4384464D46504655434243380C814662444A445B44944503D9802040028446654403983F042D
:402E8000834604983F0C8446E344C345804140428246100484460198674484466744A344BC46A345A4419946D44464428742BF41D4458041E144A04699459B417F424042C9
:402EC000C8440743120CBA18A045A4415F423B0064422343D71843467D19DB0D6D021D435B465A02059B1A43531E9A415B46DB0D1A4343465B021343EA0107D501225C085F
:402F000013402343EA07029E13436D08574AB218002A4BDD580709D00F201840042805D0181D98429B415B42ED180300E80104D54F4A15408022D200B2184E48824200DD4A
:402F4000E7E60124DB08680718436D02530580462D0B5B0D0C407DE6802259461203114208D0154206D115432D0398462D0B4C46414B6FE65D4615432D032D0B3E4B69E6DB
:402F800003005546283B9D400023BCE6504600F0EDF82030A8E60300283B9F400023BB46984689E600F0E2F8203073E60124A61A382E07DD00220C4000230025904649E612
:402FC000029EA3E71F2E20DC20222C001800921BF040944093400443581E83411C43F540630709D00F232340042B05D023001C1D9C4292415242AD182B021FD50124002295
:403000000C4001230025904624E61F202C004042821AD440202E1CD04022961BB5402B43581E83410720234318400025002809D00F2200251A401C00042AD8D12300680754
:403040006D022D0B0124DB08034398460C40002300E60025E3E780220124120315432D0398462D0B0C40044BF4E5C046FF030000FFFFFFFEFE070000FF0700000B0330B54A
:40308000134D1A0B4B005B0DC90F0024AB4211DD104CA34210DC8024640322430E4CE41A1F2C0CDD0D48C31ADA4013005C42002900D11C00200030BD094BCC18FAE7E0407F
:4030C000084CA44663449A4013000343EEE7C046FE0300001D0400003304000013040000FFFFFF7FEDFBFFFF70B5002830D0C317C4185C40C50F200000F038F8174B184A94
:403100001B1AD21A1F2A18DD164AD21A9440002224035B05240B5B0D0021100024030A0D1205240B1443104A1B0514401C436400ED0764082C43210070BD210091400A001A
:403140000B21081AC4405B052403240B5B0DE3E70025002300240022DEE7C0461E0400003304000013040000FFFF0F801C2101231B04984201D3000C10391B0A984201D369
:40318000000A08391B09984201D30009043902A2105C40187047C04604030202010101010000000000000000014B18687047C046540100200E4B70B500251E000D4CE41A62
:4031C000A410A54204D0AB00F35898470135F8E701F01AF9084B00251E00084CE41AA410A54204D0AB00F35898470135F8E770BD1444000014440000144400001C4400009C
:40320000002310B59A4203D0CC5CC4540133F9E710BD03008218934202D019700133FAE7704700000EB410B59DB002A9029008610B48822488604861012040421FABC88183
:40324000084804CBA400006801938C8100F06EF80023029A13701DB010BC08BC03B01847FFFFFF7F54010020F0B58E6885B007000C00039201939E4243D890238A89DB00E2
:403280001A423ED003250969236801985B1A029363695D43EB0F5D19029B6D1001331B18AB4200D91D00530510D52900380000F037FB061E14D0029A2169FFF7A1FFA289ED
:4032C000194B134080221343A38112E02A00380000F086FB061E0CD12169380000F0D4FA0C23402201203B60A38940421343A38117E0029B2661F61826606561019EED1A25
:40330000A560019BB34200D21E0032000399206800F0A5FA0020A3689B1BA36023689E19266005B0F0BDC0467FFBFFFFF0B59FB0029005938B890F0016001B0610D50B69C5
:40334000002B0DD1402100F0EBFA38603861002804D10C23029A01381360D8E040237B61002306AD6B6120336B761033AB7634002378002B03D1A31B049312D003E0252B00
:40338000F9D00134F4E7A31B320039000298FFF76BFF431C00D1B4E06A69049B944663446B612378002B00D1ABE00122002352426A6002A95432521801342B60EB60AB6017
:4033C0001370AB65534E21780522300000F03CFA002807D00123801B83402A68013413432B60EFE72B68DA0604D55322202102A8121811701A0704D553222B2102A812189E
:40340000117022782A2A03D0099B00200A210EE0059A111D12680591002A01DB099204E05242EA60022213432B6001340BE02278303A092A04D84B4301349B180120F6E781
:40344000002800D0099323782E2B1ED163782A2B0AD1059B02341A1D1B680592002B01DA01235B42079310E000230A201A0001346B6021783039092904D8424301345218B7
:403480000123F6E7002B00D00792234E21780322300000F0D9F9002806D04023801B83402A68013413432B60217806221B48661C297600F0C9F9002812D0194B002B06D188
:4034C0000722059B073393430833059314E005AB00933A00134B2900029800E000BF07E005AB00933A000F4B2900029800F08AF80390039B013304D06B69039A9B186B61D3
:4035000035E7BB890B985B0601D5012040421FB0F0BDC046D2430000D8430000DC4300000000000069320000F7B5170001938A680B6900900C00934200DA130022003B606A
:4035400043321278002A01D001333B6023689B0602D53B6802333B60062523681D401ED0230043331B785A1E9341226892061CD53020E1184331087021005A1C45310978BD
:40358000A2184332023311700FE022000123193201990098089EB047431C0ED00135E3683A689B1A9D42F0DBDAE72200019943320098089DA847431C02D10120404220E025
:4035C00006232068E1683A6803400025042B03D18D1AEB43DB171D40A3682269934201DD9B1AED180027BD420AD0220001231A3201990098089EB047431CDED00137F2E71E
:403600000020FEBDF0B58BB006920A0043320793059004920A7E0C00109B6E2A00D1ABE011D8632A22D009D8002A00D1B5E0582A00D0C5E045310A70814A4FE0642A1DD08B
:40364000692A1BD0BCE0732A00D1AAE009D86F2A29D0702A00D0B3E0202209680A43226037E0752A1FD0782A33D0A9E00E001A684236111D196013683370A4E021681A6817
:40368000080606D4490604D5111D19600023D55E02E0111D19601568002D3BDA2D23049A6D42137036E021681A68080606D4490604D51568111D1960ADB202E0111D196058
:4036C00015685F4B227E039308276F2A1DD00A271BE022007821453211705A4A19680392081D226818600D68100602D4500600D5ADB2D30702D520231A4322601027002DD6
:4037000003D1202322689A4322602300002243331A7002E00A274A4B03936368A360002B09DB0422216891432160002D05D1049E002B11D07BE0002D79D0049E28003900A0
:40374000FEF71CFE039B013E5B5C280033703900FEF78EFD051EF1D1082F09D12368DB0706D563682269934202DC3023013E3370049B9B1B23612BE009681A68080607D4E6
:40378000490605D5111D19601368A28A1A8004E0111D1960136862691A600023049E236116E01A68111D1960166800216268300000F04AF8002801D0801B6060636803E078
:4037C000260042363270012323610023049A1370079B09AA00932100069B0598FFF7A4FE431C02D10120404227E02369320006990598079DA847431CF4D0236800259B07E0
:403800000FD4099BE068984217DA180015E022000123193206990598079EB047431CE1D00135E368099A9B1A9D42F0DBE9E72600039B42361B7833708EE70BB0F0BDC046C0
:40384000E3430000F4430000C9B28218904204D003788B4202D00130F8E70020704710B5884202D98B18984201D3002305E09B1A013A08D3995C8154FAE7934203D0CC5C26
:40388000C4540133F9E710BD70B50500002944D00C1F2368002B00DAE418280000F0D8F81E4A13681100002B02D16360146031E0A3420DD92268A018834203D118685B68E6
:4038C0008218226063600C6024E0A24203D813005A68002AF9D11E689819A0420BD12168711858181960824214D110685268411819605A600EE0A04202D90C232B6009E04C
:4039000021686018824203D1106852684118216062605C60280000F09CF870BDF0010020032370B5CD1C9D43083506000C2D01D20C2501E0002D01DBA94202D90C23336074
:4039400048E0300000F084F8234B1C681A002100002913D00B685B1B0DD40B2B02D90B60CC181EE08C4202D1636813601AE04B6863600C0016E00C004968E9E7174C236856
:40398000002B03D1300000F051F820602900300000F04CF8431C18D00323C41C9C43A0420DD12560300000F054F8200007220B30231D9043C31A0ED05A42E2500BE0211A6F
:4039C000300000F033F8431CEBD10C233000336000F03FF8002070BDF0010020EC010020F8B506000C001500002904D11100FFF797FF040018E0002A03D1FFF745FF2C000E
:403A000012E000F027F885420ED929003000FFF787FF071E07D021002A00FFF7F1FB21003000FFF731FF3C002000F8BD002370B5064C050008002360FDF72AFA431C03D1DC
:403A40002368002B00D02B6070BDC046B4020020704770470B1F1A68101F002A04DA891804390B68D018043870470000000000007A0600008E060000BA060000CE06000007
:403A8000E606000014070000440700000A2043616E207278207472696767657265640A0050302072656369657665640A0000000050312072656369657665640A0A0000009A
:403AC00043414E5F537461727428293A202025750D0A000043414E206469702073657474696E673A20202578204D6573736167652049443A20256C640D0A000043616E207D
:403B000073686966743A20256420202050304D61696C626F783A2025642050314D61696C626F782025640D0A0000000064697361626C655F6C696D69743A2025640D0A007C
:403B400050574D3A25642064697361626C655F6C696D69743A2025640D0A0000506572696F6420696E7465727570742074726967676572642025780D0A0000004C696D694D
:403B80007420696E7465727570742074726967676572640D0A00000043414E5F53656E645F456E636F6465723A20627974655B30755D20257820627974655B31755D2025EE
:403BC0007820627974655B32755D202578205175616444656320436F756E742025640D0A0000000054656C656D657274793A20627974655B30755D20257820627974655BAB
:403C000031755D2025780D0A000000004D6F64656C3A20627974655B30755D20257820627974655B31755D2025780D0A000000004572726F723A20627974655B30755D20F9
:403C4000257820627974655B31755D20257820627974655B32755D2025780D0A000000006465677265653A202564207469636B733A2025640D0A0000703A2025640D0A00C0
:403C8000703A2025642C20693A20256420642025642063757272656E742025640D0A0000636F6D706C6574653A2025640D0A000050574D3A2025640D0A00000042313A20FB
:403CC00025642C2042323A20256420646F6E652025780D0A000000004D6F6465206973206E6F742073657420746F20302C206D6F64652069732025640D0A000042313A20D3
:403D000025642C2042333A20256420646F6E652025780D0A000000004D6F6465206973206E6F742073657420746F20312C206D6F64652069732025640D0A00000A53656E2D
:403D400064696E6720446174612E2E2E200D0A0000300F40000800400F400008810F826F8503860D019E0360040705FD07020A070C040D7310011130120213C914011594D3
:403D8000160217601A0421CF2330270F2A082C07320F33FF340F360F3F04580459045C015F0180188204866088108A02921E96019C409E20A00EA418A602A816AA08AB018D
:403DC000AC61B020B101B240B401B61EBE15D40FD804D904DB04DC11DD10DF010014030104010504070408240B800C080D020E01120A142016881780181019081A011B1083
:403E00001C011D201EA01F402208278029082B802C0830043102330538853A885EA05F06860287048A088B02C077C2BEC4F3CA23CC03CE0BD6F00106050510081C031D0346
:403E400020032106220C2C0130043107320234083601388839023E504031410649FF4AFF4BFF4DA04F015018540F580459045A045B045C115D115F056040628064406540E6
:403E8000668068406A806C406D206E808F03910899019F0CA301B104B301B502B708BF44C065C103C52EC6C0C734C83BC9FFCAFFCBFFCDAFCE07CF01D018D280D904DA049C
:403EC000DB04DC10DD11DF01E040E280E440E540E680E840EA80EC40ED20EE800C800E80150217801C021D841E8821082219230224802602278029012F8030803211378013
:403F000039803C0540104588488149084A084F20500851015210588059205A055E485F126508661071017E0288808B1090119240938194849D049F05A314A408A602A7802E
:403F4000AB05AC20AF80B520B640C290C490CA81CC1DCEC8D052D22CD6FFD860DE1000A3025C04FE05010601080E0AF00C960D010E6810C5123A1301150121012201270241
:403F80002C7F32FF37033E04405249FF4AFF4BFF4F015018580459045A045C105D035F016040624064406540668068806A806C806E808301870290019C02B002B201B501CD
:403FC000B702C042C9FFCAFFCBFFCD83CE03CF01D018D280D604D804D904DA04DB04DC12DD33DF01E040E240E440E540E680E880EA80EC80EE8000040180038508010B8014
:404000000F82128219081E6021402280270529082B80330538043B803F094208468848015E60674074017680874190809381940495809F05A202A304A780B120B205B4809E
:40404000C00FC298C409CA03CC03CECAD0A4D208D630D8800201041606080C0E101812021C181E0420102202261E2A013001361E3E01404245EC4702481349FF4AFF4BFFDA
:404080004D834E034F0150185401560458045A045B045C015D335F016040624064406540668068806A806C806E808107850F910A93059503970CA10CA303AD05AF0AB50FE9
:4040C000D904DC10DF01048406810C010E02160817051E421F80200429802B803001330438043A0146884D044F0156085D045E405F016780874090809404980199809A800D
:404100009B059E08A780AB40C0B0C290C470CA09CC03CE03D0A0D6D0D880030405106B026F02C0C0DAC09F02A702A910AB04E880EC200B080E4087069F02A702C260E410C8
:40414000E6408702A702AA40E210E8200101030804100780C00FB101B388B410EA0CEE05010E1002120E000004000F403C300F402D310F4053320F4041330F404C340F4090
:404180002F350F4039360F402A370F4006400F4006410F4008420F4005430F4005450F4005460F4003600F40030405060708090A0B0C0E0F101112131415161718191B1C32
:4041C0001D1E1F2021222325262728292A2B2E2F3031323334350000EEDBC9B9AA9B8E82766B60564D443B332C241D17100A040000000000080088000000000001000000D2
:40420000080088000000000002000000080088000000000003000000080088000000000004000000080088000000000005000000080088000000000006000000080088000A
:40424000000000000700000008008800000000000000000028000000F9FF1F000000008A0100000028000000F9FF1F000000208A0200000028000000F9FF1F000000408AE9
:404280000300000028000000F9FF1F000000608A0400000028000000F9FF1F000000808A0500000028000000F9FF1F000000A08A0600000028000000F9FF1F000000C08A88
:4042C0000700000028000000F9FF1F000000000A0800000028000000F9FF1F000000200A0900000028000000F9FF1F000000400A0A00000028000000F9FF1F000000600AB8
:404300000B00000028000000F9FF1F000000800A0C00000028000000F9FF1F000000A00A0D00000028000000F9FF1F000000C00A0E00000028000000F9FF1F000000408B86
:404340000F00000028000000F9FF1F000000400B4C2700001A2600002027000010260000202700002A27000020270000102600001A2600001A2600002A2700001026000058
:404380000626000006260000062600007C290000782D0000382C0000382C0000362C0000502D0000502D0000422D0000362C0000502D0000422D0000502D0000362C00006F
:4043C000582D0000582D0000582D0000582F00004300232D302B2000686C4C0065666745464700303132333435363738394142434445460030313233343536373839616203
:404400006364656600000000F8B5C046F8BC08BC9E46704741030000090F0000F8B5C046F8BC08BC9E4670471903000040440000C000002098000000600100000000000089
:404440000000000002000000800000000700020101000100B8020020010000000000204E409C000028000000005A6202F000000004040400000000000000000000000000A7
:404480000000000000000000000000000000000000000000D043000000000000000000000000000000000000000000000000000000000000000000000000000000000000E9
:4044C0000000000000000000000000000000000000000000F400002000000000000000000000000000000000000000000000000000000000000000000000000000000000A8
:40450000000000000000000000000000000000000000000000000000000000000000000000000000000000000000000000000000000000000000000000000000000000007B
:40454000000000000000000000000000000000000000000000000000000000000000000000000000000000000000000000000000000000000000000000000000000000003B
:4045800000000000000000000000000000000000000000000000000000000000000000000000000000000000000000000000000000000000000000000000000000000000FB
:4045C00000000000000000000000000000000000000000000000000000000000000000000000000000000000000000000000000000000000000000000000000000000000BB
:020000040003F7
:0200000490303A
:02000000748802
:0200000490402A
:4000000000000000000000000000000000000000000000000000000000000000000000000000000000000000000000000000000000000000000000000000000000000000C0
:400040000000000000000000000000000000000000000000000000000000000000000000000000000000000000000000000000000000000000000000000000000000000080
:0200000490501A
:0C0000000002101111A00001102686283B
:0200000490600A
:0100000001FE
:00000001FF