:400000000080002011000000790D0000790D000010B500F0D1FEC04670B51222284B1A60302001F0E1F8274C8025ED0525600022254B1A60254B264A1A60802252002549C2
:400040000A60254919602548254908602549196025490A60254A1A60C0218900244A1160244A1A60E0214901234A1160234A1A60C0214901224A1160224A1A60802212065B
:40008000214B1A60214A224B1A604222214B1A607E32214B1A607F3A204B1A600232204B1A6002321F4B1A60013A1F4B1A601F49082000F0C1FF082000F0A8FF256070BD89
:4000C000300010400C020B40000301400000014040FF00800803014042FF0080007F1A0600050140C0FF00800403014041FF00800C03014043FF00801403014045FF00807C
:400100001003014044FF008008010B404902060000010B405801014054010140500101402C0101400C010140080101406514000010B572B601223D4B1A7000240FE03C48BD
:400140006200131959000B00411889881A5AC31858880004104300F009FE0134E4B2012CEDD933490C313348283000F0D5FD324A324B1A609922324B1A60EE221202314BD5
:400180001A60EE221204304B1A6008222F4B1A6099231B042E4A13602E4A13602E4A13602E4A13602E4A13602E4A2F4B1A6003232E4A13602E4A13602E490B783C22934384
:4001C00014221343DBB20B702B4A117816230B43DBB213700223294A13602949294A11600921294A11602931284A11602849294A1160294A1360D8221201284B1A604F2284
:40020000274B1A60274A284B1A603322274B1A60274A284B1A600122274B1A603532274B1A60FFF7F9FE00F091FD10BD1C700F40183C000018400000AA00000800000240C0
:400240000002024000030240000602400007024010500F4020500F4040500F4050500F4070500F400404044458320F402000104000800F4001700F4000700F4000000440EE
:40028000310004000800044008010440000204403120C100080204401802044008030440000404409204080008040440000604401240020008060440000704400807044059
:4002C00010B5064C2378002B07D1054B002B02D0044800E000BF0123237010BD580100200000000034390000084B10B5002B03D00749084800E000BF07480368002B00D19C
:4003000010BD064B002BFBD09847F9E7000000005C01002034390000C00000200000000010B580225201854B1A60854B1B78002B02D0844801F0FCFD834B1B68804A526831
:400340001A4279D07E4B1B78002B02D07F4801F0EFFD7B4B1B895B017D4A944663449A68120E23D19A68120CFF210A40012A03D09A68120C114211D19B681B0CDBB2704A69
:400380009372012B0ED101F06BF9724A6C4BDB7A5BB2584310800023536003E06E4B00225A709A7001226B4B1A723BE09A68120E022A0ED19968090C684A51709968090A26
:4003C00091709968D170DB681B0E13710023537128E09A68120E042A1DD19A68120CD0B25F4C60709968090ACAB2A2709968E170DB681B0E23710023637112020243554B9C
:4004000000215B5E9A4202D00022524B5A600122504B1A7206E09B681B0E102B02D101224C4B5A72464B1B895B01494A94466344196801220A431A60434B1A68404B9B89FC
:400440001A4279D03E4B1B78002B02D0454801F06FFD404B5B895B013D4A944663449A68120E23D19A68120CFF210A40012A03D09A68120C114211D19B681B0CDBB2304ADD
:400480009372012B0ED101F0EBF8324A2C4BDB7A5BB2584310800023536003E02E4B00225A709A7001222B4B1A723BE09A68120E022A0ED19968090C284A51709968090AE6
:4004C00091709968D170DB681B0E13710023537128E09A68120E042A1DD19A68120CD0B21F4C60709968090ACAB2A2709968E170DB681B0E23710023637112020243154B1B
:4005000000215B5E9A4202D00022124B5A600122104B1A7206E09B681B0E102B02D101220C4B5A720B4B5B895B01094A94466344196801220A431A6010BDC04600002F4073
:40054000C40000205439000008002F4068390000A0002F4074010020FC010020AC020020640200207839000070B501F097FB040001F04CF901F042FD01F0B0F801F024F874
:4005800001F052F90D491D2000F056FD62B60C4801F058F80B4801F065FD0B4B1B78002B0AD001F04FFC094D22000949280002F09DFD280001F0BCFC70BDC0462103000006
:4005C000A10800004D080000C400002000020020883900008002044B1B695B01184302231843024B18607047740100206C020020F0B583B001F0A8FC040001F0A5FC0628DA
:400600006FD880005B4B1B589F4610225A4B1A6100205A495A4B18605960002570E01122554B1A6157485849554B186059602132564B1A60263A564B1A60023A554B1A60F7
:4006400001255DE012224C4B1A614E4852494C4B18605960022553E0474B13221A61123A1A7500204549464B18605960032547E0414A142313610121117548484849404A19
:4006800010605160414A13601E22414B1A60143A404B1A60F532434BDA72042530E0364B15221A61143A1A75FE323E4BDA723B483B49334B18605960CD3A344B1A600A3A39
:4006C000334B1A601E3A334B1A60052518E01622294B1A6100202949294B1860596006250EE0254A1A2313612E4B8021C90199818021090259600F2119810E23538107259B
:40070000072D0ED0274B5A68AA405A609A89AA409A81AAB219895118198117494B89D2184A810120FFF756FF1E4B1B78002B1ED0114F1D4E3B6922001C49300002F0D6FC52
:40074000300001F0F5FB174B1B897A8900922A001749300002F0CAFC300001F0E9FB3A7D1449300002F0C2FC300001F0E1FB03B0F0BDC04638390000740100200000F03FCA
:40078000980200206666666666E62C40A802002088020020F801002066660640F1F44A598638F63FC4000020000200209C390000C4390000F439000070B504001E4B186006
:4007C0001E4B1B78002B0AD01D4B1B7D1D4D02001D49280002F08AFC280001F0A9FB0022174B5A75FF32FF322300FF33934222D801F006F8002C0CDAC30703D5104B1B7D5A
:40080000002B06D0002000F0EFFE604200F08CFE11E0002C0CDD830703D5094B1B7D002B06D0012000F0E0FE200000F07DFE02E0002000F079FE70BD84020020C4000020AF
:400840007401002000020020083A000010B501F091FB0E4B1B78002B04D002000C490D4802F044FC0122094B9A730B4A537D0133DBB25375917D01319175132B05D90020C0
:40088000FFF79AFF0122054B5A7110BDC4000020243A00000002002074010020AC02002010B50A4B1B78002B08D0094C1A220949200002F009FC200001F03AFB064B186816
:4008C000FFF77AFF002000F0D5FE10BDC400002000020020443A000084020020F0B583B000F0BEFE02F064FB184B1A685B6801F099FD0022164B02F0ABF802F023FB00B2D1
:40090000144B14221A70587080B2000A98700022DA701A71104801F0D7F9104B1B78022B11D10C4B1D785E789F7800F099FE0C4C0190009733002A000A49200002F0D6FB0C
:40094000200001F0F5FA03B0F0BDC04698020020000024408C0200206C020020C400002000020020603A000010B50D4B12221A7000225A709A70DA701A710A4801F0A4F991
:40098000094B1B78022B0AD1054B1A785B78074C0749200002F0AAFB200001F0C9FA10BD8C0200206C020020C400002000020020D43A000070B5050002F0FAFA0B4B1A6860
:4009C0005B6802F045F802F0BDFA0400084B1B78002B09D0074E03002A000749300002F085FB300001F0A4FA200070BD98020020C400002000020020283B000070B582B074
:400A0000040000F02DFE2D4BDB7A5BB2584302B2A41A631D0A2B0ED8284B1B78002B49D0274D22002749280002F060FB280001F07FFA00203FE024494B68E3184B60FA219E
:400A400049008B4201DD204B59601F4B59681F4B994202DA19001C4B59601B4B9969651A9C61164B1B78002B0CD0174B5B68144E0192009522001649300002F037FB300046
:400A800001F056FA134B186860430A2101F0DEFB04000D4B5868104B1B6858430A2101F0D5FB24180D4B186868430A2101F0CEFB201800E0002002B070BDC046C400002059
:400AC00000020020403B0000740100200CFEFFFF483B0000A802002088020020F801002070B50400184B1B78002B09D0174B1A7A174D1849280002F0F9FA280001F018FA96
:400B00002000FFF757FFFFF779FF04000E4B1B78002B08D00E4D02000F49280002F0E6FA280001F005FA094B187F844202DDFFF743FE08E04042844202DAFFF73DFE02E03B
:400B40002000FFF739FE70BDC40000207401002000020020683B0000783B000010B582B05D4A0123137093705C4A0221117093705B4A0131117093705A4B05229A7100241F
:400B80005C71DC71584ADA601C71FFF7EDFCFFF72FFD564B1C600020FFF70EFE544B1B7B002BFBD1534B5979002934D1524B9A7A002A1FD11B78002B0BD04E4B5A789B78C6
:400BC0004E4C00914E49200002F090FA200001F0AFF9484B01225A719B78DB0704D5454B5878FFF7E9FD16E0424B58784042FFF7E3FD10E0394B00219970023159703E4B85
:400C00001B78002B07D03D4C3E49200002F06EFA200001F08DF9384B9A7A012A20D11B78002B0DD0384B5A78DB7832494979334C00913649200002F059FA200001F078F955
:400C40002B4A00211172304BD87810775160987800025B78184300B21080FFF741FF14E0244B5B79002B10D11C4B0021997004315970214B1B78002B07D0204C24492000D4
:400C800002F034FA200001F053F91B4B9B7A012B04D901231C4A5371164A5371164B9B7B002B0DD0144B1B78002B04D014221949124802F009FAFFF711FE00220E4B9A73DD
:400CC0000B4B5B7A002B00D168E7FFF74DFE0022074B5A7262E7C046A0020020A4020020FC0100206C0200208C0200208402002074010020AC020020C400002000020020BE
:400D0000843B0000A03B000064020020C43B0000E03B0000043C0000F0B50025002711E0BB00C658F3B2FF22964308E06A008A181478A419527822700135013BDBB2002B1C
:400D4000F4D101370F2FEBD9F0BDC0460323044A1360044A13600022034B1A607047C0463000304030003140000E3F4010B50A00002102F0B2F910BD10B502F079F90368B6
:400D80000C2B00D1FEE7FEE710B50300084A1068C318084A9A1A802A02DC054A136005E002F066F90C2303600120404210BDC046D4000020B802002070B50F4E0F4D13E0C7
:400DC00029686B68AC68002202E001C901C30432A242FAD1E868002202E0002102C304328242FAD11035013E002EE9D102F046F9FFF7B4FEFEE7C04601000000044300008D
:400E000010B50E4A136801218B43136000230AE0032B03D89A000A49505800E009489900094A885001332F2BF2D9FFF781F9034A116801230B43136010BDC0460000104080
:400E400000000000790D000000000020024A1168024B0B401360704700002240FFFFFFBF034B18688023DB05184000D0012070470000224030B52D4B1A783F231340042BA1
:400E800001D9012000E0002000230AE0284A12683F210A402749C95C8A4201D1033303E001332D2BF2D9032323490A680124A2430A60224A126822490A6000280FD021494D
:400EC0000D681F4C65601F24A2431F4C247822431A4C22601D4A1278D2B20A6005E01F218A4317390A4315490A60302B0BD1002803D0174B1B78DBB202E0164B1B78DBB284
:400F0000154A13600CE0182B0AD1002803D0134B1B78DBB202E0124B1B78DBB20E4A1360104A116802230B43136030BD00F3FF0F2CFF0B408040000050000C4034FF0B403B
:400F40009801002020FF0B40C0F1FF0FC1F1FF0FC3F1FF0F3FF3FF0F28FF0B40C2F1FF0F3EF3FF0F24002C4030B51A4B1A783F231340042B01D9012000E0002000230AE003
:400F8000154A12683F210A401449C95C8A4201D1033303E001332D2BF2D9032310490A680224A2430A600F4C21681F2291430E4D2D682A400A432260002803D00A4A51688E
:400FC0000A4A11600A4A944663441B78DBB2094A136030BD00F3FF0F2CFF0B408040000024002C4034FF0B409801002020FF0B404DF3FF0F28FF0B40034B1B680220184011
:4010000000D001207047C04624002C401F2318401E3B8340014A13607047C04600E100E01F2318401E3B8340014A13607047C04680E100E001BE704770B504000D001F281B
:4010400002D90020FFF7F6FF1034A40080239B059C4664442068256070BDC04670B504000E00032902D90020FFF7E4FF1F2C02D90020FFF7DFFF03252540ED00063501F09E
:4010800008F8A408A400074B9C46644421680323AB4099430B003100A9401943216000F0FCFF70BD00E400E010B5040006E0084B586800F0E5FF074B9C46644480231B027E
:4010C0009C42F4D8024B9868604300F0D9FF10BDD80000200080FFFF30B583B000F06CF900285FD000F0D5FF04002F4A116801230B43136000230AE02C4A12683F210A4041
:401100002B49C95C8A4201D1033303E001332D2BF2D90323274A1268D20606D1254802681F218A4313390A430260234A1168234A0A40234959438020C00184466144C90B20
:4011400001394905490D0A43A021490311430800192B02D81B4B1A430EE01B4A9A1812781A3B1349C9183023CB5CD318FF2B00D9FF239B0502001A430F4B1A60134D2B6889
:401180000193302000F08CFF114A13688021C9050B4313601420FFF787FF019B2B60200000F07BFF03B030BD50000C402CFF0B408040000034FF0B400800224000F800C057
:4011C00040420F000000D43F4DF3FF0F300010400000224010B5034B1B7B584300F050FF10BDC046D8000020F0B55F4656464D464446F0B483B0040000F04BFF0190FFF72E
:401200002FFE002804D0FFF721FE01239A4601E000239A46FFF7F0FE002808D0182C01D0302C07D1FFF7A0FE01239B4604E000239B4601E000239B46E61E2D2E74D8464BB9
:401240001B78DBB29C4208D8444B1B78DBB29946434B1B78DBB2984631E0424B1B78DBB29C4208D8404B1B78DBB299463F4B1B78DBB2984623E03E4B1B78DBB29C4208D87E
:401280003C4B1B78DBB299463B4B1B78DBB2984615E03A4B1B78DBB29C4208D8384B1B78DBB29946374B1B78DBB2984607E0364B1B78DBB29946354B1B78DBB29846344B66
:4012C0009F5D2F2F09D92A2C07D91922314B1A60052000F0D5FE192503E02E4B1D683F231D40BD4206D92A4B9A5D2A4B1A60052000F0C6FE254B9C4664442378DBB2264AE1
:401300001360264B4A461A60254B42461A600520FFF760FFBD420AD21D4B9A5D1D4B1A60052000F0ADFE02E00020FFF783FE5346012B01D1FFF7D0FE5B46012B01D1FFF78E
:4013400099FD019800F0A9FE03B03CBC90469946A246AB46F0BDC04640F3FF0F41F3FF0F42F3FF0F43F3FF0F44F3FF0F45F3FF0F46F3FF0F47F3FF0F48F3FF0F49F3FF0F04
:401380004AF3FF0F4BF3FF0F4CF3FF0F4DF3FF0F804000002CFF0B4028FF0B401CFF0B4020FF0B40034B1868C0231B02184000D00120704700010B40034B1B68002B01DA92
:4013C000012000E0002070470000224010B500F060FE044A1368C02109020B43136000F05CFE10BD00010B4010B500F052FE08490A68084B1A408024E40122430A600A6888
:4014000013408022120213430B6000F046FE10BD00010B40FF3FFFFF70B5050000F039FE0400FFF7BFFF002803D0FFF7DDFF012100E0002108482840084A1568084B2B401B
:40144000184310601368012901D1FFF7BFFF200000F023FE70BDC0460404040010020B40FBFBFBFF10B5244B1B685B0715D5234B5B685B070ED5224B596A042001401F4C40
:4014800062688A4362605A6A82435A629B69002B00D098470420FFF7BFFF174B1B685B0518D5164B5B685B0510D5154B596A8022D2001140114842688A434260596A114AC5
:4014C0000A405A62DB69002B00D098478020C000FFF7A2FF084B1B685B030CD5074B5B685B0304D5064B1B6A002B00D098478020C002FFF791FF10BD10020B40EC000020A2
:40150000B8010020FFFBFFFF0004000C014B18607047C046080120400004000C014B18607047C046140120400004000C014B18607047C0460C01204070B504000D0000F0B6
:40154000A8FDAC40024B1C6000F0A7FD70BDC0460800204010B500F09CFD064A116801230B43136000F099FD18210120FFF7E4FF10BDC04600002040014B18607047C04679
:401580003801204010B50D4C8023DB042360236823600020FFF7B8FF236823600C22084B1A600120FFF7E8FF3122064B1A60FF20FFF7B2FF0020FFF7B7FF10BD00012040AF
:4015C000240120402801204010B5064B1B78002B04D1FFF7D7FF0122024B1A70FFF7BAFF10BDC046E001002004490A68D2B202239A43400018401043086070470007044051
:40160000014B18647047C0460000002010B5040000F03FFD044A1368C0218B43A4011C43146000F03AFD10BD00E400E00122014B1A60704700E100E00122014B1A60704767
:4016400080E100E010B50400FFF7F6FF2000FFF7D7FF0320FFF7DAFFFFF7E8FF10BDC04610B500F06BF8024B9C46604400B210BD0080FFFF10B5002805DB80B2054B9C46CE
:40168000604480B203E0034B9C46604480B200F04FF810BD0080FFFF024B18780F2318407047C04661000F40014B18707047C04681000F4010B50F20FFF7F6FFFFF7ECFFF4
:4016C00000F0E7FC044A117810230B43DBB2137000F0E3FC10BDC04691000F4010B500F07FF88020000200F023F8054B1B78002B02D10122024B1A70FFF7DCFF10BDC046D5
:40170000E1010020034A117880235B420B43DBB21370704773000F40014B18707047C04682000F40014B1878C0B2704762000F40014B18807047C04604100F40024B1B78BE
:40174000024B188880B2704702000F4084100F40014B188880B2704784100F40014B18807047C04644100F40014B18807047C04664100F4010B501E0FFF7EAFFFFF7D2FFB3
:401780004306F9D410BDC04610B5134B1A7807218A431A701A7804398A431A70FFF7EAFF802424022000FFF7D9FF2000FFF7C0FF0020FFF7B1FFFFF7B5FF2000FFF7D4FF21
:4017C00000F067FC054A117810230B43DBB2137000F063FC10BDC04673000F4092000F4010B5064B1B78002B04D1FFF7CDFF0122024B1A70FFF786FF10BDC046E2010020B2
:40180000014B1878C0B2704765000F4010B500F040FC044A117810230B43DBB2137000F03CFC10BD95000F40054B1A6801210A431A601B68194201D1012000E0002070477A
:4018400004002F4010B50E4A0E4B1A60FFF7ECFF1D20FFF7DBFB0C4A116801230B431360F0231B0100E0013B002B03D0064A1268D207F8D5002B01D1012000E0002010BDC3
:401880000110000000002F4010002F4003B2002B0DDB094A1168094B0B400004034313601268074B1340984203D0012002E0022000E000207047C04614002F40FFFF00808A
:4018C0000000FF7F002809D10C4B19680C4A0A401A601B68DB040CD501300DE0074B1A68802149010A431A601B680B4203D1012002E0002000E000207047C04614002F4088
:40190000FFEFFFFF70B5841EE4B20D2C35D88C1EE4B2052C03D9002B31D1012931D1032A31D8904231D3914231D31C4D2C68240AE4B20F26B44320432E68194C34400002CE
:4019400004432C602C686040F0242401204220D1002B00D002234901C9B29200D2B2114319430E4A1368EE2083430B4313601368034099420FD0ED380EE002200CE0022006
:401980000AE0022008E0022006E0022004E0022002E0012000E0002070BDC04614002F40FFF0FFFF002809D10B4B1A6810218A431A601B6819420BD001300CE0064B1A6862
:4019C00010210A431A601B68194203D1012002E0002000E00020704714002F40002809D10B4B1A6801218A431A601B6819420BD001300CE0064B1A6801210A431A601B6888
:401A0000194203D1012002E0002000E00020704714002F40054B18601B681B041B0C984201D0012000E000207047C04604002F4010B503785B01204A944663441F4A4168F4
:401A40000A431A6003785B01634419681C4A11401C4A44682240914224D182681A6103785B0163441A6981688A421DD1C2685A6103785B0163445A69C1688A4216D101227F
:401A800052429A6103785B0163449A6901320FD10022DA6103785B016344DB69002B09D0012008E0012006E0012004E0012002E0012000E0002010BDA0002F4080008000CB
:401AC0007F007F007FFF7FFF10B503781B01104A944663440F4A41680A431A6003781B01634419680C4A11400C4A4468224091420AD182685A6003781B0163445A688368E5
:401B00009A4203D0012002E0012000E0002010BD20002F4008008000F7007F00F7FF7FFF70B500240AE063001B199800104B1818FFF7CAFF002805D10134E4B2072CF2D991
:401B4000002500E00125002D0BD00FE0230108486030C018FFF76CFF002806D10134E4B200E000240F2CF1D900E00125280070BDC8400000002809D10C4B19680C4A0A4056
:401B80001A601B689B040CD501300DE0074B1A68802189010A431A601B680B4203D1012002E0002000E000207047C04614002F40FFDFFFFF10B580221206344B1A60344AEB
:401BC000136801218B431360C8231B0200E0013B002B03D02E4A1268D207F8D4002B4AD01D20FFF71DFA2B491D20FFF725FA03211D20FFF733FA1320FFF748FE00281AD1F3
:401C0000FFF760FE002818D1FFF7B4FF002816D10023012201210C30FFF774FE002810D10130FFF7BFFE00280DD1FFF7D7FE00280BD001230AE0012308E0012306E0012372
:401C400004E0012302E0012300E00023002B14D1FFF766FF002812D10F48FFF7DBFE00280FD10B4B1A6807218A431A601B68194209D0013008E0012006E0012004E001206B
:401C800002E0012000E0002010BDC04600042F4010002F40C51C00000110000010B5084B1B78002B02D1FFF785FF00E00020002804D10122024B1A70FFF7C4FD10BDC046C6
:401CC000E30100207047C046F8B54F464646C0B4040001200023984691E04C4B1B6832041A427AD12379002B01D1002701E08027BF036379002B07D12B01454A944663442E
:401D0000226852055A6009E080235B031F432B013F4A944663442268D2005A60A379072B03D81B041F43B94603E080231B031F43B946E379002B03D004234A461A4391467D
:401D400000232AE0032B13D92801324A94466044026894465907CA1AD1003831FF228A4067469743E268D25C8A403A43026012E02801274A94466044826894465907CA1A92
:401D8000D1001831FF228A4067469743E268D25C8A403A4382600133DBB2A279934201D2072BCFD91D20FFF73BF92B01184A94466344194A4F4617431F60227A002A04D0B7
:401DC000196803220A431A6003E0196801220A431A601D20FFF71AF900207600F6B2002807D00135EDB201E001260025072D00D873E7002806D043460133DBB2984643468E
:401E0000022BF1D90CBC90469946F8BD08002F4020002F402C002F400800800010B500F075F810BD10B500F01DF810BD10B5044A1368802109060B431360FFF7EFFF10BD1A
:401E40000000254010B5064B1B78002B04D1FFF7E9FF0122024B1A70FFF7E8FF10BDC046E4010020154A164B1A600023154A13601549164A1160164A16490A6007201649BA
:401E8000086016490B6006381549086015490A60154A13600421154A1160154A1360154A1360154A1360154A1360154A1360154A13601268144B1A807047C0460B00000234
:401EC000000025404000254001000A00480025400700008000032540040325401003254044002540000225400402254050002540880E2540C80E2540480F2540080F2540AF
:401F0000C80F2540880F2540E601002005490B68F0229343603A13430B60034B1A88034B1A60704700020240E6010020880F254070B50500002402E000F0F0F80134285DE6
:401F40000028F9D170BDC046014B1878C0B2704763000F40034A117880235B420B43DBB21370704775000F40014B18707047C04686000F40014B1878C0B2704766000F4076
:401F800010B50100014800F0B5F810BD24000F4010B5024800F0B8F810BDC04644000F4010B50100014800F0A5F810BD04000F4010B501E0FFF7ECFFFFF7DCFF0307F9D435
:401FC00010BDC04610B50B4C2000FFF7D9FF2000FFF7E6FF00F05DF8074A117810230B43DBB2137000F059F8FFF7E2FF0120FFF7BBFF10BD3F420F0096000F4010B5064B18
:402000001B78002B04D1FFF7DDFF0122024B1A70FFF7A0FF10BDC046E8010020014B58647047C0460000002010B5040000F031F8044A1168044B0B40A4031C43146000F03E
:402040002CF810BD00E400E0FF3FFFFF0222014B1A60704700E100E00222014B1A60704780E100E010B50400FFF7F6FF2000FFF7D5FF0320FFF7D8FFFFF7E8FF10BDC046ED
:402080000230800803D00138FDD1C046C046C0467047EFF3108072B6704780F31088704770B50400FFF7F5FF0500102C05D8104A136803218B43136016E0202C07D80C49CF
:4020C0000B6803229343023A13430B600CE0302C07D807490B6803229343013A13430B6002E00020FEF7A6FF2800FFF7D6FF70BD30001040CBB203700B0ADBB24370090CFE
:40210000C9B281707047C0460378427812021A4383781B041A4310007047C046044B1B681F221340082BF9D0024B18607047C0460802254040022540002243088B4274D311
:4021400003098B425FD3030A8B4244D3030B8B4228D3030C8B420DD3FF22090212BA030C8B4202D31212090265D0030B8B4219D300E0090AC30B8B4201D3CB03C01A524160
:40218000830B8B4201D38B03C01A5241430B8B4201D34B03C01A5241030B8B4201D30B03C01A5241C30A8B4201D3CB02C01A5241830A8B4201D38B02C01A5241430A8B4237
:4021C00001D34B02C01A5241030A8B4201D30B02C01A5241CDD2C3098B4201D3CB01C01A524183098B4201D38B01C01A524143098B4201D34B01C01A524103098B4201D36B
:402200000B01C01A5241C3088B4201D3CB00C01A524183088B4201D38B00C01A524143088B4201D34B00C01A5241411A00D20146524110467047FFE701B5002000F0F0F811
:4022400002BDC0460029F7D076E7704703460B437FD4002243088B4274D303098B425FD3030A8B4244D3030B8B4228D3030C8B420DD3FF22090212BA030C8B4202D31212CF
:40228000090265D0030B8B4219D300E0090AC30B8B4201D3CB03C01A5241830B8B4201D38B03C01A5241430B8B4201D34B03C01A5241030B8B4201D30B03C01A5241C30AAF
:4022C0008B4201D3CB02C01A5241830A8B4201D38B02C01A5241430A8B4201D34B02C01A5241030A8B4201D30B02C01A5241CDD2C3098B4201D3CB01C01A524183098B426D
:4023000001D38B01C01A524143098B4201D34B01C01A524103098B4201D30B01C01A5241C3088B4201D3CB00C01A524183088B4201D38B00C01A524143088B4201D34B0005
:40234000C01A5241411A00D201465241104670475DE0CA0F00D04942031000D34042534000229C4603098B422DD3030A8B4212D3FC22890112BA030A8B420CD3890192117A
:402380008B4208D3890192118B4204D389013AD0921100E08909C3098B4201D3CB01C01A524183098B4201D38B01C01A524143098B4201D34B01C01A524103098B4201D3DC
:4023C0000B01C01A5241C3088B4201D3CB00C01A524183088B4201D38B00C01A5241D9D243088B4201D34B00C01A5241411A00D20146634652415B10104601D34042002B5B
:4024000000D54942704763465B1000D3404201B5002000F005F802BD0029F8D016E770477047C046F0B556464D4644465F46F0B41D000E034C00CB0F87B007009246814660
:40244000360B640D98466AD06D4B9C4235D08022430F12041343F6001E43C3009946694B00279C460023644402932B0368001B0BED0F51469B46400D009500D178E0604B9B
:4024800098426CD05B46DA004B0F802109040B4313439B465346D9005A4B9C46002360444246201A6A40924601901F430F2F00D9B0E05548BF00C0598746374300D088E06C
:4024C000002399460233082700260293CDE74346B34649460093029B009A9246022B00D0BFE1002153460122002689461A40444B002136030C0D2405360B2643434C1B0507
:4025000026401E437600D207760816434846310007B03CBC90469946A246AB46F0BD330003434FD0002E00D1BCE1300000F082FD03000B3B1C2B00DDADE11D220100D31A0A
:4025400008393A008F408E40DA40B9461643304B00279C46002360444442029385E753465A4613432CD1002300219B46023397E70B4320D05B46002B00D19EE1584600F0B3
:4025800059FD03000B3B1C2B00DD8FE102005946083A91408B461D21CB1A5146D9400B0059460B4351469B469140194B9C4660444042002374E7002300219B4601336FE7B6
:4025C00003236DE70023994601330427002602934BE703230C27029347E70122D51A382D00DCB0E153461A4000210023002689467EE700238026994600223603004B77E7D6
:40260000FF07000001FCFFFF28420000FFFF0F80F30300005E4500D972E100D16DE1019B4D46013B01930023340002935B461E020B0E1E430B020393330C994633041B0C79
:40264000494620000093FFF777FD009B370043430600494620009846FFF7F4FD2C0C09040C43A04509D9E419731EA74200D95CE1A04500D859E1023EE4194346E41A4946AA
:402680002000FFF759FD0300009A80465343494620009B46FFF7D6FD2A040904120C0A4393450DD94346D219013B974200D93AE1934500D837E102235B429C46D219E04400
:4026C0005B46D21A4346360433439B460399180C0B0C1D00059309045B46090C0C001B041B0C4443049159436B4368431B190D0CEB189C4203D980246402A44660441C0CB7
:4027000009041B04090C20185D18824200D2DEE000D1D7E0161A029B9C465D1BAC459B415B42F61AB74200D106E149463000FFF703FD009B04004343494630009846FFF710
:4027400081FD2E0C09040E43B04509D9F619631EB74200D9F3E0B04500D8F0E0023CF6194346F31A494618000293FFF7E5FC009B06004343494602989846FFF763FD2D04EF
:4027800009042D0C0D43A84509D9ED19731EAF4200D9D6E0A84500D8D3E0023EED192404210043463143049E059A3000ED1A0B040C0C1B0C58436643534354439A19030CA0
:4027C0009B189E4203D980225202944664441A0C00041B04000C14191B18A54250D34DD001231943964A019B94466344002B00DCF3E64A0709D00F220A40042A05D00A1DEA
:402800008A42894149428B4411005A46D20108D55A468C4B1A4093468022D2009446019B6344894A934200DD5BE65A46C908500708435602514601225B058146360B5B0D51
:402840000A4055E680231B031E4211D05A461A420ED15E461E433603360B2A0089467B4B46E6032B00D1E1E0012BBBD11A40BBE61E433603360B4246744B39E6002BB1D02C
:402880007D194A1EAF4252D91100A542A8D1039A9A42A5D1A6E703003E00283B9E400023994654E600F0C6FB203041E603005246283B9A400021934677E6504600F0BAFBC1
:4028C00020305EE6029B0026AB4200D323E7039E0299B44661448846B045B6415B467642F619B218013B0291974213D290424FD800D18EE0161A9B460DE7894500D28EE612
:4029000074084B46F60735005B081D434B46DB0702938BE69742EDD10399029CA142E5D93E1A9B46F7E69846CAE61E00A5E6AC423ED874D0110053E70121494252E71C00C8
:402940000EE71E002BE71F2D3CDC20230A0058465B1B9840EA4099400243481E81415E461143EE404B0709D00F230B40042B05D00B00191D99429B415B42F61833023CD56A
:402980005346012200211A40002601238946AFE502235B429C46039CE344A446029B63449846A045B6417642F6190293B218B1E603988A1E41008142B6417642F619AD1959
:4029C000039161E71F225242D31A5A46DA401300202D29D040225846551BA8400143481E814107200B4318400026002809D00F2200261A401900042ABBD10B0070077602F0
:402A0000360BDB0803439946012253461A4000236EE502998D42BBD89B4600267BE603989842C5D3110032E70020D7E780265B4636031E433603360B009A8946034B57E5F9
:402A4000FF030000FFFFFFFEFE070000FF070000F0B55F4656464D464446F0B40D0399464E002B0B87B00700924680469B46760DCC0F002E69D06D4B9E4235D05B468022D2
:402A8000DD001204430F13432B439B46C3009846674B00279C460023664401934A4615035000D20F53462D0B400D914600D176E05E4A90426CD080225B0F120413435C4AA6
:402AC000ED0094461D4353460022DB00604449463618701C6140029017430F2F00D9AFE05448BF00C759BF465B461F4300D088E000239B469846023308270193CEE7494600
:402B0000022A6AD0032A00D109E2012A00D0BBE111400022002300259046CCB200212D030A0D12052D0B1543434A1B0515401D436D00E4076D0825434046290007B03CBC9C
:402B400090469946A246AB46F0BD034352D05B46002B00D18AE1584600F06CFA03000B3B1C2B00DD7BE11D22D31A3A0001005D46DA4008398D4013008F402B439B46B8468C
:402B80002E4B00279C46002360444642019385E752462A432CD100250023022297E752462A4321D0002D00D154E1280000F042FA03000B3B1C2B00DD46E11D21CB1A51468D
:402BC0000200D9405346083A954093400D431B4A944660444042002279E7012400220C40124B0025904699E70025002301226EE703226CE700239B46984601330427019388
:402C00004CE703230C27019348E700238025984600242D03054B81E75D464346019A6FE75D4643462100019A6AE7C046FF07000001FCFFFF68420000FFFF0F80F303000009
:402C40004246120C91461A0C9446424617044A461B041B0C5A43604690464A4642431000039262461C003F0C7A437C4342440192220C9246019A5244904506D98246802094
:402C800040028046C24450460390100C049048462404240C1204121905922A0C2D042D0C68432C00824648467C4350438146200C8046574357444744BA4503D9802040021A
:402CC0008046C144380C3F04B84648442404240C01900498A044404404905846000C814658460404200C8246070048465F434C464343604660436446834650464443380C00
:402D00008446E4186444A34203D980235B029C46E34448463F04230C3F0C2404E419574668436F4384464D46504655434243380C814662444A445B44944503D9802040026C
:402D40008446654403983F04834604983F0C8446E344C345804140428246100484460198674484466744A344BC46A345A4419946D44464428742BF41D4458041E144A046B6
:402D800099459B417F424042C8440743120CBA18A045A4415F423B0064422343D71843467D19DB0D6D021D435B465A02059B1A43531E9A415B46DB0D1A4343465B021343F1
:402DC000EA0107D501225C0813402343EA07029E13436D08574AB218002A4BDD580709D00F201840042805D0181D98429B415B42ED180300E80104D54F4A15408022D2003F
:402E0000B2184E48824200DDE7E60124DB08680718436D02530580462D0B5B0D0C407DE6802259461203114208D0154206D115432D0398462D0B4C46414B6FE65D4615435B
:402E40002D032D0B3E4B69E603005546283B9D400023BCE6504600F0EDF82030A8E60300283B9F400023BB46984689E600F0E2F8203073E60124A61A382E07DD00220C4060
:402E800000230025904649E6029EA3E71F2E20DC20222C001800921BF040944093400443581E83411C43F540630709D00F232340042B05D023001C1D9C4292415242AD18F1
:402EC0002B021FD5012400220C4001230025904624E61F202C004042821AD440202E1CD04022961BB5402B43581E83410720234318400025002809D00F2200251A401C0097
:402F0000042AD8D1230068076D022D0B0124DB08034398460C40002300E60025E3E780220124120315432D0398462D0B0C40044BF4E5C046FF030000FFFFFFFEFE0700001B
:402F4000FF0700000B0330B5134D1A0B4B005B0DC90F0024AB4211DD104CA34210DC8024640322430E4CE41A1F2C0CDD0D48C31ADA4013005C42002900D11C00200030BD00
:402F8000094BCC18FAE7E040084CA44663449A4013000343EEE7C046FE0300001D0400003304000013040000FFFFFF7FEDFBFFFF70B5002830D0C317C4185C40C50F200080
:402FC00000F038F8174B184A1B1AD21A1F2A18DD164AD21A9440002224035B05240B5B0D0021100024030A0D1205240B1443104A1B0514401C436400ED0764082C432100A1
:4030000070BD210091400A000B21081AC4405B052403240B5B0DE3E70025002300240022DEE7C0461E0400003304000013040000FFFF0F801C2101231B04984201D3000C9D
:4030400010391B0A984201D3000A08391B09984201D30009043902A2105C40187047C04604030202010101010000000000000000014B18687047C046540100200E4B70B521
:4030800000251E000D4CE41AA410A54204D0AB00F35898470135F8E701F022F9084B00251E00084CE41AA410A54204D0AB00F35898470135F8E770BDEC420000EC42000047
:4030C000EC420000F4420000002310B59A4203D0CC5CC4540133F9E710BD03008218934202D019700133FAE7704700000EB410B59DB002A9029008610B4882248860486117
:40310000012040421FABC881084804CBA400006801938C8100F06EF80023029A13701DB010BC08BC03B01847FFFFFF7F54010020F0B58E6885B007000C00039201939E4229
:4031400043D890238A89DB001A423ED003250969236801985B1A029363695D43EB0F5D19029B6D1001331B18AB4200D91D00530510D52900380000F037FB061E14D0029ABD
:403180002169FFF7A1FFA289194B134080221343A38112E02A00380000F086FB061E0CD12169380000F0D4FA0C23402201203B60A38940421343A38117E0029B2661F6180D
:4031C00026606561019EED1AA560019BB34200D21E0032000399206800F0A5FA0020A3689B1BA36023689E19266005B0F0BDC0467FFBFFFFF0B59FB0029005938B890F00A5
:4032000016001B0610D50B69002B0DD1402100F0EBFA38603861002804D10C23029A01381360D8E040237B61002306AD6B6120336B761033AB7634002378002B03D1A31B5D
:40324000049312D003E0252BF9D00134F4E7A31B320039000298FFF76BFF431C00D1B4E06A69049B944663446B612378002B00D1ABE00122002352426A6002A954325218C2
:4032800001342B60EB60AB601370AB65534E21780522300000F03CFA002807D00123801B83402A68013413432B60EFE72B68DA0604D55322202102A8121811701A0704D55E
:4032C00053222B2102A81218117022782A2A03D0099B00200A210EE0059A111D12680591002A01DB099204E05242EA60022213432B6001340BE02278303A092A04D84B4314
:4033000001349B180120F6E7002800D0099323782E2B1ED163782A2B0AD1059B02341A1D1B680592002B01DA01235B42079310E000230A201A0001346B6021783039092912
:4033400004D84243013452180123F6E7002B00D00792234E21780322300000F0D9F9002806D04023801B83402A68013413432B60217806221B48661C297600F0C9F9002811
:4033800012D0194B002B06D10722059B073393430833059314E005AB00933A00134B2900029800E000BF07E005AB00933A000F4B2900029800F08AF80390039B013304D0BC
:4033C0006B69039A9B186B6135E7BB890B985B0601D5012040421FB0F0BDC046AA420000B0420000B44200000000000031310000F7B5170001938A680B6900900C0093421A
:4034000000DA130022003B6043321278002A01D001333B6023689B0602D53B6802333B60062523681D401ED0230043331B785A1E9341226892061CD53020E11843310870E2
:4034400021005A1C45310978A2184332023311700FE022000123193201990098089EB047431C0ED00135E3683A689B1A9D42F0DBDAE72200019943320098089DA847431C4E
:4034800002D10120404220E006232068E1683A6803400025042B03D18D1AEB43DB171D40A3682269934201DD9B1AED180027BD420AD0220001231A3201990098089EB04707
:4034C000431CDED00137F2E70020FEBDF0B58BB006920A0043320793059004920A7E0C00109B6E2A00D1ABE011D8632A22D009D8002A00D1B5E0582A00D0C5E045310A7024
:40350000814A4FE0642A1DD0692A1BD0BCE0732A00D1AAE009D86F2A29D0702A00D0B3E0202209680A43226037E0752A1FD0782A33D0A9E00E001A684236111D1960136815
:403540003370A4E021681A68080606D4490604D5111D19600023D55E02E0111D19601568002D3BDA2D23049A6D42137036E021681A68080606D4490604D51568111D19604F
:40358000ADB202E0111D196015685F4B227E039308276F2A1DD00A271BE022007821453211705A4A19680392081D226818600D68100602D4500600D5ADB2D30702D5202372
:4035C0001A4322601027002D03D1202322689A4322602300002243331A7002E00A274A4B03936368A360002B09DB0422216891432160002D05D1049E002B11D07BE0002DEB
:4036000079D0049E28003900FEF71CFE039B013E5B5C280033703900FEF78EFD051EF1D1082F09D12368DB0706D563682269934202DC3023013E3370049B9B1B23612BE0B7
:4036400009681A68080607D4490605D5111D19601368A28A1A8004E0111D1960136862691A600023049E236116E01A68111D1960166800216268300000F04AF8002801D0E6
:40368000801B6060636803E0260042363270012323610023049A1370079B09AA00932100069B0598FFF7A4FE431C02D10120404227E02369320006990598079DA847431C2E
:4036C000F4D0236800259B070FD4099BE068984217DA180015E022000123193206990598079EB047431CE1D00135E368099A9B1A9D42F0DBE9E72600039B42361B783370CF
:403700008EE70BB0F0BDC046BB420000CC420000C9B28218904204D003788B4202D00130F8E70020704710B5884202D98B18984201D3002305E09B1A013A08D3995C815487
:40374000FAE7934203D0CC5CC4540133F9E710BD70B50500002944D00C1F2368002B00DAE418280000F0D8F81E4A13681100002B02D16360146031E0A3420DD92268A01852
:40378000834203D118685B688218226063600C6024E0A24203D813005A68002AF9D11E689819A0420BD12168711858181960824214D110685268411819605A600EE0A0422F
:4037C00002D90C232B6009E021686018824203D1106852684118216062605C60280000F09CF870BDF0010020032370B5CD1C9D43083506000C2D01D20C2501E0002D01DBC0
:40380000A94202D90C23336048E0300000F084F8234B1C681A002100002913D00B685B1B0DD40B2B02D90B60CC181EE08C4202D1636813601AE04B6863600C0016E00C007E
:403840004968E9E7174C2368002B03D1300000F051F820602900300000F04CF8431C18D00323C41C9C43A0420DD12560300000F054F8200007220B30231D9043C31A0ED035
:403880005A42E2500BE0211A300000F033F8431CEBD10C233000336000F03FF8002070BDF0010020EC010020F8B506000C001500002904D11100FFF797FF040018E0002A95
:4038C00003D1FFF745FF2C0012E000F027F885420ED929003000FFF787FF071E07D021002A00FFF7F1FB21003000FFF731FF3C002000F8BD002370B5064C0500080023602F
:40390000FDF742FA431C03D12368002B00D02B6070BDC046B4020020704770470B1F1A68101F002A04DA891804390B68D018043870470000000000000A0600001E06000059
:403940004406000058060000700600009E060000CE0600000A2043616E207278207472696767657265640A0050302072656369657665640A000000005031207265636965EA
:403980007665640A0A00000043414E5F537461727428293A202025750D0A000043414E206469702073657474696E673A20202578204D6573736167652049443A20256C64B4
:4039C0000D0A000043616E2073686966743A20256420202050304D61696C626F783A2025642050314D61696C626F782025640D0A0000000064697361626C655F6C696D69E3
:403A0000743A2025640D0A0050574D3A25642064697361626C655F6C696D69743A2025640D0A0000506572696F6420696E7465727570742074726967676572642025780DB5
:403A40000A0000004C696D697420696E7465727570742074726967676572640D0A00000043414E5F53656E645F456E636F6465723A20627974655B30755D20257820627916
:403A800074655B31755D20257820627974655B32755D202578205175616444656320436F756E742025640D0A0000000054656C656D657274793A20627974655B30755D203C
:403AC000257820627974655B31755D2025780D0A000000004D6F64656C3A20627974655B30755D20257820627974655B31755D2025780D0A000000004572726F723A20623E
:403B00007974655B30755D20257820627974655B31755D20257820627974655B32755D2025780D0A000000006465677265653A202564207469636B733A2025640D0A00009C
:403B4000703A2025640D0A00703A2025642C20693A20256420642025642063757272656E742025640D0A0000636F6D706C6574653A2025640D0A000050574D3A2025640DA9
:403B80000A00000042313A2025642C2042323A20256420646F6E652025780D0A000000004D6F6465206973206E6F742073657420746F20302C206D6F646520697320256421
:403BC0000D0A000042313A2025642C2042333A20256420646F6E652025780D0A000000004D6F6465206973206E6F742073657420746F20312C206D6F6465206973202564D2
:403C00000D0A00000A53656E64696E6720446174612E2E2E200D0A0000300F40000800400F400008810F826F8503860D01FD03020608080109CF0A020B300C040D940F602D
:403C4000113013C9157316041A071B0F200122022407299E2B602C07340F35FF3F10580459045C015F0186108A108E0F93019702980C9A029C089D029E01A010A407A502EB
:403C8000A80CAA01AC0BAE04B010B20FB302B701BE01BF04D40FD804D904DB04DC11DD10DF0100040309051407010A080B200D400F081241130815201601170A19101A089F
:403CC0001B201E401F0820042410268027022B0C2F203110330535053680388239A03A413B215C105E405F09C0E7C2C6C4FDCA44CCD7CE0DD6F00204050609030C041B0880
:403D00001C032003240129062D0530043108320235073601388839203E414051410649FF4AFF4BFF4DA04F015018540F580459045A045B045C115D115F0560406280644079
:403D40006540668068406A806C406D206E808603920194089801A20CB008B204B402B601BE41C015C106C54EC602C73CC837C9FFCAFFCBFFCDAFCE07CF01D018D280D8041B
:403D8000DA04DB04DC01DD11DF01E040E280E440E540E680E840EA80EC40ED20EE8000040501070209020A240D4010801502170819021A241BC01C021D841E4024802510A8
:403DC000270C2F0934203D2843804580480149194E044F80508051415202530458865B105D025E586508670871027D287F1088048D408E1092089482972099109B029D0517
:403E00009F0DA308C094C28EC438CA30CC20CE60D018D23CD6FFD860DE2001FE030104010701080109A30B5C0D0E0E010FF011961368157F16021C01200129C52B3A33FF90
:403E400034033F04405249FF4AFF4BFF4F015018580459045A045C015D035F016040624064406540668068806A806C806E8084048B0193029C01A204A402B002B201B302A6
:403E8000B404B701BE10C042C9FFCAFFCBFFCD83CE03CF01D018D280D604D804D904DA04DB04DC12DD33DF01E040E240E440E540E680E880EA80EC80EE800010021003014B
:403EC000072009080B020F0112401502170818041E682108272128042A102B0832043305360238963A403B223F104208468848015E6067407401768087408F019080910274
:403F00009310940697229B049F01A202A308A604AB10AC02AF10B020B480C027C285C438CA04CC83CE2FD0A4D208D630D880E410E880EA04EE020201080E0C100E0214188C
:403F4000160218181A041C161E08221E2A013001341E3E01404245EC4702481349FF4AFF4BFF4D834E034F0150185401560458045A045B045C015D335F0160406240644050
:403F80006540668068806A806C806E80800F8C058E0A940C96039807A003A20CA80AAA05B60FD804DC01DF010381068007050A080B200C040E0910041240164818021A01B7
:403FC0001B801E481F1046884D044F0156085D045E405F016780874092089402972098049AC09B059E08AF08C0D9C2E6C45AD0A0D6D0D8806B026F02DAC0032006209F02AE
:40400000A702C0300B100E1087028E109F02A702AE20B320C230E640E8108702A702AF10E210E81000080180041006208A20C00FE601A980AC04B410EA08010E1002120EBE
:4040400004000F403B300F402A310F4054320F403E330F4050340F403E350F4039360F4026370F4003400F4005410F400B420F4005430F4007450F4004460F4003600F40B5
:40408000030405060708090A0B0C0E0F101112131415161718191B1C1D1E1F2021222325262728292A2B2E2F3031323334350000EEDBC9B9AA9B8E82766B60564D443B33DA
:4040C0002C241D17100A0400000000000800880000000000010000000800880000000000020000000800880000000000030000000800880000000000040000000800880044
:40410000000000000500000008008800000000000600000008008800000000000700000008008800000000000000000028000000F9FF1F000000008A0100000028000000CB
:40414000F9FF1F000000208A0200000028000000F9FF1F000000408A0300000028000000F9FF1F000000608A0400000028000000F9FF1F000000808A0500000028000000CD
:40418000F9FF1F000000A08A0600000028000000F9FF1F000000C08A0700000028000000F9FF1F000000000A0800000028000000F9FF1F000000200A09000000280000003D
:4041C000F9FF1F000000400A0A00000028000000F9FF1F000000600A0B00000028000000F9FF1F000000800A0C00000028000000F9FF1F000000A00A0D00000028000000AD
:40420000F9FF1F000000C00A0E00000028000000F9FF1F000000408B0F00000028000000F9FF1F000000400B14260000E2240000E8250000D8240000E8250000F22500007F
:40424000E8250000D8240000E2240000E2240000F2250000D8240000CE240000CE240000CE24000044280000402C0000002B0000002B0000FE2A0000182C0000182C000062
:404280000A2C0000FE2A0000182C00000A2C0000182C0000FE2A0000202C0000202C0000202C0000202E00004300232D302B2000686C4C006566674546470030313233345C
:4042C0003536373839414243444546003031323334353637383961626364656600000000F8B5C046F8BC08BC9E467047E9020000010E0000F8B5C046F8BC08BC9E4670472E
:40430000C102000018430000C00000209800000060010000000000000000000002000000800000000700020101000100B8020020010000000000204E409C000028000000AB
:40434000005A6202F0000000040404000000000000000000000000000000000000000000000000000000000000000000A84200000000000000000000000000000000000099
:404380000000000000000000000000000000000000000000000000000000000000000000000000000000000000000000F400002000000000000000000000000000000000E9
:4043C00000000000000000000000000000000000000000000000000000000000000000000000000000000000000000000000000000000000000000000000000000000000BD
:40440000000000000000000000000000000000000000000000000000000000000000000000000000000000000000000000000000000000000000000000000000000000007C
:40444000000000000000000000000000000000000000000000000000000000000000000000000000000000000000000000000000000000000000000000000000000000003C
:4044800000000000000000000000000000000000000000000000000000000000000000000000000000000000000000000000000000000000000000000000000000000000FC
:020000040003F7
:0200000490303A
:020000001EAD33
:0200000490402A
:4000000000000000000000000000000000000000000000000000000000000000000000000000000000000000000000000000000000000000000000000000000000000000C0
:400040000000000000000000000000000000000000000000000000000000000000000000000000000000000000000000000000000000000000000000000000000000000080
:0200000490501A
:0C0000000002101111A000011026304D6C
:0200000490600A
:0100000001FE
:00000001FF