:400000000080002011000000ED0B0000ED0B000010B500F00BFEC04670B51222244B1A60302001F01BF8234C8025ED0525600022214B1A60214B224A1A6080225200214982
:400040000A60214919602148214908602149196021490A60214A1A60C0218900204A1160204A1A60E02149011F4A11601F4A1A60802212061E4B1A601E4A1F4B1A604222DE
:400080001E4B1A607E321E4B1A607F3A1D4B1A6002321D4B1A6001321C4B1A601C49082000F004FF082000F0EBFE256070BDC046300010400C020B4000030140000001406E
:4000C00040FF00800803014042FF0080007F1A0600050140C0FF00800403014041FF00800C03014043FF00801003014044FF008008010B404902060000010B405801014054
:4001000054010140500101402C0101400C010140D912000010B572B60122394B1A7000240FE038486200131959000B00411889881A5AC31858880004104300F051FD0134EA
:40014000E4B2012CEDD92F490C312F48143000F01DFD2E4A2E4B1A6099222E4B1A60EE2212022D4B1A6008222C4B1A6099231B042B4A13602B4A13602B4A13602B4A1360B7
:400180002B4A136003212B4B19602B4B19602B4803783C22934314221343DBB20370284A107816230343DBB213700223254A13602548264A10600920254A10602930254AFA
:4001C00010602548254A1060254A1360D8221201244B1A604E22244B1A60244A244B1A60244B19601222244B1A60113A234B1A603532234B1A60FFF70FFF00F0E1FC10BD96
:400200001C700F404832000048360000AA0000080000024000020240000302400007024010500F4020500F4040500F4050500F4070500F402000104000800F4001700F40DB
:4002400000700F4000000440310004000800044008010440000204403120C1000802044018020440080304400004044090040800080404400006044008060440000704403F
:400280000807044010B5064C2378002B07D1054B002B02D0044800E000BF0123237010BD60010020000000009C2F0000084B10B5002B03D00749084800E000BF074803681F
:4002C000002B00D110BD064B002BFBD09847F9E700000000640100209C2F0000C00000200000000010B580225201694B1A60694B1B78002B02D0684801F042FD674B1B68BE
:40030000644A52681A425DD0624B1B78002B02D0634801F035FD5F4B1B895B01614A944663449A68120E13D19A68120CFF210A40012A03D09A68120C114204D19B681B0CEB
:40034000544A937234E0584B00225A709A702FE09A68120E022A0ED19968090C534A51709968090A91709968D170DB681B0E1371002353711CE09A68120E042A11D1996820
:40038000090C4B4A51709968090A91709968D170DB681B0E1371002353710122454B1A7006E09B681B0E102B02D10122414B5A70384B1B895B013B4A9446634419680122A1
:4003C0000A431A60354B1A68324B9B891A425DD0304B1B78002B02D0374801F0D1FC354B5B885B012F4A944663449A68120E13D19A68120CFF210A40012A03D09A68120C5B
:40040000114204D19B681B0C224A937234E0264B00225A709A702FE09A68120E022A0ED19968090C214A51709968090A91709968D170DB681B0E1371002353711CE09A68D4
:40044000120E042A11D19968090C194A51709968090A91709968D170DB681B0E1371002353710122134B1A7006E09B681B0E102B02D101220F4B5A700E4B5B885B01094A87
:4004800094466344196801220A431A6010BDC04600002F40C4000020BC2F000008002F40D02F0000A0002F4000020020A8020020680200207C010020E02F000070B501F082
:4004C00015FB040001F0CAF801F0CCFC01F02EF800F0B4FF01F0D0F80D491D2000F0E6FC62B60C4800F0E8FF0B4801F0EFFC0B4B1B78002B0AD001F0CDFB094D22000949C1
:40050000280002F027F9280001F03AFC70BDC046E5020000E5060000A1060000C400002004020020F02F00008002044B9B685B01184302231843024B186070477C01002039
:4005400070020020F0B583B001F032FC050001F02FFC062831D880002F4B1B589F4610222E4B9A60002629E011222C4B9A60012624E01222294B9A6029482A492A4B186032
:40058000596002261AE0254B13229A60123A1A73032613E0214B14229A60133A1A7304260CE01E4B15229A60143A1A73052605E016221A4B9A60062600E000261B4C6368C0
:4005C000B3406360A389B340A381B3B222899A18228112494A889B184B800120FFF7A4FF2378002B16D00D4F114CBB682A001149200002F0AFF8200001F0C2FB0B4B1B89AB
:400600007A88009232000C49200002F0A3F8200001F0B6FB03B0F0BDA02F00007C010020666666666666064098020020C400002004020020043000002C30000010B504009D
:400640000022164B5A730200FF32FF235B009A4222D800F0FDFF002C0CDAC30703D50F4B1B7B002B18D0002000F0F8FE604200F095FE11E0002C0CDD830703D5074B1B7B86
:40068000002B09D0012000F0E9FE200000F086FE02E0002000F082FE10BDC0467C01002010B501F09BFB0B4B1B78002B04D0020009490A4802F04EF80122064B9A73084AE3
:4006C000537B0133DBB25373132B02D90020FFF7B5FF10BDC40000205C300000040200207C01002010B5094B1B78002B08D0084C1A220849200002F01BF8200001F040FBC1
:40070000054B1868FFF79AFF10BDC046C4000020040200207C30000088020020F0B583B000F0D8FE124B14221A70587080B2000A98700022DA701A710E4801F0EDF90E4BE3
:400740001B78022B11D10A4B1D785E789F7800F0C1FE0A4C0190009733002A000849200001F0F8FF200001F00BFB03B0F0BDC0468C02002070020020C40000200402002056
:400780009830000010B50D4B12221A7000225A709A70DA701A710A4801F0BEF9094B1B78022B0AD1054B1A785B78074C0749200001F0D0FF200001F0E3FA10BD8C02002041
:4007C00070020020C4000020040200200C31000010B582B00E4BFF221A70587099700022DA701A710B4801F097F90B4B1B78022B0CD107490A784B788978084C00910849CA
:40080000200001F0A7FF200001F0BAFA02B010BD8C02002070020020C4000020040200203031000070B5050001F0F6FE0B4B1A685B6801F041FC01F0B9FE0400084B1B78A8
:40084000002B09D0074E03002A000749300001F081FF300001F094FA200070BD98020020C4000020040200206031000070B582B0040000F02FFE241A114A1369E3181361B4
:400880005169651A50610F4A1278002A0AD00E4E0190009522000D49300001F05BFF300001F06EFA074A13695C43054B50691A69504320189B696B43C01802B070BDC04637
:4008C0007C010020C4000020040200207831000070B505001B4B1B78002B2DD01A4B1A781A4C1B49200001F035FF200001F048FA22E02800FFF796FFFFF7B8FF0400114B42
:400900001B78002B08D0114E02001249300001F021FF300001F034FA0B4B187F844202DDFFF78CFE08E04042844202DAFFF786FE02E02000FFF782FE034B1B78002BD8D011
:4009400070BDC046C40000207C0100200402002098310000A831000010B582B07B4A0123137093707A4A022111709370794A013111709370784A0231917100245471D4718C
:400980007649D1601471764A5371764A5371002001F002FAFFF792FDFFF7D4FD724B1C600020FFF74BFE714B1B79002BFBD16C4B59796C4B5A794B424B41504242411343EB
:4009C0006A4A5377537F002B72D0002934D1684B9A7A002A1FD11B78002B0BD0604B5A789B78644C00916449200001F0B3FE200001F0C6F95A4B01225A719B78DB0704D521
:400A0000574B5878FFF71AFE16E0554B58784042FFF714FE10E04E4B0021997002315970534B1B78002B07D0524C5449200001F091FE200001F0A4F94A4B5B79002B32D144
:400A40004B4B9A7A012A1DD11B78002B0DD0454B5A78DB7842494979464C00914849200001F078FE200001F08BF93E4B01225A713E4A00211170D878107711615878FFF796
:400A800027FF10E0324B0021997004315970384B1B78002B07D0374C3A49200001F05AFE200001F06DF901232E4A53712C4A5371264B9978274B9A784B424B4150424241AF
:400AC0001343234A927850424241D2B2002B01D1002A1ED0002906D11C4C61782078FFF777FE0123A3701B4B9B78002B06D1194C61782078FFF76CFE0123A370144B9B78A6
:400B0000002B06D1124C61782078FFF761FE0123A370174B9B7B002B0DD0154B1B78002B04D014221849134801F002FEFFF7F6FD00220F4B9A730D4B5B78002B00D132E751
:400B4000FFF720FE0022094B5A702CE7A0020020A402002000020020700200208C020020A802002068020020880200207C010020C400002004020020B4310000D031000099
:400B8000F43100001032000034320000F0B50025002711E0BB00C658F3B2FF22964308E06A008A181478A419527822700135013BDBB2002BF4D101370F2FEBD9F0BDC04699
:400BC0000323044A1360044A13600022034B1A607047C0463000304030003140000E3F4010B50A00002101F0ACFD10BD10B501F073FD03680C2B00D1FEE7FEE710B5030056
:400C0000084A1068C318084A9A1A802A02DC054A136005E001F060FD0C2303600120404210BDC046DC000020B802002070B50F4E0F4D13E029686B68AC68002202E001C997
:400C400001C30432A242FAD1E868002202E0002102C304328242FAD11035013E002EE9D101F040FDFFF778FEFEE7C04601000000E038000010B50E4A136801218B431360C7
:400C800000230AE0032B03D89A000A49505800E009489900094A885001332F2BF2D9FFF739FA034A116801230B43136010BDC0460000104000000000ED0B0000000000202C
:400CC000024A1168024B0B401360704700002240FFFFFFBF034B18688023DB05184000D0012070470000224030B52D4B1A783F231340042B01D9012000E0002000230AE0C1
:400D0000284A12683F210A402749C95C8A4201D1033303E001332D2BF2D9032323490A680124A2430A60224A126822490A6000280FD021490D681F4C65601F24A2431F4C9E
:400D4000247822431A4C22601D4A1278D2B20A6005E01F218A4317390A4315490A60302B0BD1002803D0174B1B78DBB202E0164B1B78DBB2154A13600CE0182B0AD1002839
:400D800003D0134B1B78DBB202E0124B1B78DBB20E4A1360104A116802230B43136030BD00F3FF0F2CFF0B409C36000050000C4034FF0B40A001002020FF0B40C0F1FF0FC5
:400DC000C1F1FF0FC3F1FF0F3FF3FF0F28FF0B40C2F1FF0F3EF3FF0F24002C4030B51A4B1A783F231340042B01D9012000E0002000230AE0154A12683F210A401449C95C62
:400E00008A4201D1033303E001332D2BF2D9032310490A680224A2430A600F4C21681F2291430E4D2D682A400A432260002803D00A4A51680A4A11600A4A944663441B78E7
:400E4000DBB2094A136030BD00F3FF0F2CFF0B409C36000024002C4034FF0B40A001002020FF0B404DF3FF0F28FF0B40034B1B680220184000D001207047C04624002C4067
:400E80001F2318401E3B8340014A13607047C04600E100E01F2318401E3B8340014A13607047C04680E100E001BE704770B504000D001F2802D90020FFF7F6FF1034A4000D
:400EC00080239B059C4664442068256070BDC04670B504000E00032902D90020FFF7E4FF1F2C02D90020FFF7DFFF03252540ED00063501F002F8A408A400074B9C466444C8
:400F000021680323AB4099430B003100A9401943216000F0F6FF70BD00E400E010B5040006E0084B586800F0DFFF074B9C46644480231B029C42F4D8024B9868604300F0AD
:400F4000D3FF10BDE00000200080FFFF30B583B000F06CF900285FD000F0CFFF04002F4A116801230B43136000230AE02C4A12683F210A402B49C95C8A4201D1033303E000
:400F800001332D2BF2D90323274A1268D20606D1254802681F218A4313390A430260234A1168234A0A40234959438020C00184466144C90B01394905490D0A43A0214903BA
:400FC00011430800192B02D81B4B1A430EE01B4A9A1812781A3B1349C9183023CB5CD318FF2B00D9FF239B0502001A430F4B1A60134D2B680193302000F086FF114A136814
:401000008021C9050B4313601420FFF787FF019B2B60200000F075FF03B030BD50000C402CFF0B409C36000034FF0B400800224000F800C040420F000000D43F4DF3FF0F0F
:40104000300010400000224010B5034B1B7B584300F04AFF10BDC046E0000020F0B55F4656464D464446F0B483B0040000F045FF0190FFF72FFE002804D0FFF721FE012343
:401080009A4601E000239A46FFF7F0FE002808D0182C01D0302C07D1FFF7A0FE01239B4604E000239B4601E000239B46E61E2D2E74D8464B1B78DBB29C4208D8444B1B789D
:4010C000DBB29946434B1B78DBB2984631E0424B1B78DBB29C4208D8404B1B78DBB299463F4B1B78DBB2984623E03E4B1B78DBB29C4208D83C4B1B78DBB299463B4B1B7861
:40110000DBB2984615E03A4B1B78DBB29C4208D8384B1B78DBB29946374B1B78DBB2984607E0364B1B78DBB29946354B1B78DBB29846344B9F5D2F2F09D92A2C07D91922D9
:40114000314B1A60052000F0CFFE192503E02E4B1D683F231D40BD4206D92A4B9A5D2A4B1A60052000F0C0FE254B9C4664442378DBB2264A1360264B4A461A60254B424635
:401180001A600520FFF760FFBD420AD21D4B9A5D1D4B1A60052000F0A7FE02E00020FFF783FE5346012B01D1FFF7D0FE5B46012B01D1FFF799FD019800F0A3FE03B03CBC91
:4011C00090469946A246AB46F0BDC04640F3FF0F41F3FF0F42F3FF0F43F3FF0F44F3FF0F45F3FF0F46F3FF0F47F3FF0F48F3FF0F49F3FF0F4AF3FF0F4BF3FF0F4CF3FF0F13
:401200004DF3FF0F9C3600002CFF0B4028FF0B401CFF0B4020FF0B40034B1868C0231B02184000D00120704700010B40034B1B68002B01DA012000E00020704700002240AB
:4012400010B500F05AFE044A1368C02109020B43136000F056FE10BD00010B4010B500F04CFE08490A68084B1A408024E40122430A600A6813408022120213430B6000F09B
:4012800040FE10BD00010B40FF3FFFFF70B5050000F033FE0400FFF7BFFF002803D0FFF7DDFF012100E0002108482840084A1568084B2B40184310601368012901D1FFF72B
:4012C000BFFF200000F01DFE70BDC0460404040010020B40FBFBFBFF10B5244B1B685B0715D5234B5B685B070ED5224B596A042001401F4C62688A4362605A6A82435A6262
:401300009B69002B00D098470420FFF7BFFF174B1B685B0518D5164B5B685B0510D5154B596A8022D2001140114842688A434260596A114A0A405A62DB69002B00D09847C0
:401340008020C000FFF7A2FF084B1B685B030CD5074B5B685B0304D5064B1B6A002B00D098478020C002FFF791FF10BD10020B40F4000020C0010020FFFBFFFF0004000C56
:40138000014B18607047C046080120400004000C014B18607047C046140120400004000C014B18607047C0460C01204070B504000D0000F0A2FDAC40024B1C6000F0A1FD37
:4013C00070BDC0460800204010B500F096FD064A116801230B43136000F093FD18210120FFF7E4FF10BDC04600002040014B18607047C0463801204010B50D4C8023DB04BC
:401400002360236823600020FFF7B8FF236823600C22084B1A600120FFF7E8FF3122064B1A60FF20FFF7B2FF0020FFF7B7FF10BD00012040240120402801204010B5064B45
:401440001B78002B04D1FFF7D7FF0122024B1A70FFF7BAFF10BDC046E801002004490A68D2B202239A434000184010430860704700070440014B18647047C0460000002049
:4014800010B5040000F039FD044A1368C0218B43A4011C43146000F034FD10BD00E400E00122014B1A60704700E100E00122014B1A60704780E100E010B50400FFF7F6FFA5
:4014C0002000FFF7D7FF0320FFF7DAFFFFF7E8FF10BDC04610B500F059F8024B9C46604400B210BD0080FFFF024B18780F2318407047C04664000F40014B18707047C04620
:4015000084000F4010B50F20FFF7F6FFFFF7ECFF00F0F3FC044A117810230B43DBB2137000F0EFFC10BDC04694000F4010B500F07FF88020000200F023F8054B1B78002B59
:4015400002D10122024B1A70FFF7DCFF10BDC046E9010020034A117880235B420B43DBB21370704773000F40014B18707047C04680000F40014B1878C0B2704760000F40EF
:40158000014B18807047C04604100F40024B1B78024B188880B2704702000F4084100F40014B188880B2704784100F40014B18807047C04644100F40014B18807047C046A0
:4015C00064100F4010B501E0FFF7EAFFFFF7D2FF4306F9D410BDC04610B5134B1A7807218A431A701A7804398A431A70FFF7EAFF802424022000FFF7D9FF2000FFF7C0FF2D
:401600000020FFF7B1FFFFF7B5FF2000FFF7D4FF00F073FC054A117810230B43DBB2137000F06FFC10BDC04673000F4090000F4010B5064B1B78002B04D1FFF7CDFF01222C
:40164000024B1A70FFF786FF10BDC046EA010020014B1878C0B2704765000F4010B500F04CFC044A117810230B43DBB2137000F048FC10BD95000F40054B1A6801210A43F6
:401680001A601B68194201D1012000E00020704704002F4010B50E4A0E4B1A60FFF7ECFF1D20FFF7EDFB0C4A116801230B431360F0231B0100E0013B002B03D0064A126802
:4016C000D207F8D5002B01D1012000E0002010BD0110000000002F4010002F4003B2002B0DDB094A1168094B0B400004034313601268074B1340984203D0012002E0022079
:4017000000E000207047C04614002F40FFFF00800000FF7F002809D10C4B19680C4A0A401A601B68DB040CD501300DE0074B1A68802149010A431A601B680B4203D10120CD
:4017400002E0002000E000207047C04614002F40FFEFFFFF70B5841EE4B20D2C35D88C1EE4B2052C03D9002B31D1012931D1032A31D8904231D3914231D31C4D2C68240AE4
:40178000E4B20F26B44320432E68194C3440000204432C602C686040F0242401204220D1002B00D002234901C9B29200D2B2114319430E4A1368EE2083430B431360136872
:4017C000034099420FD0ED380EE002200CE002200AE0022008E0022006E0022004E0022002E0012000E0002070BDC04614002F40FFF0FFFF002809D10B4B1A6810218A4307
:401800001A601B6819420BD001300CE0064B1A6810210A431A601B68194203D1012002E0002000E00020704714002F40002809D10B4B1A6801218A431A601B6819420BD082
:4018400001300CE0064B1A6801210A431A601B68194203D1012002E0002000E00020704714002F40054B18601B681B041B0C984201D0012000E000207047C04604002F40F3
:4018800010B503785B01204A944663441F4A41680A431A6003785B01634419681C4A11401C4A44682240914224D182681A6103785B0163441A6981688A421DD1C2685A61E8
:4018C00003785B0163445A69C1688A4216D1012252429A6103785B0163449A6901320FD10022DA6103785B016344DB69002B09D0012008E0012006E0012004E0012002E04A
:40190000012000E0002010BDA0002F40800080007F007F007FFF7FFF10B503781B01104A944663440F4A41680A431A6003781B01634419680C4A11400C4A44682240914213
:401940000AD182685A6003781B0163445A6883689A4203D0012002E0012000E0002010BD20002F4008008000F7007F00F7FF7FFF70B500240AE063001B199800104B18186F
:40198000FFF7CAFF002805D10134E4B2072CF2D9002500E00125002D0BD00FE0230108486030C018FFF76CFF002806D10134E4B200E000240F2CF1D900E00125280070BD14
:4019C000E4360000002809D10C4B19680C4A0A401A601B689B040CD501300DE0074B1A68802189010A431A601B680B4203D1012002E0002000E000207047C04614002F40EB
:401A0000FFDFFFFF10B580221206344B1A60344A136801218B431360C8231B0200E0013B002B03D02E4A1268D207F8D4002B4AD01D20FFF72FFA2B491D20FFF737FA0321A0
:401A40001D20FFF745FA1320FFF748FE00281AD1FFF760FE002818D1FFF7B4FF002816D10023012201210C30FFF774FE002810D10130FFF7BFFE00280DD1FFF7D7FE002863
:401A80000BD001230AE0012308E0012306E0012304E0012302E0012300E00023002B14D1FFF766FF002812D10F48FFF7DBFE00280FD10B4B1A6807218A431A601B68194229
:401AC00009D0013008E0012006E0012004E0012002E0012000E0002010BDC04600042F4010002F40151B00000110000010B5084B1B78002B02D1FFF785FF00E00020002873
:401B000004D10122024B1A70FFF7C4FD10BDC046EB0100207047C046F8B54F464646C0B4040001200023984691E04C4B1B6832041A427AD12379002B01D1002701E080276B
:401B4000BF036379002B07D12B01454A94466344226852055A6009E080235B031F432B013F4A944663442268D2005A60A379072B03D81B041F43B94603E080231B031F43A6
:401B8000B946E379002B03D004234A461A43914600232AE0032B13D92801324A94466044026894465907CA1AD1003831FF228A4067469743E268D25C8A403A43026012E030
:401BC0002801274A94466044826894465907CA1AD1001831FF228A4067469743E268D25C8A403A4382600133DBB2A279934201D2072BCFD91D20FFF74DF92B01184A944659
:401C00006344194A4F4617431F60227A002A04D0196803220A431A6003E0196801220A431A601D20FFF72CF900207600F6B2002807D00135EDB201E001260025072D00D834
:401C400073E7002806D043460133DBB298464346022BF1D90CBC90469946F8BD08002F4020002F402C002F400800800010B500F075F810BD10B500F01DF810BD10B5044A70
:401C80001368802109060B431360FFF7EFFF10BD0000254010B5064B1B78002B04D1FFF7E9FF0122024B1A70FFF7E8FF10BDC046EC010020154A164B1A600023154A1360B5
:401CC0001549164A1160164A16490A6007201649086016490B6006381549086015490A60154A13600421154A1160154A1360154A1360154A1360154A1360154A1360154AC8
:401D000013601268144B1A807047C0460B000002000025404000254001000A004800254007000080000325400403254010032540440025400002254004022540500025402E
:401D4000880E2540C80E2540480F2540080F2540C80F2540880F2540EE01002005490B68F0229343603A13430B60034B1A88034B1A60704700020240EE010020880F2540EC
:401D800070B50500002402E000F0FCF80134285D0028F9D170BDC04604490A687F231A40C301D8B2104308607047C04600020440014B1878C0B2704763000F40034A1178DC
:401DC00080235B420B43DBB21370704775000F40014B18707047C04686000F40014B1878C0B2704766000F4010B50100014800F0B5F810BD24000F4010B5024800F0B8F80F
:401E000010BDC04644000F4010B50100014800F0A5F810BD04000F4010B501E0FFF7ECFFFFF7DCFF0307F9D410BDC04610B50B4C2000FFF7D9FF2000FFF7E6FF00F05DF834
:401E4000074A117810230B43DBB2137000F059F8FFF7E2FF0120FFF7BBFF10BD3F420F0096000F4010B5064B1B78002B04D1FFF7DDFF0122024B1A70FFF7A0FF10BDC046EF
:401E8000F0010020014B58647047C0460000002010B5040000F031F8044A1168044B0B40A4031C43146000F02CF810BD00E400E0FF3FFFFF0222014B1A60704700E100E02C
:401EC0000222014B1A60704780E100E010B50400FFF7F6FF2000FFF7D5FF0320FFF7D8FFFFF7E8FF10BDC0460230800803D00138FDD1C046C046C0467047EFF3108072B6CB
:401F0000704780F31088704770B50400FFF7F5FF0500102C05D8104A136803218B43136016E0202C07D80C490B6803229343023A13430B600CE0302C07D807490B680322CD
:401F40009343013A13430B6002E00020FEF7ACFF2800FFF7D6FF70BD30001040CBB203700B0ADBB24370090CC9B281707047C0460378427812021A4383781B041A4310009D
:401F80007047C046044B1B681F221340082BF9D0024B18607047C0460802254040022540002243088B4274D303098B425FD3030A8B4244D3030B8B4228D3030C8B420DD35B
:401FC000FF22090212BA030C8B4202D31212090265D0030B8B4219D300E0090AC30B8B4201D3CB03C01A5241830B8B4201D38B03C01A5241430B8B4201D34B03C01A52419C
:40200000030B8B4201D30B03C01A5241C30A8B4201D3CB02C01A5241830A8B4201D38B02C01A5241430A8B4201D34B02C01A5241030A8B4201D30B02C01A5241CDD2C3096B
:402040008B4201D3CB01C01A524183098B4201D38B01C01A524143098B4201D34B01C01A524103098B4201D30B01C01A5241C3088B4201D3CB00C01A524183088B4201D3C4
:402080008B00C01A524143088B4201D34B00C01A5241411A00D20146524110467047FFE701B5002000F006F802BDC0460029F7D076E770477047C046F0B55F4656464D46C7
:4020C0004446F0B40D0399464E002B0B87B00700924680469B46760DCC0F002E69D06D4B9E4235D05B468022DD001204430F13432B439B46C3009846674B00279C46002374
:40210000664401934A4615035000D20F53462D0B400D914600D176E05E4A90426CD080225B0F120413435C4AED0094461D4353460022DB00604449463618701C614002909B
:4021400017430F2F00D9AFE05448BF00C759BF465B461F4300D088E000239B469846023308270193CEE74946022A6AD0032A00D109E2012A00D0BBE11140002200230025E5
:402180009046CCB200212D030A0D12052D0B1543434A1B0515401D436D00E4076D0825434046290007B03CBC90469946A246AB46F0BD034352D05B46002B00D18AE158467E
:4021C00000F06CFA03000B3B1C2B00DD7BE11D22D31A3A0001005D46DA4008398D4013008F402B439B46B8462E4B00279C46002360444642019385E752462A432CD1002567
:402200000023022297E752462A4321D0002D00D154E1280000F042FA03000B3B1C2B00DD46E11D21CB1A51460200D9405346083A954093400D431B4A944660444042002299
:4022400079E7012400220C40124B0025904699E70025002301226EE703226CE700239B4698460133042701934CE703230C27019348E700238025984600242D03054B81E785
:402280005D464346019A6FE75D4643462100019A6AE7C046FF07000001FCFFFF44380000FFFF0F80F30300004246120C91461A0C9446424617044A461B041B0C5A43604689
:4022C00090464A4642431000039262461C003F0C7A437C4342440192220C9246019A5244904506D98246802040028046C24450460390100C049048462404240C1204121949
:4023000005922A0C2D042D0C68432C00824648467C4350438146200C8046574357444744BA4503D9802040028046C144380C3F04B84648442404240C01900498A0444044E8
:4023400004905846000C814658460404200C8246070048465F434C464343604660436446834650464443380C8446E4186444A34203D980235B029C46E34448463F04230C1A
:402380003F0C2404E419574668436F4384464D46504655434243380C814662444A445B44944503D9802040028446654403983F04834604983F0C8446E344C34580414042F1
:4023C0008246100484460198674484466744A344BC46A345A4419946D44464428742BF41D4458041E144A04699459B417F424042C8440743120CBA18A045A4415F423B0094
:4024000064422343D71843467D19DB0D6D021D435B465A02059B1A43531E9A415B46DB0D1A4343465B021343EA0107D501225C0813402343EA07029E13436D08574AB21895
:40244000002A4BDD580709D00F201840042805D0181D98429B415B42ED180300E80104D54F4A15408022D200B2184E48824200DDE7E60124DB08680718436D025305804669
:402480002D0B5B0D0C407DE6802259461203114208D0154206D115432D0398462D0B4C46414B6FE65D4615432D032D0B3E4B69E603005546283B9D400023BCE6504600F0A9
:4024C000EDF82030A8E60300283B9F400023BB46984689E600F0E2F8203073E60124A61A382E07DD00220C4000230025904649E6029EA3E71F2E20DC20222C001800921B60
:40250000F040944093400443581E83411C43F540630709D00F232340042B05D023001C1D9C4292415242AD182B021FD5012400220C4001230025904624E61F202C004042A3
:40254000821AD440202E1CD04022961BB5402B43581E83410720234318400025002809D00F2200251A401C00042AD8D1230068076D022D0B0124DB08034398460C4000233F
:4025800000E60025E3E780220124120315432D0398462D0B0C40044BF4E5C046FF030000FFFFFFFEFE070000FF0700000B0330B5134D1A0B4B005B0DC90F0024AB4211DD48
:4025C000104CA34210DC8024640322430E4CE41A1F2C0CDD0D48C31ADA4013005C42002900D11C00200030BD094BCC18FAE7E040084CA44663449A4013000343EEE7C04666
:40260000FE0300001D0400003304000013040000FFFFFF7FEDFBFFFF70B5002830D0C317C4185C40C50F200000F038F8174B184A1B1AD21A1F2A18DD164AD21A94400022B0
:4026400024035B05240B5B0D0021100024030A0D1205240B1443104A1B0514401C436400ED0764082C43210070BD210091400A000B21081AC4405B052403240B5B0DE3E74C
:402680000025002300240022DEE7C0461E0400003304000013040000FFFF0F801C2101231B04984201D3000C10391B0A984201D3000A08391B09984201D30009043902A267
:4026C000105C40187047C04604030202010101010000000000000000014B18687047C0465C0100200E4B70B500251E000D4CE41AA410A54204D0AB00F35898470135F8E7D3
:4027000001F0DCF8084B00251E00084CE41AA410A54204D0AB00F35898470135F8E770BDC8380000C8380000C8380000D0380000002310B59A4203D0CC5CC4540133F9E773
:4027400010BD03008218934202D019700133FAE7704700000EB410B59DB002A9029008610B48822488604861012040421FABC881084804CBA400006801938C8100F06EF817
:402780000023029A13701DB010BC08BC03B01847FFFFFF7F5C010020F0B58E6885B007000C00039201939E4243D890238A89DB001A423ED003250969236801985B1A029395
:4027C00063695D43EB0F5D19029B6D1001331B18AB4200D91D00530510D52900380000F037FB061E14D0029A2169FFF7A1FFA289194B134080221343A38112E02A003800C3
:4028000000F086FB061E0CD12169380000F0D4FA0C23402201203B60A38940421343A38117E0029B2661F61826606561019EED1AA560019BB34200D21E003200039920683A
:4028400000F0A5FA0020A3689B1BA36023689E19266005B0F0BDC0467FFBFFFFF0B59FB0029005938B890F0016001B0610D50B69002B0DD1402100F0EBFA386038610028D4
:4028800004D10C23029A01381360D8E040237B61002306AD6B6120336B761033AB7634002378002B03D1A31B049312D003E0252BF9D00134F4E7A31B320039000298FFF7D1
:4028C0006BFF431C00D1B4E06A69049B944663446B612378002B00D1ABE00122002352426A6002A95432521801342B60EB60AB601370AB65534E21780522300000F03CFA2A
:40290000002807D00123801B83402A68013413432B60EFE72B68DA0604D55322202102A8121811701A0704D553222B2102A81218117022782A2A03D0099B00200A210EE093
:40294000059A111D12680591002A01DB099204E05242EA60022213432B6001340BE02278303A092A04D84B4301349B180120F6E7002800D0099323782E2B1ED163782A2BC4
:402980000AD1059B02341A1D1B680592002B01DA01235B42079310E000230A201A0001346B6021783039092904D84243013452180123F6E7002B00D00792234E2178032265
:4029C000300000F0D9F9002806D04023801B83402A68013413432B60217806221B48661C297600F0C9F9002812D0194B002B06D10722059B073393430833059314E005ABC7
:402A000000933A00134B2900029800E000BF07E005AB00933A000F4B2900029800F08AF80390039B013304D06B69039A9B186B6135E7BB890B985B0601D5012040421FB041
:402A4000F0BDC046863800008C380000903800000000000099270000F7B5170001938A680B6900900C00934200DA130022003B6043321278002A01D001333B6023689B06CC
:402A800002D53B6802333B60062523681D401ED0230043331B785A1E9341226892061CD53020E1184331087021005A1C45310978A2184332023311700FE022000123193218
:402AC00001990098089EB047431C0ED00135E3683A689B1A9D42F0DBDAE72200019943320098089DA847431C02D10120404220E006232068E1683A6803400025042B03D14E
:402B00008D1AEB43DB171D40A3682269934201DD9B1AED180027BD420AD0220001231A3201990098089EB047431CDED00137F2E70020FEBDF0B58BB006920A004332079383
:402B4000059004920A7E0C00109B6E2A00D1ABE011D8632A22D009D8002A00D1B5E0582A00D0C5E045310A70814A4FE0642A1DD0692A1BD0BCE0732A00D1AAE009D86F2A36
:402B800029D0702A00D0B3E0202209680A43226037E0752A1FD0782A33D0A9E00E001A684236111D196013683370A4E021681A68080606D4490604D5111D19600023D55E61
:402BC00002E0111D19601568002D3BDA2D23049A6D42137036E021681A68080606D4490604D51568111D1960ADB202E0111D196015685F4B227E039308276F2A1DD00A27ED
:402C00001BE022007821453211705A4A19680392081D226818600D68100602D4500600D5ADB2D30702D520231A4322601027002D03D1202322689A43226023000022433328
:402C40001A7002E00A274A4B03936368A360002B09DB0422216891432160002D05D1049E002B11D07BE0002D79D0049E28003900FFF71CFA039B013E5B5C28003370390082
:402C8000FFF78EF9051EF1D1082F09D12368DB0706D563682269934202DC3023013E3370049B9B1B23612BE009681A68080607D4490605D5111D19601368A28A1A8004E066
:402CC000111D1960136862691A600023049E236116E01A68111D1960166800216268300000F04AF8002801D0801B6060636803E0260042363270012323610023049A13700C
:402D0000079B09AA00932100069B0598FFF7A4FE431C02D10120404227E02369320006990598079DA847431CF4D0236800259B070FD4099BE068984217DA180015E022000D
:402D40000123193206990598079EB047431CE1D00135E368099A9B1A9D42F0DBE9E72600039B42361B7833708EE70BB0F0BDC04697380000A8380000C9B28218904204D0EA
:402D800003788B4202D00130F8E70020704710B5884202D98B18984201D3002305E09B1A013A08D3995C8154FAE7934203D0CC5CC4540133F9E710BD70B50500002944D0A9
:402DC0000C1F2368002B00DAE418280000F0D8F81E4A13681100002B02D16360146031E0A3420DD92268A018834203D118685B688218226063600C6024E0A24203D81300F0
:402E00005A68002AF9D11E689819A0420BD12168711858181960824214D110685268411819605A600EE0A04202D90C232B6009E021686018824203D1106852684118216092
:402E400062605C60280000F09CF870BDF8010020032370B5CD1C9D43083506000C2D01D20C2501E0002D01DBA94202D90C23336048E0300000F084F8234B1C681A002100EB
:402E8000002913D00B685B1B0DD40B2B02D90B60CC181EE08C4202D1636813601AE04B6863600C0016E00C004968E9E7174C2368002B03D1300000F051F8206029003000D1
:402EC00000F04CF8431C18D00323C41C9C43A0420DD12560300000F054F8200007220B30231D9043C31A0ED05A42E2500BE0211A300000F033F8431CEBD10C233000336023
:402F000000F03FF8002070BDF8010020F4010020F8B506000C001500002904D11100FFF797FF040018E0002A03D1FFF745FF2C0012E000F027F885420ED929003000FFF722
:402F400087FF071E07D021002A00FFF7F1FB21003000FFF731FF3C002000F8BD002370B5064C050008002360FDF748FE431C03D12368002B00D02B6070BDC046B00200206D
:402F8000704770470B1F1A68101F002A04DA891804390B68D018043870470000000000005E05000068050000720500008605000094050000A2050000B00500000A204361FF
:402FC0006E207278207472696767657265640A0050302072656369657665640A0000000050312072656369657665640A0A00000043414E5F537461727428293A20202575E1
:403000000D0A000043414E206469702073657474696E673A20202578204D6573736167652049443A20256C640D0A000043616E2073686966743A20256420202050304D615C
:40304000696C626F783A2025642050314D61696C626F782025640D0A00000000506572696F6420696E7465727570742074726967676572642025780D0A0000004C696D694D
:403080007420696E7465727570742074726967676572640D0A00000043414E5F53656E645F456E636F6465723A20627974655B30755D20257820627974655B31755D2025F9
:4030C0007820627974655B32755D2025780A205175616444656320436F756E742025640D0A00000054656C656D657274793A20627974655B30755D20257820627974655BAC
:4031000031755D2025780D0A000000004D6F64656C3A20627974655B30755D20257820627974655B31755D2025780D0A000000004572726F723A20627974655B30755D2004
:40314000257820627974655B31755D20257820627974655B32755D2025780D0A000000006465677265653A202564207469636B733A2025640D0A0000703A2025642C20692D
:403180003A20256420642025642063757272656E742025640D0A0000636F6D706C6574653A2025640D0A000050574D3A2025640D0A00000042313A2025642C2042323A206B
:4031C000256420646F6E652025780D0A000000004D6F6465206973206E6F742073657420746F20302C206D6F64652069732025640D0A000042313A2025642C2042333A20DD
:40320000256420646F6E652025780D0A000000004D6F6465206973206E6F742073657420746F20312C206D6F64652069732025640D0A00000A53656E64696E672044617401
:40324000612E2E2E200D0A0000300F40000800400F400008806F840F8503860D04070594076009300A040BC90C070D9E0F601001117312021410180119CF1A021B302207C0
:40328000230F240425FD27022A082E10301033FF360F3E013F04540F580459045B045C015D105F05800F84038596860C8768880C8A038C0A8E058F01917F950E97F099A315
:4032C0009B5CA5FEA701A805AA0AAC07ADC5AF3AB3FFB40FBF04D804D904DC01DF010120020203200488051209100A200B401042110812081608174019411B401F202208DE
:40330000271028402B602E802F203110320235303602370838A83A803B403D083E48582059095A8061247A02C0F7C20EC4CFCA53CCE5CE5ED60FD806DE08000103080A01AC
:403340000B100C010D06110318011906210524012A02300331073310350839024036410549FF4AFF4BFF4DA04F015018580459045A045C115D015F016040628064406540E0
:40338000668068406A806C406D206E80800183048C088F0191019F08A803A908AA0CAC03AF03B004B102B208B301B401B504B602B708B8A0BE14BF44C062C105C54EC6C02E
:4033C000C723C83BC9FFCAFFCBFFCDAFCE07CF01D018D280D804D904DA04DB04DC11DD11DF01E040E280E440E540E680E840EA80EC40ED20EE800040034004A005020E044F
:40340000100A1718184419081A031B101E401F02210A225824282514260227482B062D02308031023510360238023A803D023E103F4040044508488049444A084B804FA08C
:40344000500B512058905B047280802181018E10934094A896E099429B109C209D1C9F48A340A402A534A602B102B320C0D9C240C463CA8CCCA9CEB9D044D23CD60EE41081
:40348000000B02040C0C0D010E01122013011420180C1A021E2022102408260129012A0F2C0730203210340F35013E013F10405149FF4AFF4BFF4F015018540F58045904DA
:4034C0005A045B045C015D135F016040624064406540668068806A806C806E8080018402870F89088B018D0C8F029107A10BA304A50CA701B002B10FB201C041C9FFCAFFE6
:40350000CBFFCD83CE03CF01D018D280D604D804D904DA04DB04DC12DD33DF01E040E240E440E540E680E880EA80EC80EE800040010205050A150B801080112812021910CE
:403540001A541B041EA0221024C02B042D022E04320136023B803C403D28438045804680480159025A605B045EA06740740176808202830487409203938094809604990275
:403580009D10A080A114A202A704AB04AC10B480C039C20FC40FCAC4CC81CE78D098D208D63FD880EA01EE0202011E0130013E01404145EC4602480749FF4AFF4BFF4D83CD
:4035C0004E034F0150185401560458045A045B045D335F016040624064406540668068806A806C806E8006800D801E80458046804D044F01558057805D045E805F016780DE
:4036000087409A80A580A780B505C010C280D090D6D0D880E810EC406B026F02DAC00340072083408F209F02A702C030E48009010F8087029F02A702C230E6408702A70267
:40364000B501B740E210012004100720C007AB20AD20B410EA08010E1002120E04000F4041300F402E310F405E320F4045330F4057340F403D350F401F360F4019370F40B4
:4036800003400F4008410F4007420F4005430F4004450F4004460F4003600F40030405060708090A0B0C0E0F101112131415161718191B1C1D1E1F202122232526272829BF
:4036C0002A2B2E2F3031323334350000EEDBC9B9AA9B8E82766B60564D443B332C241D17100A040000000000080088000000000001000000080088000000000002000000EE
:403700000800880000000000030000000800880000000000040000000800880000000000050000000800880000000000060000000800880000000000070000000800880010
:40374000000000000000000028000000F9FF1F000000008A0100000028000000F9FF1F000000208A0200000028000000F9FF1F000000408A0300000028000000F9FF1F0049
:403780000000608A0400000028000000F9FF1F000000808A0500000028000000F9FF1F000000A08A0600000028000000F9FF1F000000C08A0700000028000000F9FF1F008F
:4037C0000000000A0800000028000000F9FF1F000000200A0900000028000000F9FF1F000000400A0A00000028000000F9FF1F000000600A0B00000028000000F9FF1F00BF
:403800000000800A0C00000028000000F9FF1F000000A00A0D00000028000000F9FF1F000000C00A0E0000000000000000000000000000000F0000000000000000000000D6
:4038400000000000A8220000682100006821000066210000802200008022000072220000662100008022000072220000802200006621000088220000882200008822000029
:40388000882400004300232D302B2000686C4C006566674546470030313233343536373839414243444546003031323334353637383961626364656600000000F8B5C04673
:4038C000F8BC08BC9E467047AD020000750C0000F8B5C046F8BC08BC9E46704785020000F0380000C0000020A00000005801000000000000020000008000000007000200AC
:40390000010001000100000001000000B8020020010000000000204E409C000028000000005A6202F00000000404040000000000000000000000000000000000000000007C
:40394000000000000000000000000000843800000000000000000000000000000000000000000000000000000000000000000000000000000000000000000000000000008B
:40398000000000000000000000000000FC000020000000000000000000000000000000000000000000000000000000000000000000000000000000000000000000000000EB
:4039C00000000000000000000000000000000000000000000000000000000000000000000000000000000000000000000000000000000000000000000000000000000000C7
:403A00000000000000000000000000000000000000000000000000000000000000000000000000000000000000000000000000000000000000000000000000000000000086
:403A40000000000000000000000000000000000000000000000000000000000000000000000000000000000000000000000000000000000000000000000000000000000046
:403A80000000000000000000000000000000000000000000000000000000000000000000000000000000000000000000000000000000000000000000000000000000000006
:020000040003F7
:0200000490303A
:02000000E8D442
:0200000490402A
:4000000000000000000000000000000000000000000000000000000000000000000000000000000000000000000000000000000000000000000000000000000000000000C0
:400040000000000000000000000000000000000000000000000000000000000000000000000000000000000000000000000000000000000000000000000000000000000080
:0200000490501A
:0C0000000002101111A000011022FA747F
:0200000490600A
:0100000001FE
:00000001FF