:400000000080002011000000ED030000ED03000010B500F0F3F9C04610B51222124B1A60302000F00FFC114A114B1A60C0229200104B1A60104A114B1A6080221206104BAE
:400040001A608022D2020F4B1A6040220E4B1A600E49082000F040FB082000F031FB00220B4B1A6010BDC046300010400600008004010B400003014040FF0080000001403A
:4000800008010B4000010B402C010140C10A00000C020B4010B572B60122354B1A7000240FE034486200131959000B00411889881A5AC31858880004104300F091F90134D4
:4000C000E4B2012CEDD92B490C312B48543000F05DF9C0229204294B1A60EE221202284B1A600822274B1A6099231B04264A1360C0218905254A1160254A1360254A13602B
:40010000254A13600723254A1360254A136025490B783C22934314221343DBB20B70224A117816230B43DBB2137040221F4B1A60C02252031E4B1A600A221E4B1A601E4AD3
:400140001E4B1A60D82212011D4B1A600F221D4B1A601D4A1D4B1A6001221D4B1A6035321C4B1A60FFF758FF00F02AF910BDC0461C700F403011000030130000000102402F
:40018000000302400007024010500F4018500F4020500F4050500F4070500F402000104000800F4001700F4000700F40000104400801044000020440B06D0000080204408D
:4001C00008030440000404409204000008040440000704400807044010B5064C2378002B07D1054B002B02D0044800E000BF0123237010BD48010020000000002C110000CD
:40020000084B10B5002B03D00749084800E000BF07480368002B00D110BD064B002BFBD09847F9E7000000004C0100202C110000C00000200000000070B5050000F054FDEB
:400240000028FBD0164B5A681A6000229A6013E0134C23689B00134A9A58002100F066FD236801332360172B02D900220C4B1A600B4A936801339360094B98680328E7D98F
:40028000012000F0FBFC064A536801335360172B02D90022024B5A60280000F02FFA70BD64010020E813000010B504000200FF32FF235B009A4224D800280EDA114BDB6810
:4002C000DB0703D5104B1B68002B06D0002000F0B1FE604200F04EFE13E0002C0EDD094BDB689B0703D5084B1B68002B06D0012000F0A0FE200000F03DFE02E0002000F0EA
:4003000039FE10BD64010020C400002070B500F05BFD042000F01CFD1B4BD86E00F0F2FC012000F0ABFC62B600F074FE002400F031FC0126304000F021FC00F02BFC800876
:40034000304000F0A5F800F025FC4008304000F0ABF800F01FFCC008304000F003FC6420FFF76AFF002D01D00A3400E00A3CFF2C03DC2300FF3302DB02E0002500E0012564
:400380002000FFF791FFD2E7E8130000F0B50025002711E0BB00C658F3B2FF22964308E06A008A181478A419527822700135013BDBB2002BF4D101370C2FEBD9F0BDC04617
:4003C0000323044A1360044A13600022034B1A607047C0463000304030003140000E3F4010B50A00002100F099FE10BD10B500F069FE03680C2B00D1FEE7FEE770B50F4EC1
:400400000F4D13E029686B68AC68002202E001C901C30432A242FAD1E868002202E0002102C304328242FAD11035013E002EE9D100F04EFEFFF76AFFFEE7C046010000008C
:40044000D017000010B50E4A136801218B43136000230AE0032B03D89A000A49505800E009489900094A885001332F2BF2D9FFF711FE034A116801230B43136010BDC0461E
:400480000000104000000000ED0300000000002004490A68D2B208239A43C00018401043086070470002044004490A68D2B204239A438000184010430860704700020440EA
:4004C00000230AE00D4A12683F210A400C49C95C8A4201D1033303E001332D2BF2D9032308490868084A02400A60084A944663441B78DBB2064A13607047C0462CFF0B401E
:40050000B813000000002240FFFFFFBF4DF3FF0F28FF0B40034B18688023DB05184000D0012070470000224030B52D4B1A783F231340042B01D9012000E0002000230AE084
:40054000284A12683F210A402749C95C8A4201D1033303E001332D2BF2D9032323490A680124A2430A60224A126822490A6000280FD021490D681F4C65601F24A2431F4C66
:40058000247822431A4C22601D4A1278D2B20A6005E01F218A4317390A4315490A60302B0BD1002803D0174B1B78DBB202E0164B1B78DBB2154A13600CE0182B0AD1002801
:4005C00003D0134B1B78DBB202E0124B1B78DBB20E4A1360104A116802230B43136030BD00F3FF0F2CFF0B40B813000050000C4034FF0B407801002020FF0B40C0F1FF0FBC
:40060000C1F1FF0FC3F1FF0F3FF3FF0F28FF0B40C2F1FF0F3EF3FF0F24002C4030B51A4B1A783F231340042B01D9012000E0002000230AE0154A12683F210A401449C95C29
:400640008A4201D1033303E001332D2BF2D9032310490A680224A2430A600F4C21681F2291430E4D2D682A400A432260002803D00A4A51680A4A11600A4A944663441B78AF
:40068000DBB2094A136030BD00F3FF0F2CFF0B40B813000024002C4034FF0B407801002020FF0B404DF3FF0F28FF0B40034B1B680220184000D001207047C04624002C405E
:4006C0001F2318401E3B8340014A13607047C04600E100E001BE704770B504000D001F2802D90020FFF7F6FF1034A40080239B059C4664442068256070BDC04610B5040071
:4007000006E0084B586800F0A3FC074B9C46644480231B029C42F4D8024B9868604300F097FC10BDC80000200080FFFF70B582B000F070F9002862D000F093FC0500314A3C
:40074000116801230B43136000230AE02E4A12683F210A402D49C95C8A4201D1033303E001332D2BF2D903230021294A1160294A1268D20606D1274802681F318A431339C0
:400780000A430260244C2168244A1140244A5A438023DB019C466244D20B013A5205520D0B001343A0225203134323601D4B1B680193302000F05CFC1B4A13688021C9053B
:4007C0000B4313602668194B1E40002407E00120FFF794FF1034A30533430F4A1360EE2CF5D90120FFF78AFFFF239B051E430A4B1E60019A0B4B1A60280000F036FC02B020
:4008000070BDC04650000C402CFF0B40B813000028FF0B4034FF0B400800224000F800C040420F003000104000002240FFFF3FC010B5034B1B7B584300F00AFC10BDC04619
:40084000C8000020F0B55F4656464D464446F0B483B0040000F005FC0190FFF75BFE002804D0FFF72DFE01239A4601E000239A46FFF71CFF002808D0182C01D0302C07D182
:40088000FFF7CCFE01239B4604E000239B4601E000239B46E61E2D2E74D8464B1B78DBB29C4208D8444B1B78DBB29946434B1B78DBB2984631E0424B1B78DBB29C4208D8F6
:4008C000404B1B78DBB299463F4B1B78DBB2984623E03E4B1B78DBB29C4208D83C4B1B78DBB299463B4B1B78DBB2984615E03A4B1B78DBB29C4208D8384B1B78DBB2994698
:40090000374B1B78DBB2984607E0364B1B78DBB29946354B1B78DBB29846344B9F5D2F2F09D92A2C07D91922314B1A60052000F08FFB192503E02E4B1D683F231D40BD42B4
:4009400006D92A4B9A5D2A4B1A60052000F080FB254B9C4664442378DBB2264A1360264B4A461A60254B42461A600520FFF760FFBD420AD21D4B9A5D1D4B1A60052000F010
:4009800067FB02E00020FFF7A5FE5346012B01D1FFF7CCFE5B46012B01D1FFF7C5FD019800F063FB03B03CBC90469946A246AB46F0BDC04640F3FF0F41F3FF0F42F3FF0FF3
:4009C00043F3FF0F44F3FF0F45F3FF0F46F3FF0F47F3FF0F48F3FF0F49F3FF0F4AF3FF0F4BF3FF0F4CF3FF0F4DF3FF0FB81300002CFF0B4028FF0B401CFF0B4020FF0B4051
:400A0000034B1868C0231B02184000D00120704700010B40034B1B68002B01DA012000E0002070470000224010B500F01AFB044A1368C02109020B43136000F016FB10BD7D
:400A400000010B4010B500F00CFB08490A68084B1A408024E40122430A600A6813408022120213430B6000F000FB10BD00010B40FF3FFFFF70B5050000F0F3FA0400FFF729
:400A8000BFFF002803D0FFF7DDFF012100E0002108482840084A1568084B2B40184310601368012901D1FFF7BFFF200000F0DDFA70BDC0460404040010020B40FBFBFBFFDA
:400AC00010B5244B1B685B0715D5234B5B685B070ED5224B596A042001401F4C62688A4362605A6A82435A629B69002B00D098470420FFF7BFFF174B1B685B0518D5164B96
:400B00005B685B0510D5154B596A8022D2001140114842688A434260596A114A0A405A62DB69002B00D098478020C000FFF7A2FF084B1B685B030CD5074B5B685B0304D5B9
:400B4000064B1B6A002B00D098478020C002FFF791FF10BD10020B40DC00002098010020FFFBFFFF04490A68D2B210239A43000118401043086070470002044004490A68E3
:400B8000D2B202239A434000184010430860704700020440014B1878C0B2704763000F40114B1B68022B1AD80F494A68581C086050008218D3189B000C4A9B580C4A12683B
:400BC000D3400C4A12681340D8B20B4A1070180AC0B210701B0C8B60DBB2137002E01122064B1A707047C046C0010020D8010020E8010020E401002045000F4075000F403D
:400C00002122164B1A70164A536801335360002B1FD1DBB2134A1370114A53685900CB189B0011495B5811490968CB40104909680B40D8B20F490870180AC0B208701B0C8A
:400C4000D360DBB20B70012313600922034B1A7002E00122084B1A607047C04675000F40C001002073000F40D8010020E8010020E401002045000F40EC010020002804D005
:400C80000023114A5360114A13700F4843685A00D3189A000E4BD3580E4A1268D3400E4A12681340D9B20D4A1170190AC9B211701B0CDBB21370012303601922084B1A705E
:400CC0000022084B1A607047C001002073000F40D8010020E8010020E401002045000F4075000F40EC010020044B1868002803D00022034B1A7001207047C046EC01002090
:400D000075000F4010B500210BE04B005B189B189B00054C1851013200E00022022AF4D901310029F9D010BDD801002000280BDB002909DB022807DC002905DC4B00591852
:400D400008188000014BC2507047C046D801002002280FD002D8012805D020E0032810D0042815D01BE0114A114B1A600122114B1A601AE0104A0E4B1A6002220D4B1A6080
:400D800013E00E4A0A4B1A6003220A4B1A600CE00B4A074B1A600422064B1A6005E0094A034B1A600022034B1A6070477F7F7F00E4010020E80100203F3F3F001F1F1F00E1
:400DC0000F0F0F00FFFFFF0010B50322144B1A703832144B1A700B3A134B1A70143A134B1A70134C012323700020FFF78BFF00232370002000F026F80020FFF7A9FF0D4B90
:400E00001B7D002B08D101220A4B1A750A4800F061F80A4800F090F80122094B1A6010BD93000F4043000F4023000F4033000F4075000F40C0010020010C0000A10B000026
:400E4000EC01002000280CD10C4A0D4B1A6005220C4B1A6002320C4B1A6019320B4B1A600BE0064A064B1A600522064B1A600232054B1A601932054B1A607047C815000081
:400E8000F8010020F0010020FC010020F4010020014B18647047C0460000002010B5040000F0DFF8044A1368C0218B43A4011C43146000F0DAF810BD00E400E00122014BEF
:400EC0001A60704700E100E00122014B1A60704780E100E010B50400FFF7F6FF2000FFF7D7FF0320FFF7DAFFFFF7E8FF10BDC046014B58647047C0460000002010B504002F
:400F000000F0AFF8044A1168044B0B40A4031C43146000F0AAF810BD00E400E0FF3FFFFF0222014B1A60704700E100E00222014B1A60704780E100E010B50400FFF7F6FFE8
:400F40002000FFF7D5FF0320FFF7D8FFFFF7E8FF10BDC0460004000C014B18607047C046080120400004000C014B18607047C046140120400004000C014B18607047C04656
:400F80000C01204070B504000D0000F06AF8AC40024B1C6000F069F870BDC0460800204010B500F05EF8064A116801230B43136000F05BF818210120FFF7E4FF10BDC04699
:400FC00000002040014B18607047C0463801204010B50D4C8023DB042360236823600020FFF7B8FF236823600C22084B1A600120FFF7E8FF3122064B1A60FF20FFF7B2FF8E
:401000000020FFF7B7FF10BD00012040240120402801204010B5064B1B78002B04D1FFF7D7FF0122024B1A70FFF7BAFF10BDC046D501002004490A68D2B202239A4340003C
:40104000184010430860704700070440000000000230800803D00138FDD1C046C046C0467047EFF3108072B6704780F31088704770B50400FFF7F5FF0500102C05D8104A60
:40108000136803218B43136016E0202C07D80C490B6803229343023A13430B600CE0302C07D807490B6803229343013A13430B6002E00020FFF70EFB2800FFF7D6FF70BD6D
:4010C00030001040014B18687047C046440100200E4B70B500251E000D4CE41AA410A54204D0AB00F35898470135F8E700F05EFB084B00251E00084CE41AA410A54204D071
:40110000AB00F35898470135F8E770BDB8170000B8170000B8170000C017000003008218934202D019700133FAE770470000000000300F40000800400F4000080318131857
:401140002314330C820D02010A040E10160E18021A081E1022012E1030013206341036083E11404545EC4602480749FF4AFF4BFF4F01501852805401560458045A045B0498
:401180005C095D995F016040624064406540668068806A806C806E80840888028E02900194069A0C9E01A001A401A801B001B40EB820BE01C025C515C720C823C9FFCAFF26
:4011C000CBFFCDA0D804DA04DB04DC09DD09DF01E040E140E2C0E4C0E6C000040140020403010410068209200A920D200E1110A81540164018041B011C101D881E411F2041
:4012000040044680484249084D054F805002510152025640574058825B245D055E40678068A86A807680876088028B20C0D7C2EFC49ED084D218D6DFD880E28200010202D9
:4012400004020A080C0112081403160418041A032208300836073E0158045C095F0181018221850286498720881089578A028B088D048E498F909357946D961298A49A5AC3
:401280009B089E89A249A5A0A75FA821B238B30FB407B530B6C0B7C0B820BA80BBA0C023C6EBC70CC81CC9FFCAFFCBFFD804D904DA04DB04DC99DD09DF01E2C0E440E501BC
:4012C000008001080244040A0501070609200A500D200E121101150216041A821D201E131F20240C254027222F20360237203C043D803E1145084720564C57105C805F1092
:40130000633065056C016D016E406F017602770491029612990C9E069F01A040A108A202A520A984AB04AF01B080C0FFC2EEC458CA40CCA0CEF0D060D630D8C0EA01AA4090
:40134000AC80AE0868016F087120DAC0DC20670885208801A401A520A708D880E210A708AF04EE10AB08EE80010402040520078087808920C00FE204AA04B104EA04020193
:401380001101130105000F404A320F4031330F4042340F403F350F4003370F4005400F4008410F4003420F4002430F4008450F4003460F4003600F40030405060708090AB6
:4013C0000B0C0E0F101112131415161718191B1C1D1E1F2021222325262728292A2B2E2F3031323334350000FFFF0000FFCC0000FF990000FF330000FF000000B300660086
:40140000990099006600B3003300CC001919B3000033990000409900006699000099990000CC990000E6660000FF000033FF000066FF000080FF000099FF0000B2FF000098
:40144000CCFF0000E5FF000000000000000055000000AA000000FF0055000000550055005500AA005500FF00AA000000AA005500AA00AA00AA00FF00FF000000FF00550074
:40148000FF00AA00FF00FF0000550000005555000055AA000055FF0055550000555555005555AA005555FF00AA550000AA555500AA55AA00AA55FF00FF550000FF55550096
:4014C000FF55AA00FF55FF0000AA000000AA550000AAAA0000AAFF0055AA000055AA550055AAAA0055AAFF00AAAA0000AAAA5500AAAAAA00AAAAFF00FFAA0000FFAA550006
:40150000FFAAAA00FFAAFF0000FF000000FF550000FFAA0000FFFF0055FF000055FF550055FFAA0055FFFF00AAFF0000AAFF5500AAFFAA00AAFFFF00FFFF0000FFFF550075
:40154000FFFFAA00FFFFFF00FF800000FF008000FF00FF008000FF000080FF0000FF8000FF00000020202000000020000000001000000000000000000000000000000000BE
:4015800000000000000000000000FF000010F0000020E0000030D0000040C0000050B0000060A00000709000008080000090700000A0600000B0500000C0400000D030002C
:4015C00000E0200000FF0000000000000000005F00000007000700147F147F14242A7F2A12231308646236495522500005030000001C2241000041221C00082A1C2A080864
:40160000083E080800503000000808080808006060000020100804023E5149453E00427F400042615149462141454B311814127F1027454545393C4A4949300171090503E5
:401640003649494936064949291E003636000000563600000008142241141414141441221408000201510906324979413E7E1111117E7F494949363E414141227F4141220F
:401680001C7F494949417F090901013E414151327F0808087F00417F41002040413F017F081422417F404040407F0204027F7F0408107F3E4141413E7F090909063E415159
:4016C000215E7F09192946464949493101017F01013F4040403F1F2040201F7F2018207F63140814630304780403615149454300007F4141020408102041417F00000402EF
:401700000102044040404040000102040020545454787F484444383844444420384444487F3854545418087E090102081454543C7F0804047800447D40002040443D0000CE
:401740007F10284400417F40007C041804787C0804047838444444387C14141408081414187C7C080404084854545420043F4440203C4040207C1C2040201C3C4030403C7F
:4017800044281028440C5050503C4464544C44000836410000007F0000004136080008082A1C08081C2A080843000000F8B5C046F8BC08BC9E4670470102000045040000EF
:4017C000F8B5C046F8BC08BC9E467047D9010000E0170000C000002088000000B80000000000000001000000010000000000C05D80BB000030000000006CDC02F00000006E
:40180000040404000000000000000000000000000000000000000000000000000000000000000000A8170000000000000000000000000000000000000000000000000000DD
:40184000000000000000000000000000000000000000000000000000000000000000000000000000E400002000000000000000000000000000000000000000000000000064
:401880000000000000000000000000000000000000000000000000000000000000000000000000000000000000000000000000000000000000000000000000000000000028
:4018C00000000000000000000000000000000000000000000000000000000000000000000000000000000000000000000000000000000000000000000000000000000000E8
:4019000000000000000000000000000000000000000000000000000000000000000000000000000000000000000000000000000000000000000000000000000000000000A7
:401940000000000000000000000000000000000000000000000000000000000000000000000000000000000000000000000000000000000000000000000000000000000067
:020000040003F7
:0200000490303A
:020000005A1094
:0200000490402A
:4000000000000000000000000000000000000000000000000000000000000000000000000000000000000000000000000000000000000000000000000000000000000000C0
:400040000000000000000000000000000000000000000000000000000000000000000000000000000000000000000000000000000000000000000000000000000000000080
:0200000490501A
:0C0000000002101111A0000110186BB0DC
:0200000490600A
:0100000001FE
:00000001FF