:400000000080002011000000990800009908000010B500F061FCC04670B51222284B1A60302000F071FE274C8025ED0525600022254B1A60254B264A1A6080225200254969
:400040000A60254919602548254908602549196025490A60254A1A60C0218900244A1160244A1A60E0210901234A1160234A1A60E0214901224A1160224A1A608222120679
:40008000214B1A60214A224B1A604222214B1A607E32214B1A607F3A204B1A600232204B1A6001321F4B1A6001321F4B1A601F49082000F051FD082000F038FD256070BD76
:4000C000300010400C020B40000301400000014040FF00800803014042FF0080007F1A0600050140C0FF00800403014041FF00800C03014043FF00801003014044FF008081
:400100001403014045FF008008010B404902040000010B405801014054010140500101402C0101402801014014010140850F000010B572B60122494B1A7000240FE048485F
:400140006200131959000B00411889881A5AC31858880004104300F06BFB0134E4B2012CEDD93F490C313F485C3000F047FBE02212013D4B1A8001213C4B19703C4A3D4B08
:400180001A60C02292043C4B1A60EE2212023B4B1A6099223A4B1A60913A3A4B1A6099231B04394A1360394A136080208005384A1060384A1360384A1360384A1360384A65
:4001C0001360384A384B1A600F23384A1360384A1360384803783C22934314221343DBB20370354A107816230343DBB213700223324A13603248334A10604020324A1060D9
:40020000C0204003314A10608020314A10601538304A10603048314A1060314A1160D8200001304A10604F202F4A10602F48304A1060902080002F4A10602F4A13603120AD
:400240002E4A10602E4A13602E4B196036222E4B1A60FFF7E1FE00F001FB10BD1C700F4054290000542E000000600F4002600F40AA0000080000024000010240000302402A
:40028000000602400007024000500F4010500F4018500F4020500F4040500F4050500F4070500F4004040444D8360F402000104000800F4001700F4000700F40000004405D
:4002C000310004000800044000010440080104401801044000020440B06D090008020440180204400803044000040440920408000804044008050440000604400806044004
:4003000018060440000704400807044010B5064C2378002B07D1054B002B02D0044800E000BF0123237010BD48010020000000002C290000084B10B5002B03D007490848D8
:4003400000E000BF07480368002B00D110BD064B002BFBD09847F9E7000000004C0100202C290000C00000200000000030B583B001F002FB0190184B1A7801321A705A7898
:4003800001325A709B780B2B00D90023124CA370124B186E01F03EFCA078032101F0D8FDC5B2FF220021002000F0FAF802000021280001F043FC012001F0E8FBA378013300
:4003C000A3702378132B04D900220021002000F091F803B030BDC046640100209C30000010B500220021002000F084F8002000F061FE10BD70B562B6042000F0A7F801F0B0
:40040000A5FA1C4CE07001F01FFAE278D2B21A4D1A49280001F066FE280001F08BFAE378DB08012501263340DB43D8B201F0C4FCE07880086840304001F02EFBE07840088F
:400440006840304001F01CFBE0786840304001F0A7FCE178C9B2042000F0A8F801F0D0FA00F05CFE064800F017FE064801F0FAFA70BDC04664010020E4010020302900002F
:40048000E10300006D03000010B584B0FFF7B2FFFF220021002000F083F800F06BF80023009301AB1022FF321A80083AFF3A9A70002303E001AAD218D3700133072BF9DD2A
:4004C000002401ABDC70002C06D11B79012B03D1002201AB1A7104E0002C02D1012201AB1A710134E4B201A800F0AAF80A2000F06BFBE6E710B504000020134B1870200071
:40050000FF30FF235B0098421CD8002C0ADAD30701D5002906D0002000F08EFD604200F083FD0FE0002C0ADD930701D5002906D0012000F081FD200000F076FD02E0002050
:4005400000F072FD10BDC0466401002010B5040001F0C2FB042C00D90424200001F080FB034B186D01F056FB012001F00FFB10BD9C30000070B5050001F03EFB002808D171
:400580000DE02A000021200001F058FB0134E4B200E00024032CF4D9012001F0F7FA70BD120403021A43100008437047F8B504000D0001F075F80F202040194E30603F2118
:4005C0002940184B1960184C00252570800108434005E060154FA760154B1B686360200000F028FF01232370E560A760114B1B686360200000F01EFF022323703368DB06F9
:40060000E360A7600C4B1B686360200000F012FF00F00CFE09491D2000F09EFAF8BDC0465C0200206002002048020020FFFF1F80A0002F40C0002F40E0002F40D10600007B
:4006400010B586B0002815D0038802AC02930023237163718278A271E3716B460593C11C0822684601F02CFD200001F02FF8002802D102E0022000E0012006B010BDC046DF
:40068000124A93780133DBB293709378DBB20F2B02D900220D4B9A700C4B1B78002B0BD00A4A53780133DBB253705378DBB20F2B02D90022054B5A70044A537891785B1A0B
:4006C00059424B41DBB213707047C0466901002070B580225201444B1A60444B1B68DA0706D49A0706D45A0706D41B0706D406E0002404E0012402E0022400E003243C4B31
:400700009A78D2B264013B4B9C4664442368DB0202D46168490D02E06168C90889B2364B500082189000C152314A9178C9B22068000C0F2528404D0069188D005D19A87074
:400740009178C9B2A5682D0E4800411888001818C5709178C9B2A068000CC0B24D0069188D005D1928719178C9B2A068000AC0B24D0069188D005D1968719178C9B2A56868
:40078000EDB2480041188800181885719178C9B2E5682D0E4800411888001818C5719178C9B2E068000CC0B24D0069188D005D1928729178C9B2E068000AC0B24D006918E5
:4007C0008D005D1968729278D2B2E068C0B251008A1891005B189872FFF752FF226801231343236070BDC04600002F4008002F4069010020A0002F4064020020F0B5002503
:40080000002711E0BB00C658F3B2FF22964308E06A008A181478A419527822700135013BDBB2002BF4D10137102FEBD9F0BDC04610B50A00002101F04CFC10BD064B1B68E8
:40084000002803D080221206134301E05B005B08014A13607047C04680033A4010B50323084A1360084A136080221206074B1A600122074B1A600022064B1A600120FFF768
:40088000DDFF10BD300030403000314000003A4000033A40000E3F4010B501F0E5FB03680C2B00D1FEE7FEE710B50300084A1068C318084A9A1A802A02DC054A136005E055
:4008C00001F0D2FB0C2303600120404210BDC046C40000205003002070B50F4E0F4D13E029686B68AC68002202E001C901C30432A242FAD1E868002202E0002102C30432AB
:400900008242FAD11035013E002EE9D101F0B2FBFFF7BAFDFEE7C04601000000B834000010B50E4A136801218B43136000230AE0032B03D89A000A49505800E00948990029
:40094000094A885001332F2BF2D9FFF7F1FB034A116801230B43136010BDC04600001040000000009908000000000020024A1168024B0B401360704700002240FFFFFFBFDD
:40098000034B18688023DB05184000D0012070470000224030B52D4B1A783F231340042B01D9012000E0002000230AE0284A12683F210A402749C95C8A4201D1033303E0C7
:4009C00001332D2BF2D9032323490A680124A2430A60224A126822490A6000280FD021490D681F4C65601F24A2431F4C247822431A4C22601D4A1278D2B20A6005E01F21D7
:400A00008A4317390A4315490A60302B0BD1002803D0174B1B78DBB202E0164B1B78DBB2154A13600CE0182B0AD1002803D0134B1B78DBB202E0124B1B78DBB20E4A1360EE
:400A4000104A116802230B43136030BD00F3FF0F2CFF0B40F42E000050000C4034FF0B407001002020FF0B40C0F1FF0FC1F1FF0FC3F1FF0F3FF3FF0F28FF0B40C2F1FF0F6E
:400A80003EF3FF0F24002C4030B51A4B1A783F231340042B01D9012000E0002000230AE0154A12683F210A401449C95C8A4201D1033303E001332D2BF2D9032310490A689B
:400AC0000224A2430A600F4C21681F2291430E4D2D682A400A432260002803D00A4A51680A4A11600A4A944663441B78DBB2094A136030BD00F3FF0F2CFF0B40F42E000051
:400B000024002C4034FF0B407001002020FF0B404DF3FF0F28FF0B40034B1B680220184000D001207047C04624002C401F2318401E3B8340014A13607047C04600E100E071
:400B40001F2318401E3B8340014A13607047C04680E100E001BE704770B504000D001F2802D90020FFF7F6FF1034A40080239B059C4664442068256070BDC04670B504000C
:400B80000E00032902D90020FFF7E4FF1F2C02D90020FFF7DFFF03252540ED00063501F084F9A408A400074B9C46644421680323AB4099430B003100A9401943216001F055
:400BC00078F970BD00E400E010B5040006E0084B586801F061F9074B9C46644480231B029C42F4D8024B9868604301F055F910BDC80000200080FFFF30B583B000F06CF971
:400C000000285FD001F051F904002F4A116801230B43136000230AE02C4A12683F210A402B49C95C8A4201D1033303E001332D2BF2D90323274A1268D20606D12548026862
:400C40001F218A4313390A430260234A1168234A0A40234959438020C00184466144C90B01394905490D0A43A021490311430800192B02D81B4B1A430EE01B4A9A1812781F
:400C80001A3B1349C9183023CB5CD318FF2B00D9FF239B0502001A430F4B1A60134D2B680193302001F008F9114A13688021C9050B4313601420FFF787FF019B2B6020007F
:400CC00001F0F7F803B030BD50000C402CFF0B40F42E000034FF0B400800224000F800C040420F000000D43F4DF3FF0F300010400000224010B5034B1B7B584301F0CCF8D3
:400D000010BDC046C8000020F0B55F4656464D464446F0B483B0040001F0C7F80190FFF72FFE002804D0FFF721FE01239A4601E000239A46FFF7F0FE002808D0182C01D0C4
:400D4000302C07D1FFF7A0FE01239B4604E000239B4601E000239B46E61E2D2E74D8464B1B78DBB29C4208D8444B1B78DBB29946434B1B78DBB2984631E0424B1B78DBB2E7
:400D80009C4208D8404B1B78DBB299463F4B1B78DBB2984623E03E4B1B78DBB29C4208D83C4B1B78DBB299463B4B1B78DBB2984615E03A4B1B78DBB29C4208D8384B1B7881
:400DC000DBB29946374B1B78DBB2984607E0364B1B78DBB29946354B1B78DBB29846344B9F5D2F2F09D92A2C07D91922314B1A60052001F051F8192503E02E4B1D683F2320
:400E00001D40BD4206D92A4B9A5D2A4B1A60052001F042F8254B9C4664442378DBB2264A1360264B4A461A60254B42461A600520FFF760FFBD420AD21D4B9A5D1D4B1A6044
:400E4000052001F029F802E00020FFF783FE5346012B01D1FFF7D0FE5B46012B01D1FFF799FD019801F025F803B03CBC90469946A246AB46F0BDC04640F3FF0F41F3FF0F26
:400E800042F3FF0F43F3FF0F44F3FF0F45F3FF0F46F3FF0F47F3FF0F48F3FF0F49F3FF0F4AF3FF0F4BF3FF0F4CF3FF0F4DF3FF0FF42E00002CFF0B4028FF0B401CFF0B405C
:400EC00020FF0B40034B1868C0231B02184000D00120704700010B40034B1B68002B01DA012000E0002070470000224010B500F0DCFF044A1368C02109020B43136000F067
:400F0000D8FF10BD00010B4010B500F0CEFF08490A68084B1A408024E40122430A600A6813408022120213430B6000F0C2FF10BD00010B40FF3FFFFF70B5050000F0B5FF67
:400F40000400FFF7BFFF002803D0FFF7DDFF012100E0002108482840084A1568084B2B40184310601368012901D1FFF7BFFF200000F09FFF70BDC0460404040010020B4044
:400F8000FBFBFBFF10B5244B1B685B0715D5234B5B685B070ED5224B596A042001401F4C62688A4362605A6A82435A629B69002B00D098470420FFF7BFFF174B1B685B052F
:400FC00018D5164B5B685B0510D5154B596A8022D2001140114842688A434260596A114A0A405A62DB69002B00D098478020C000FFF7A2FF084B1B685B030CD5074B5B68DE
:401000005B0304D5064B1B6A002B00D098478020C002FFF791FF10BD10020B40DC00002090010020FFFBFFFF0004000C014B18607047C0460C01204004490A68D2B20223AC
:401040009A434000184010430860704700070440014B98647047C0460000002010B5040000F023FF044A1168044B0B40A4051C43146000F01EFF10BD00E400E0FFFF3FFF87
:401080000422014B1A60704700E100E00422014B1A60704780E100E010B50400FFF7F6FF2000FFF7D5FF0320FFF7D8FFFFF7E8FF10BDC04610B5002805DB80B2054B9C4679
:4010C000604480B203E0034B9C46604480B200F04FF810BD0080FFFF024B18780F2318407047C04664000F40014B18707047C04684000F4010B50F20FFF7F6FFFFF7ECFFB4
:4011000000F0D3FE044A117810230B43DBB2137000F0CFFE10BDC04694000F4010B500F075F88020000200F023F8054B1B78002B02D10122024B1A70FFF7DCFF10BDC046C5
:40114000B8010020034A117880235B420B43DBB21370704775000F40014B18707047C04687000F40014B1878C0B2704767000F40014B18807047C0460C100F40014B18888D
:4011800080B270478C100F40014B18807047C0464C100F40014B18807047C0466C100F4010B501E0FFF7EAFFFFF7DCFF4306F9D410BDC04610B5134B1A7807218A431A7030
:4011C0001A7804398A431A70FFF7EAFF802424022000FFF7D9FF2000FFF7CAFF0020FFF7BBFFFFF7BFFF2000FFF7D4FF00F05DFE054A117810230B43DBB2137000F059FEEB
:4012000010BDC04675000F4097000F4010B5064B1B78002B04D1FFF7CDFF0122024B1A70FFF790FF10BDC046B9010020054B1A6801210A431A601B68194201D1012000E02E
:401240000020704704002F4010B50E4A0E4B1A60FFF7ECFF1D20FFF769FC0C4A116801230B431360F0231B0100E0013B002B03D0064A1268D207F8D5002B01D1012000E050
:40128000002010BD0110000000002F4010002F4003B2002B0DDB094A1168094B0B400004034313601268074B1340984203D0012002E0022000E000207047C04614002F4021
:4012C000FFFF00800000FF7F002809D10C4B19680C4A0A401A601B68DB040CD501300DE0074B1A68802149010A431A601B680B4203D1012002E0002000E000207047C04693
:4013000014002F40FFEFFFFF70B5841EE4B20D2C35D88C1EE4B2052C03D9002B31D1012931D1032A31D8904231D3914231D31C4D2C68240AE4B20F26B44320432E68194CC7
:401340003440000204432C602C686040F0242401204220D1002B00D002234901C9B29200D2B2114319430E4A1368EE2083430B4313601368034099420FD0ED380EE00220A4
:401380000CE002200AE0022008E0022006E0022004E0022002E0012000E0002070BDC04614002F40FFF0FFFF002809D10B4B1A6810218A431A601B6819420BD001300CE02D
:4013C000064B1A6810210A431A601B68194203D1012002E0002000E00020704714002F40002809D10B4B1A6801218A431A601B6819420BD001300CE0064B1A6801210A43B8
:401400001A601B68194203D1012002E0002000E00020704714002F40054B18601B681B041B0C984201D0012000E000207047C04604002F4010B503785B01204A944663440F
:401440001F4A41680A431A6003785B01634419681C4A11401C4A44682240914224D182681A6103785B0163441A6981688A421DD1C2685A6103785B0163445A69C1688A427D
:4014800016D1012252429A6103785B0163449A6901320FD10022DA6103785B016344DB69002B09D0012008E0012006E0012004E0012002E0012000E0002010BDA0002F40C7
:4014C000800080007F007F007FFF7FFF10B503781B01104A944663440F4A41680A431A6003781B01634419680C4A11400C4A4468224091420AD182685A6003781B01634498
:401500005A6883689A4203D0012002E0012000E0002010BD20002F4008008000F7007F00F7FF7FFF70B500240AE063001B199800104B1818FFF7CAFF002805D10134E4B2E8
:40154000072CF2D9002500E00125002D0BD00FE0230108486030C018FFF76CFF002806D10134E4B200E000240F2CF1D900E00125280070BD3C2F0000002809D10C4B19689B
:401580000C4A0A401A601B689B040CD501300DE0074B1A68802189010A431A601B680B4203D1012002E0002000E000207047C04614002F40FFDFFFFF10B580221206344B49
:4015C0001A60344A136801218B431360C8231B0200E0013B002B03D02E4A1268D207F8D4002B4AD01D20FFF7ABFA2B491D20FFF7B3FA03211D20FFF7C1FA1F20FFF748FE5E
:4016000000281AD1FFF760FE002818D1FFF7B4FF002816D10023022203210430FFF774FE002810D10130FFF7BFFE00280DD1FFF7D7FE00280BD001230AE0012308E0012374
:4016400006E0012304E0012302E0012300E00023002B14D1FFF766FF002812D10F48FFF7DBFE00280FD10B4B1A6807218A431A601B68194209D0013008E0012006E001206C
:4016800004E0012002E0012000E0002010BDC04600042F4010002F40C91600000110000010B5084B1B78002B02D1FFF785FF00E00020002804D10122024B1A70FFF7C4FD9C
:4016C00010BDC046BA0100207047C046F8B54F464646C0B4040001200023984691E04C4B1B6832041A427AD12379002B01D1002701E08027BF036379002B07D12B01454A0B
:4017000094466344226852055A6009E080235B031F432B013F4A944663442268D2005A60A379072B03D81B041F43B94603E080231B031F43B946E379002B03D004234A4636
:401740001A43914600232AE0032B13D92801324A94466044026894465907CA1AD1003831FF228A4067469743E268D25C8A403A43026012E02801274A9446604482689446A8
:401780005907CA1AD1001831FF228A4067469743E268D25C8A403A4382600133DBB2A279934201D2072BCFD91D20FFF7C9F92B01184A94466344194A4F4617431F60227AE9
:4017C000002A04D0196803220A431A6003E0196801220A431A601D20FFF7A8F900207600F6B2002807D00135EDB201E001260025072D00D873E7002806D043460133DBB26F
:4018000098464346022BF1D90CBC90469946F8BD08002F4020002F402C002F400800800010B500F075F810BD10B500F01DF810BD10B5044A1368802109060B431360FFF774
:40184000EFFF10BD0000274010B5064B1B78002B04D1FFF7E9FF0122024B1A70FFF7E8FF10BDC046BC010020154A164B1A600023154A13601549164A1160164A16490A60B1
:4018800007201649086016490B6006381549086015490A60154A13600421154A1160154A1360154A1360154A1360154A1360154A1360154A13601268144B1A807047C046C1
:4018C0000B000002000027404000274001000A00480027400700008000032740040327401003274044002740000227400402274050002740880E2740C80E2740480F27400A
:40190000080F2740C80F2740880F2740BE01002005490B68F0229343603A13430B60034B1A88034B1A60704700060240BE010020880F274070B50500002402E000F0FAFA62
:401940000134285D0028F9D170BDC046014B1878C0B2704762000F40034A117880235B420B43DBB21370704773000F40014B18707047C04680000F40014B1878C0B2704780
:4019800060000F4010B50100014800F0BFFA10BD22000F4010B5024800F0C2FA10BDC04642000F4010B50100014800F0AFFA10BD02000F4010B501E0FFF7ECFFFFF7DCFF45
:4019C0000307F9D410BDC04610B50B4C2000FFF7D9FF2000FFF7E6FF00F067FA074A117810230B43DBB2137000F063FAFFF7E2FF0120FFF7BBFF10BD3F420F0090000F404B
:401A000010B5064B1B78002B04D1FFF7DDFF0122024B1A70FFF7A0FF10BDC046C0010020014BD8647047C0460000002010B5040000F03BFA044A13689B009B08A4071C4384
:401A4000146000F036FA10BD00E400E00822014B1A60704700E100E00822014B1A60704780E100E010B50400FFF7F6FF2000FFF7D7FF0320FFF7DAFFFFF7E8FF10BDC046AF
:401A800004490A68D2B208239A43C00018401043086070470002044004490A68D2B204239A438000184010430860704700020440114B1B68022B1AD80F494A68581C086050
:401AC00050008218D3189B000C4A9B580C4A1268D3400C4A12681340D8B20B4A1070180AC0B210701B0C8B60DBB2137002E01122064B1A707047C046C401002024030020B9
:401B0000340300203003002040000F4070000F402122164B1A70164A536801335360002B1FD1DBB2134A1370114A53685900CB189B0011495B5811490968CB40104909685B
:401B40000B40D8B20F490870180AC0B208701B0CD360DBB20B70012313600922034B1A7002E00122084B1A607047C04670000F40C401002072000F40240300203403002026
:401B80003003002040000F4038030020002804D00023114A5360114A13700F4843685A00D3189A000E4BD3580E4A1268D3400E4A12681340D9B20D4A1170190AC9B21170EC
:401BC0001B0CDBB21370012303601922084B1A700022084B1A607047C401002072000F4024030020340300203003002040000F4070000F4038030020044B1868002803D05F
:401C00000022034B1A7001207047C0463803002070000F4010B500210BE04B005B189B189B00054C1851013200E00022022AF4D901310029F9D010BD2403002000280BDBA7
:401C4000002909DB022807DC002905DC4B00591808188000014BC2507047C0462403002002280FD002D8012805D020E0032810D0042815D01BE0114A114B1A600122114BDA
:401C80001A601AE0104A0E4B1A6002220D4B1A6013E00E4A0A4B1A6003220A4B1A600CE00B4A074B1A600422064B1A6005E0094A034B1A600022034B1A6070477F7F7F0063
:401CC00030030020340300203F3F3F001F1F1F000F0F0F00FFFFFF0010B50322144B1A702E32144B1A70093A134B1A70103A134B1A70134C012323700020FFF78BFF0023A4
:401D00002370002000F026F80020FFF7A9FF0D4B1B7D002B08D101220A4B1A750A4800F079F80A4800F0A8F80122094B1A6010BD91000F4041000F4021000F4031000F4076
:401D400070000F40C4010020111B0000B11A00003803002000280CD10C4A0D4B1A6005220C4B1A6002320C4B1A6019320B4B1A600BE0064A064B1A600522064B1A600232FC
:401D8000054B1A601932054B1A6070477C320000440300203C030020480300204003002004490A68D2B210239A43000118401043086070470002044004490A68D2B202237F
:401DC0009A434000184010430860704700020440014B18647047C0460000002010B5040000F063F8044A1368C0218B43A4011C43146000F05EF810BD00E400E00122014BC7
:401E00001A60704700E100E00122014B1A60704780E100E010B50400FFF7F6FF2000FFF7D7FF0320FFF7DAFFFFF7E8FF10BDC046014B58647047C0460000002010B50400DF
:401E400000F033F8044A1168044B0B40A4031C43146000F02EF810BD00E400E0FF3FFFFF0222014B1A60704700E100E00222014B1A60704780E100E010B50400FFF7F6FF91
:401E80002000FFF7D5FF0320FFF7D8FFFFF7E8FF10BDC046000000000230800803D00138FDD1C046C046C0467047EFF3108072B6704780F31088704770B50400FFF7F5FF15
:401EC0000500102C05D8104A136803218B43136016E0202C07D80C490B6803229343023A13430B600CE0302C07D807490B6803229343013A13430B6002E00020FEF72AFEA9
:401F00002800FFF7D6FF70BD30001040CBB203700B0ADBB24370090CC9B281707047C0460378427812021A4383781B041A4310007047C046044B1B681F221340082BF9D032
:401F4000024B18607047C0460802274040022740002243088B4274D303098B425FD3030A8B4244D3030B8B4228D3030C8B420DD3FF22090212BA030C8B4202D312120902DE
:401F800065D0030B8B4219D300E0090AC30B8B4201D3CB03C01A5241830B8B4201D38B03C01A5241430B8B4201D34B03C01A5241030B8B4201D30B03C01A5241C30A8B42F0
:401FC00001D3CB02C01A5241830A8B4201D38B02C01A5241430A8B4201D34B02C01A5241030A8B4201D30B02C01A5241CDD2C3098B4201D3CB01C01A524183098B4201D369
:402000008B01C01A524143098B4201D34B01C01A524103098B4201D30B01C01A5241C3088B4201D3CB00C01A524183088B4201D38B00C01A524143088B4201D34B00C01A02
:402040005241411A00D20146524110467047FFE701B5002000F006F802BDC0460029F7D076E770477047C046014B18687047C046440100200E4B70B500251E000D4CE41A83
:40208000A410A54204D0AB00F35898470135F8E701F000FA084B00251E00084CE41AA410A54204D0AB00F35898470135F8E770BDA0340000A0340000A0340000A834000016
:4020C000002310B59A4203D0CC5CC4540133F9E710BD03008218934202D019700133FAE7704700000EB410B59DB002A9029008610B48822488604861012040421FABC881D5
:40210000084804CBA400006801938C8100F06EF80023029A13701DB010BC08BC03B01847FFFFFF7F44010020F0B58E6885B007000C00039201939E4243D890238A89DB0043
:402140001A423ED003250969236801985B1A029363695D43EB0F5D19029B6D1001331B18AB4200D91D00530510D52900380000F037FB061E14D0029A2169FFF7A1FFA2893E
:40218000194B134080221343A38112E02A00380000F086FB061E0CD12169380000F0D4FA0C23402201203B60A38940421343A38117E0029B2661F61826606561019EED1A76
:4021C000A560019BB34200D21E0032000399206800F0A5FA0020A3689B1BA36023689E19266005B0F0BDC0467FFBFFFFF0B59FB0029005938B890F0016001B0610D50B6917
:40220000002B0DD1402100F0EBFA38603861002804D10C23029A01381360D8E040237B61002306AD6B6120336B761033AB7634002378002B03D1A31B049312D003E0252B51
:40224000F9D00134F4E7A31B320039000298FFF76BFF431C00D1B4E06A69049B944663446B612378002B00D1ABE00122002352426A6002A95432521801342B60EB60AB6068
:402280001370AB65534E21780522300000F03CFA002807D00123801B83402A68013413432B60EFE72B68DA0604D55322202102A8121811701A0704D553222B2102A81218EF
:4022C000117022782A2A03D0099B00200A210EE0059A111D12680591002A01DB099204E05242EA60022213432B6001340BE02278303A092A04D84B4301349B180120F6E7D3
:40230000002800D0099323782E2B1ED163782A2B0AD1059B02341A1D1B680592002B01DA01235B42079310E000230A201A0001346B6021783039092904D842430134521808
:402340000123F6E7002B00D00792234E21780322300000F0D9F9002806D04023801B83402A68013413432B60217806221B48661C297600F0C9F9002812D0194B002B06D1D9
:402380000722059B073393430833059314E005AB00933A00134B2900029800E000BF07E005AB00933A000F4B2900029800F08AF80390039B013304D06B69039A9B186B6124
:4023C00035E7BB890B985B0601D5012040421FB0F0BDC0465E34000064340000683400000000000029210000F7B5170001938A680B6900900C00934200DA130022003B6096
:4024000043321278002A01D001333B6023689B0602D53B6802333B60062523681D401ED0230043331B785A1E9341226892061CD53020E1184331087021005A1C453109780E
:40244000A2184332023311700FE022000123193201990098089EB047431C0ED00135E3683A689B1A9D42F0DBDAE72200019943320098089DA847431C02D10120404220E076
:4024800006232068E1683A6803400025042B03D18D1AEB43DB171D40A3682269934201DD9B1AED180027BD420AD0220001231A3201990098089EB047431CDED00137F2E76F
:4024C0000020FEBDF0B58BB006920A0043320793059004920A7E0C00109B6E2A00D1ABE011D8632A22D009D8002A00D1B5E0582A00D0C5E045310A70814A4FE0642A1DD0DD
:40250000692A1BD0BCE0732A00D1AAE009D86F2A29D0702A00D0B3E0202209680A43226037E0752A1FD0782A33D0A9E00E001A684236111D196013683370A4E021681A6868
:40254000080606D4490604D5111D19600023D55E02E0111D19601568002D3BDA2D23049A6D42137036E021681A68080606D4490604D51568111D1960ADB202E0111D1960A9
:4025800015685F4B227E039308276F2A1DD00A271BE022007821453211705A4A19680392081D226818600D68100602D4500600D5ADB2D30702D520231A4322601027002D27
:4025C00003D1202322689A4322602300002243331A7002E00A274A4B03936368A360002B09DB0422216891432160002D05D1049E002B11D07BE0002D79D0049E28003900F2
:40260000FFF72CFD039B013E5B5C280033703900FFF79EFC051EF1D1082F09D12368DB0706D563682269934202DC3023013E3370049B9B1B23612BE009681A68080607D417
:40264000490605D5111D19601368A28A1A8004E0111D1960136862691A600023049E236116E01A68111D1960166800216268300000F04AF8002801D0801B6060636803E0C9
:40268000260042363270012323610023049A1370079B09AA00932100069B0598FFF7A4FE431C02D10120404227E02369320006990598079DA847431CF4D0236800259B0731
:4026C0000FD4099BE068984217DA180015E022000123193206990598079EB047431CE1D00135E368099A9B1A9D42F0DBE9E72600039B42361B7833708EE70BB0F0BDC04612
:402700006F34000080340000C9B28218904204D003788B4202D00130F8E70020704710B5884202D98B18984201D3002305E09B1A013A08D3995C8154FAE7934203D0CC5C7D
:40274000C4540133F9E710BD70B50500002944D00C1F2368002B00DAE418280000F0D8F81E4A13681100002B02D16360146031E0A3420DD92268A018834203D118685B6837
:402780008218226063600C6024E0A24203D813005A68002AF9D11E689819A0420BD12168711858181960824214D110685268411819605A600EE0A04202D90C232B6009E09D
:4027C00021686018824203D1106852684118216062605C60280000F09CF870BDE0010020032370B5CD1C9D43083506000C2D01D20C2501E0002D01DBA94202D90C233360D6
:4028000048E0300000F084F8234B1C681A002100002913D00B685B1B0DD40B2B02D90B60CC181EE08C4202D1636813601AE04B6863600C0016E00C004968E9E7174C2368A7
:40284000002B03D1300000F051F820602900300000F04CF8431C18D00323C41C9C43A0420DD12560300000F054F8200007220B30231D9043C31A0ED05A42E2500BE0211AC0
:40288000300000F033F8431CEBD10C233000336000F03FF8002070BDE0010020DC010020F8B506000C001500002904D11100FFF797FF040018E0002A03D1FFF745FF2C007F
:4028C00012E000F027F885420ED929003000FFF787FF071E07D021002A00FFF7F1FB21003000FFF731FF3C002000F8BD002370B5064C050008002360FDF7D6FF431C03D17D
:402900002368002B00D02B6070BDC0464C030020704770470B1F1A68101F002A04DA891804390B68D0180438704700000000000044697020416464723A202578200D0A0081
:40294000427974652564202578202020000000000D0A000000300F40000800400F400008011811182114310C800D8103840F876F0209050109020C0C0D010F0211631209B8
:40298000131C1504168917D318A419801A531C6D1E121F202120220C240226102E492F08310C32C03310343835E036073707382039203A08402445C0460B470E481649FFFD
:4029C0004AFF4BFF54015604580459045A045B045C995D395F0162C06440650192019701A201B301B601BE40C025C505C602C701C815C9FFCAFFCBFFCDA0D604D804D9045A
:402A0000DA04DB04DC10DD09DF01E040E140E2C0E4C0E6C0008003800A6A0F4010201180130215021A2A1D4021222288271029022B023120324534043602370238203980A8
:402A40003A044004410243024520484049024C144D204F805004514055405604574059455EA06080660168806A806B0270608E408F10C009C21FC41DCA09CC4FCE0ED02564
:402A8000D210D63BD88105020902110218011F0220022102250429012C043002320133043501360437023E403F54405149FF4AFF4BFF4F015018580459045A045B045C0255
:402AC0005D035F016040624064406540668068806A806C806E808001828086088F049002926094049650970498A09A5F9C579E089F02A302A706AE57AF01B030B102B40FF0
:402B0000B501B6C0B704BA82BF41C054C9FFCAFFCBFFCD83CE03CF01D018D280D804D904DA04DB04DC19DD33DF01E040E240E440E540E680E880EA80EC80EE800004038059
:402B40000A6A0F0411801402170218041A401B801EA22088214025802728284029022B122C082E09308032083680370138803D043E10410146014B404F40584059205C4096
:402B80005E025F28620A6D046E116F0173408008844089808D409080922A940495029640974099229B109D05A080A140A28AA310A650A780A880AA01B004C00CC24FC49127
:402BC000CAEBCC9ACE68D011D218D6FCD803E221E610EC80040705CF07300D940E010F6010021204130F157319301BC91D9E1E061F6025FD270230013402360437FF3E5164
:402C00003F40405445EC4720482349FF4AFF4BFF4D834E034F015018540F580459045A045B045D135F016040624064406540668068806A806C806E808280844086048A0327
:402C40008B018C148E209270947095FE9701980199969B689C149DC59E209F3AA10EA201A3F0A474A5A3A75CA804A97FAA40AE08B0F0B1FFB20CB402B601BE40BF01D2808E
:402C8000D804D904DB04DC01DD10DF01008803020411071109020A020C040D020E191688174419901A401C101D821E082001274029082E092F68310232803318340835089E
:402CC0003680371438043B803C10410149054B40510152015804599276808008810287048C8093409440950297049B109D059E019F02A004A702AC02B208C0F5C2F9C4F0B2
:402D0000CAE2CC7FCE2AD001D208D60FE010EE02040806010C6C0E0111AC1352143715FB1704186C19501A021BAF1E0F2138228023C1245B25CC2604273129773270340FAC
:402D400035F03680370F38084016410449FF4AFF4BFF4DA04F015018580459045A045C115D015F016040628064406540668068406A806C406D206E808008890291049401EE
:402D80009B03A003A20CA403B004B104B208B401B501B602B702B8A0BE14BF41C016C104C542C6C3C70EC81FC9FFCAFFCBFFCDAFCE07CF01D018D40FD804D904DA04DB04B0
:402DC000DC11DD11DF05E040E280E440E540E680E840EA80EC40ED20EE80010207110A100E1A10A01480170419261A021B101C041E1A1F68204021102302268027052F686A
:402E000030313715392041824582486049204F20508051085210581059045A405B02610862107B08924094449612978098819B109F05A182A440A680A728AF02B001C0A846
:402E4000C2E4C43CCAE0CCE5CE04D099D224D60FD806DE040308070868086C206F407120C0C0DAC0DC606080842088808C08A308A428A920AB40B308D840E240EA20EE8017
:402E80000A020D0285028F08A308C260E040AE01EC400008030807818380C00F9B01AC04B308EA04B301EE04100E1101120A000008000F4052300F4039310F405B320F4000
:402EC0004C330F405C340F4042350F4065360F403D370F4009400F400D410F4007420F4002430F4005450F4004460F4002470F4003600F40030405060708090A0B0C0E0F6D
:402F0000101112131415161718191B1C1D1E1F2021222325262728292A2B2E2F3031323334350000EEDBC9B9AA9B8E82766B60564D443B332C241D17100A04000000000031
:402F400008008800000000000100000008008800000000000200000008008800000000000300000008008800000000000400000008008800000000000500000008008800E2
:402F80000000000006000000080088000000000007000000080088000000000000000000A8008000FFFFFFFF0000000001000000A8008000FFFFFFFF000000000200000099
:402FC000A8008000FFFFFFFF0000000003000000A8008000FFFFFFFF0000000004000000000000000000000000000000050000000000000000000000000000000600000077
:403000000000000000000000000000000700000000000000000000000000000008000000000000000000000000000000090000000000000000000000000000000A0000006E
:403040000000000000000000000000000B0000000000000000000000000000000C0000000000000000000000000000000D0000000000000000000000000000000E0000001E
:403080000000000000000000000000000F000000000000000000000000000000FFFF0000FFCC0000FF990000FF330000FF000000B3006600990099006600B3003300CC000C
:4030C0001919B3000033990000409900006699000099990000CC990000E6660000FF000033FF000066FF000080FF000099FF0000B2FF0000CCFF0000E5FF00000000000057
:40310000000055000000AA000000FF0055000000550055005500AA005500FF00AA000000AA005500AA00AA00AA00FF00FF000000FF005500FF00AA00FF00FF00005500004A
:40314000005555000055AA000055FF0055550000555555005555AA005555FF00AA550000AA555500AA55AA00AA55FF00FF550000FF555500FF55AA00FF55FF0000AA0000BA
:4031800000AA550000AAAA0000AAFF0055AA000055AA550055AAAA0055AAFF00AAAA0000AAAA5500AAAAAA00AAAAFF00FFAA0000FFAA5500FFAAAA00FFAAFF0000FF00002A
:4031C00000FF550000FFAA0000FFFF0055FF000055FF550055FFAA0055FFFF00AAFF0000AAFF5500AAFFAA00AAFFFF00FFFF0000FFFF5500FFFFAA00FFFFFF00FF8000006F
:40320000FF008000FF00FF008000FF000080FF0000FF8000FF0000002020200000002000000000100000000000000000000000000000000000000000000000000000FF0006
:403240000010F0000020E0000030D0000040C0000050B0000060A00000709000008080000090700000A0600000B0500000C0400000D0300000E0200000FF0000000000004F
:403280000000005F00000007000700147F147F14242A7F2A12231308646236495522500005030000001C2241000041221C00082A1C2A0808083E0808005030000008080898
:4032C0000808006060000020100804023E5149453E00427F400042615149462141454B311814127F1027454545393C4A49493001710905033649494936064949291E00369B
:4033000036000000563600000008142241141414141441221408000201510906324979413E7E1111117E7F494949363E414141227F4141221C7F494949417F090901013E06
:40334000414151327F0808087F00417F41002040413F017F081422417F404040407F0204027F7F0408107F3E4141413E7F090909063E4151215E7F09192946464949493123
:4033800001017F01013F4040403F1F2040201F7F2018207F63140814630304780403615149454300007F4141020408102041417F00000402010204404040404000010204A5
:4033C0000020545454787F484444383844444420384444487F3854545418087E090102081454543C7F0804047800447D40002040443D00007F10284400417F40007C0418AD
:4034000004787C0804047838444444387C14141408081414187C7C080404084854545420043F4440203C4040207C1C2040201C3C4030403C44281028440C5050503C44646D
:40344000544C44000836410000007F0000004136080008082A1C08081C2A08084300232D302B2000686C4C006566674546470030313233343536373839414243444546005B
:403480003031323334353637383961626364656600000000F8B5C046F8BC08BC9E4670473503000021090000F8B5C046F8BC08BC9E4670470D030000C8340000C0000020D0
:4034C00088000000080200000000000050030020010000000000204E409C000028000000005A6202F00000000404040000000000000000000000000000000000000000009A
:403500000000000000000000000000005C340000000000000000000000000000000000000000000000000000000000000000000000000000000000000000000000000000FB
:40354000000000000000000000000000E400002000000000000000000000000000000000000000000000000000000000000000000000000000000000000000000000000047
:40358000000000000000000000000000000000000000000000000000000000000000000000000000000000000000000000000000000000000000000000000000000000000B
:4035C00000000000000000000000000000000000000000000000000000000000000000000000000000000000000000000000000000000000000000000000000000000000CB
:40360000000000000000000000000000000000000000000000000000000000000000000000000000000000000000000000000000000000000000000000000000000000008A
:40364000000000000000000000000000000000000000000000000000000000000000000000000000000000000000000000000000000000000000000000000000000000004A
:020000040003F7
:0200000490303A
:020000006F4F40
:0200000490402A
:4000000000000000000000000000000000000000000000000000000000000000000000000000000000000000000000000000000000000000000000000000000000000000C0
:400040000000000000000000000000000000000000000000000000000000000000000000000000000000000000000000000000000000000000000000000000000000000080
:0200000490501A
:0C0000000002101111A00001102180EF7F
:0200000490600A
:0100000001FE
:00000001FF